:020000040800F2
:100000008037002071530008B94E00085D53000886
:100010005D5300085D5300085D53000800000000B8
:100020000000000000000000000000006D54000807
:100030005D53000800000000395400086171000899
:10004000E5550008E5550008E5550008E5550008A8
:10005000E5550008E5550008E5550008E555000898
:10006000E5550008E5550008E5550008E555000888
:10007000E5550008E5550008E5550008E555000878
:10008000E5550008E5550008E5550008E555000868
:10009000E5550008E5550008E5550008E555000858
:1000A000E5550008E5550008E5550008E555000848
:1000B000E5550008E5550008E5550008E555000838
:1000C000E5550008E5550008E5550008E555000828
:1000D000E5550008E5550008E5550008E555000818
:1000E000E5550008E5550008E5550008E555000808
:1000F000E5550008E5550008E5550008E5550008F8
:10010000E5550008E5550008E5550008E5550008E7
:10011000E5550008E5550008E5550008E5550008D7
:10012000E5550008E5550008E5550008E5550008C7
:10013000E5550008E5550008E5550008E5550008B7
:10014000E5550008E5550008E5550008E5550008A7
:10015000E5550008E5550008E5550008E555000897
:10016000E5550008E5550008E5550008E555000887
:10017000E5550008E5550008E5550008E555000877
:10018000E5550008E5550008E5550008E555000867
:10019000E5550008E5550008E5550008E555000857
:1001A000E5550008E5550008E5550008E555000847
:1001B000E5550008E5550008E5550008E555000837
:1001C000E5550008E5550008E5550008E555000827
:0801D000E5550008E5550008A3
:1001D800FFFFFFFFFFFFFFFFFFFFFFFFFFFFFFFF27
:1001E800FFFFFFFFFFFFFFFFFFFFFFFFFFFFFFFF17
:0801F800FFFFFFFFFFFFFFFF07
:1002000090F800F06DE9024520F007016FF0000C56
:1002100010F0070491F820F040F049804FF00004FE
:100220006FF00700D1E9002391F840F000F10800D9
:1002300082FA4CF2A4FA8CF283FA4CF3A2FA8CF311
:100240004BBBD1E9022382FA4CF200F10800A4FA78
:100250008CF283FA4CF3A2FA8CF3E3B9D1E90423CC
:1002600082FA4CF200F10800A4FA8CF283FA4CF303
:10027000A2FA8CF37BB9D1E9062301F1200182FABD
:100280004CF200F10800A4FA8CF283FA4CF3A2FAC3
:100290008CF3002BC6D0002A04BF04301A4612BAD1
:1002A000B2FA82F2FDE8024500EBD2007047D1E9D4
:1002B000002304F00305C4F100004FEAC50514F063
:1002C000040F91F840F00CFA05F562EA05021CBF34
:1002D00063EA050362464FF00004A9E7000000004E
:1002E00001F0FF01102A2BDB10F0070F08D010F8E7
:1002F000013B013A8B422DD010F0070F42B3F6D1EB
:10030000F0B441EA012141EA014122F007047FF003
:1003100000070023F0E80256083C85EA010586EA5A
:10032000010685FA47F5A3FA87F586FA47F6A5FA96
:1003300087F68EB9EED1F0BC01F0FF0102F00702A2
:1003400032B110F8013B013A83EA010313B1F8D14D
:100350000020704701387047002D06BF354603382E
:10036000073815F0010F07D1013015F4807F02BF67
:10037000013015F4C03F0130F0BC0138704700BFB8
:1003800081F0004102E000BF83F0004330B54FEA46
:1003900041044FEA430594EA050F08BF90EA020FB3
:1003A0001FBF54EA000C55EA020C7FEA645C7FEA46
:1003B000655C00F0E2804FEA5454D4EB5555B8BF69
:1003C0006D420CDD2C4480EA020281EA030382EADA
:1003D000000083EA010180EA020281EA0303362D6C
:1003E00088BF30BD11F0004F4FEA01314FF4801C3F
:1003F0004CEA113102D0404261EB410113F0004F51
:100400004FEA03334CEA133302D0524263EB430307
:1004100094EA050F00F0A780A4F10104D5F1200EA5
:100420000DDB02FA0EFC22FA05F2801841F1000100
:1004300003FA0EF2801843FA05F359410EE0A5F1D4
:1004400020050EF1200E012A03FA0EFC28BF4CF005
:10045000020C43FA05F3C01851EBE37101F00045BB
:1004600007D54FF0000EDCF1000C7EEB00006EEBC8
:100470000101B1F5801F1BD3B1F5001F0CD3490852
:100480005FEA30004FEA3C0C04F101044FEA4452A9
:1004900012F5800F80F09A80BCF1004F08BF5FEA30
:1004A000500C50F1000041EB045141EA050130BD10
:1004B0005FEA4C0C404141EB0101013C28BFB1F522
:1004C000801FE9D291F0000F04BF01460020B1FA6D
:1004D00081F308BF2033A3F10B03B3F120020CDA40
:1004E0000C3208DD02F1140CC2F10C0201FA0CF01E
:1004F00021FA02F10CE002F11402D8BFC2F1200C83
:1005000001FA02F120FA0CFCDCBF41EA0C01904038
:10051000E41AA2BF01EB0451294330BD6FEA040481
:100520001F3C1CDA0C340EDC04F11404C4F120026C
:1005300020FA04F001FA02F340EA030021FA04F37E
:1005400045EA030130BDC4F10C04C4F1200220FAD5
:1005500002F001FA04F340EA0300294630BD21FA13
:1005600004F0294630BD94F0000F83F4801306BFD9
:1005700081F480110134013D4EE77FEA645C18BFCD
:100580007FEA655C29D094EA050F08BF90EA020F64
:1005900005D054EA000C04BF1946104630BD91EA5C
:1005A000030F1EBF0021002030BD5FEA545C05D15F
:1005B0004000494128BF41F0004130BD14F580049E
:1005C0003CBF01F5801130BD01F0004545F0FE4112
:1005D00041F470014FF0000030BD7FEA645C1ABF47
:1005E000194610467FEA655C1CBF0B46024650EA7E
:1005F000013406BF52EA033591EA030F41F40021AA
:1006000030BD00BF90F0000F04BF0021704730B52F
:100610004FF4806404F132044FF000054FF0000104
:1006200050E700BF90F0000F04BF0021704730B5C5
:100630004FF4806404F1320410F0004548BF40429A
:100640004FF000013EE700BF42004FEAE2014FEAEF
:1006500031014FEA02701FBF12F07F4393F07F4FCA
:1006600081F06051704732F07F4208BF704793F0CD
:100670007F4F04BF41F40021704730B54FF46074E0
:1006800001F0004521F000411CE700BF50EA0102E3
:1006900008BF704730B54FF000050AE050EA01028C
:1006A00008BF704730B511F0004502D5404261EBFC
:1006B00041014FF4806404F132045FEA915C3FF43D
:1006C000D8AE4FF003025FEADC0C18BF03325FEADA
:1006D000DC0C18BF033202EBDC02C2F1200300FA8B
:1006E00003FC20FA02F001FA03FE40EA0E0021FAB0
:1006F00002F11444BDE600BF70B54FF0FF0C4CF49E
:10070000E06C1CEA11541DBF1CEA135594EA0C0F4F
:1007100095EA0C0F00F0DEF82C4481EA030621EA8A
:100720004C5123EA4C5350EA013518BF52EA0335C5
:1007300041F4801143F4801338D0A0FB02CE4FF077
:100740000005E1FB02E506F00042E0FB03E54FF0A7
:100750000006E1FB03569CF0000F18BF4EF0010E9F
:10076000A4F1FF04B6F5007F64F5407404D25FEA9B
:100770004E0E6D4146EB060642EAC62141EA55514E
:100780004FEAC52040EA5E504FEACE2EB4F1FD0C90
:1007900088BFBCF5E06F1ED8BEF1004F08BF5FEA0E
:1007A000500E50F1000041EB045170BD06F00046C0
:1007B00046EA010140EA020081EA0301B4EB5C046D
:1007C000C2BFD4EB0C0541EA045170BD41F4801165
:1007D0004FF0000E013C00F3AB8014F1360FDEBF8A
:1007E000002001F0004170BDC4F10004203C35DA66
:1007F0000C341BDC04F11404C4F1200500FA05F3E9
:1008000020FA04F001FA05F240EA020001F0004289
:1008100021F0004110EBD37021FA04F642EB0601FF
:100820005EEA430E08BF20EAD37070BDC4F10C0429
:10083000C4F1200500FA04F320FA05F001FA04F2ED
:1008400040EA020001F0004110EBD37041F10001D9
:100850005EEA430E08BF20EAD37070BDC4F12005E4
:1008600000FA05F24EEA020E20FA04F301FA05F24C
:1008700043EA020321FA04F001F0004121FA04F2F4
:1008800020EA020000EBD3705EEA430E08BF20EAC4
:10089000D37070BD94F0000F0FD101F000464000FE
:1008A00041EB010111F4801F08BF013CF7D041EA80
:1008B000060195F0000F18BF704703F00046520084
:1008C00043EB030313F4801F08BF013DF7D043EA55
:1008D0000603704794EA0C0F0CEA135518BF95EA0B
:1008E0000C0F0CD050EA410618BF52EA4306D1D192
:1008F00081EA030101F000414FF0000070BD50EAB1
:10090000410606BF1046194652EA430619D094EA3A
:100910000C0F02D150EA013613D195EA0C0F05D124
:1009200052EA03361CBF104619460AD181EA030178
:1009300001F0004141F0FE4141F470014FF0000030
:1009400070BD41F0FE4141F4780170BD70B54FF0CB
:10095000FF0C4CF4E06C1CEA11541DBF1CEA13554B
:1009600094EA0C0F95EA0C0F00F0A7F8A4EB05042D
:1009700081EA030E52EA03354FEA013100F0888024
:100980004FEA03334FF0805545EA131343EA1263ED
:100990004FEA022245EA111545EA10654FEA0026A2
:1009A0000EF000419D4208BF964244F1FD0404F55B
:1009B000407402D25B084FEA3202B61A65EB0305B7
:1009C0005B084FEA32024FF480104FF4002CB6EB74
:1009D000020E75EB030E22BFB61A754640EA0C00F4
:1009E0005B084FEA3202B6EB020E75EB030E22BF34
:1009F000B61A754640EA5C005B084FEA3202B6EB75
:100A0000020E75EB030E22BFB61A754640EA9C0033
:100A10005B084FEA3202B6EB020E75EB030E22BF03
:100A2000B61A754640EADC0055EA060E18D04FEAC1
:100A3000051545EA16754FEA06164FEAC30343EA61
:100A400052734FEAC2025FEA1C1CC0D111F4801F2E
:100A50000BD141EA00014FF000004FF0004CB6E727
:100A600011F4801F04BF01430020B4F1FD0C88BFC6
:100A7000BCF5E06F3FF6AFAEB5EB030C04BFB6EBD1
:100A8000020C5FEA500C50F1000041EB045170BDC4
:100A90000EF0004E4EEA113114EB5C04C2BFD4EBF1
:100AA0000C0541EA045170BD41F480114FF0000E75
:100AB000013C90E645EA060E8DE60CEA135594EAF1
:100AC0000C0F08BF95EA0C0F3FF43BAF94EA0C0FF4
:100AD0000AD150EA01347FF434AF95EA0C0F7FF469
:100AE00025AF104619462CE795EA0C0F06D152EABD
:100AF00003353FF4FDAE1046194622E750EA4106A1
:100B000018BF52EA43067FF4C5AE50EA41047FF4B1
:100B10000DAF52EA43057FF4EBAE12E780F00040E0
:100B200002E000BF81F0004142001FBF5FEA4103C5
:100B300092EA030F7FEA226C7FEA236C6AD04FEAC5
:100B40001262D2EB1363C1BFD2184140484041400A
:100B5000B8BF5B42192B88BF704710F0004F40F4BC
:100B6000000020F07F4018BF404211F0004F41F4D8
:100B7000000121F07F4118BF494292EA030F3FD0A4
:100B8000A2F1010241FA03FC10EB0C00C3F12003B7
:100B900001FA03F100F0004302D5494260EB400046
:100BA000B0F5000F13D3B0F1807F06D340084FEAB1
:100BB000310102F10102FE2A51D2B1F1004F40EBA6
:100BC000C25008BF20F0010040EA0300704749000E
:100BD00040EB0000013A28BFB0F5000FEDD2B0FAAB
:100BE00080FCACF1080CB2EB0C0200FA0CF0AABFCE
:100BF00000EBC25052421843BCBFD040184370476C
:100C000092F0000F81F4000106BF80F40000013271
:100C1000013BB5E74FEA41037FEA226C18BF7FEA48
:100C2000236C21D092EA030F04D092F0000F08BF8A
:100C30000846704790EA010F1CBF0020704712F071
:100C40007F4F04D1400028BF40F00040704712F1B0
:100C500000723CBF00F50000704700F0004343F015
:100C6000FE4040F4000070477FEA226216BF08464B
:100C70007FEA23630146420206BF5FEA412390EA0E
:100C8000010F40F4800070474FF0000304E000BF04
:100C900010F0004348BF40425FEA000C08BF7047B5
:100CA00043F0964301464FF000001CE050EA010279
:100CB00008BF70474FF000030AE000BF50EA01028E
:100CC00008BF704711F0004302D5404261EB41017B
:100CD0005FEA010C02BF84460146002043F0B643A0
:100CE00008BFA3F18053A3F50003BCFA8CF2083AC5
:100CF000A3EBC25310DB01FA02FC634400FA02FCCE
:100D0000C2F12002BCF1004F20FA02F243EB0200D4
:100D100008BF20F00100704702F1200201FA02FC36
:100D2000C2F1200250EA4C0021FA02F243EB020029
:100D300008BF20EADC7070474FF0FF0C1CEAD0526D
:100D40001EBF1CEAD15392EA0C0F93EA0C0F6FD02E
:100D50001A4480EA010C400218BF5FEA41211ED00C
:100D60004FF0006343EA501043EA5111A0FB0131F8
:100D70000CF00040B1F5000F3EBF490041EAD371CD
:100D80005B0040EA010062F17F02FD2A1DD8B3F149
:100D9000004F40EBC25008BF20F00100704790F0B8
:100DA000000F0CF0004C08BF49024CEA502040EA0A
:100DB00051207F3AC2BFD2F1FF0340EAC2507047D0
:100DC00040F400004FF00003013A5DDC12F1190F0E
:100DD000DCBF00F000407047C2F10002410021FA80
:100DE00002F1C2F1200200FA02FC5FEA310040F198
:100DF000000053EA4C0308BF20EADC70704792F011
:100E0000000F00F0004C02BF400010F4000F013A48
:100E1000F9D040EA0C0093F0000F01F0004C02BF43
:100E2000490011F4000F013BF9D041EA0C018FE7B2
:100E30000CEAD15392EA0C0F18BF93EA0C0F0AD0B8
:100E400030F0004C18BF31F0004CD8D180EA0100DE
:100E500000F00040704790F0000F17BF90F0004F77
:100E6000084691F0000F91F0004F14D092EA0C0F59
:100E700001D142020FD193EA0C0F03D14B0218BFEC
:100E8000084608D180EA010000F0004040F0FE4032
:100E900040F40000704740F0FE4040F440007047CE
:100EA0004FF0FF0C1CEAD0521EBF1CEAD15392EA4D
:100EB0000C0F93EA0C0F69D0A2EB030280EA010C3D
:100EC00049024FEA402037D04FF0805343EA1111D6
:100ED00043EA10130CF000408B4238BF5B0042F134
:100EE0007D024FF4000C8B4224BF5B1A40EA0C00D9
:100EF000B3EB510F24BFA3EB510340EA5C00B3EB0B
:100F0000910F24BFA3EB910340EA9C00B3EBD10FF8
:100F100024BFA3EBD10340EADC001B0118BF5FEA4A
:100F20001C1CE0D1FD2A3FF650AF8B4240EBC25073
:100F300008BF20F0010070470CF0004C4CEA502034
:100F40007F32C2BFD2F1FF0340EAC250704740F483
:100F500000004FF00003013A37E792F0000F00F075
:100F6000004C02BF400010F4000F013AF9D040EAF3
:100F70000C0093F0000F01F0004C02BF490011F487
:100F8000000F013BF9D041EA0C0195E70CEAD1537F
:100F900092EA0C0F08D142027FF47DAF93EA0C0F66
:100FA0007FF470AF084676E793EA0C0F04D14B024A
:100FB0003FF44CAF08466EE730F0004C18BF31F0FC
:100FC000004CCAD130F000427FF45CAF31F00043F6
:100FD0007FF43CAF5FE700BF4FF0FF3C06E000BF8F
:100FE0004FF0010C02E000BF4FF0010C4DF804CDB2
:100FF0004FEA40024FEA41037FEA226C18BF7FEAC2
:10100000236C11D001B052EA530C18BF90EA010FC3
:1010100058BFB2EB030088BFC81738BF6FEAE17052
:1010200018BF40F0010070477FEA226C02D15FEAEE
:10103000402C05D17FEA236CE4D15FEA412CE1D05A
:101040005DF8040B704700BF844608466146FFE721
:101050000FB5FFF7C9FF002848BF10F1000F0FBD03
:101060004DF808EDFFF7F4FF0CBF012000205DF8FC
:1010700008FB00BF4DF808EDFFF7EAFF34BF012081
:1010800000205DF808FB00BF4DF808EDFFF7E0FF1A
:1010900094BF012000205DF808FB00BF4DF808ED6B
:1010A000FFF7D2FF94BF012000205DF808FB00BFCE
:1010B0004DF808EDFFF7C8FF34BF012000205DF8B0
:1010C00008FB00BF4FEA4002B2F1FE4F0FD34FF0D2
:1010D0009E03B3EB12620DD94FEA002343F00043A5
:1010E00010F0004F23FA02F018BF404270474FF053
:1010F0000000704712F1610F01D1420205D110F0DA
:10110000004008BF6FF0004070474FF0000070478C
:1011100042000ED2B2F1FE4F0BD34FF09E03B3EB61
:10112000126209D44FEA002343F0004323FA02F08D
:1011300070474FF00000704712F1610F01D1420279
:1011400002D14FF0FF3070474FF00000704700BFF2
:1011500053B94AB9002908BF00281CBF4FF0FF311E
:101160004FF0FF3000F00CB8ADF1080C6DE904CE83
:1011700000F07BF9DDF804E0DDE9022304B07047FC
:10118000704700BF4FF0FF3C06E000BF4FF0010C7E
:1011900002E000BF4FF0010C4DF804CD4FEA410CC6
:1011A0007FEA6C5C4FEA430C18BF7FEA6C5C1BD093
:1011B00001B050EA410C0CBF52EA430C91EA030F14
:1011C00002BF90EA020F0020704710F1000F91EA71
:1011D000030F58BF994208BF90422CBFD8176FEA3F
:1011E000E37040F0010070474FEA410C7FEA6C5C0D
:1011F00002D150EA013C07D14FEA430C7FEA6C5C14
:10120000D6D152EA033CD3D05DF8040B704700BF3F
:101210008446104662468C461946634600E000BF8D
:1012200001B5FFF7B7FF002848BF10F1000F01BD5F
:101230004DF808EDFFF7F4FF0CBF012000205DF82A
:1012400008FB00BF4DF808EDFFF7EAFF34BF0120AF
:1012500000205DF808FB00BF4DF808EDFFF7E0FF48
:1012600094BF012000205DF808FB00BF4DF808ED99
:10127000FFF7CEFF94BF012000205DF808FB00BF00
:101280004DF808EDFFF7C4FF34BF012000205DF8E2
:1012900008FB00BF844641EA000313F003036DD14D
:1012A000403A41D351F8043B40F8043B51F8043B29
:1012B00040F8043B51F8043B40F8043B51F8043B30
:1012C00040F8043B51F8043B40F8043B51F8043B20
:1012D00040F8043B51F8043B40F8043B51F8043B10
:1012E00040F8043B51F8043B40F8043B51F8043B00
:1012F00040F8043B51F8043B40F8043B51F8043BF0
:1013000040F8043B51F8043B40F8043B51F8043BDF
:1013100040F8043B51F8043B40F8043B51F8043BCF
:1013200040F8043B403ABDD2303211D351F8043B6F
:1013300040F8043B51F8043B40F8043B51F8043BAF
:1013400040F8043B51F8043B40F8043B103AEDD21E
:101350000C3205D351F8043B40F8043B043AF9D26F
:10136000043208D0D2071CBF11F8013B00F8013B42
:1013700001D30B8803806046704700BF082A13D34F
:101380008B078DD010F003038AD0C3F10403D21A67
:10139000DB071CBF11F8013B00F8013B80D331F89B
:1013A000023B20F8023B7BE7043AD9D3013A11F81B
:1013B000013B00F8013BF9D20B7803704B78437086
:1013C0008B788370604670474FEA410C7FEA6C5C13
:1013D00002D150EA013C0AD14FEA430C7FEA6C5C2F
:1013E00002D152EA033C02D14FF0000070474FF0A7
:1013F000010070474FEA410212F5001215D211D5D3
:101400006FF47873B3EB625212D94FEAC12343F001
:10141000004343EA505311F0004F23FA02F018BF83
:10142000404270474FF00000704750EA013005D14C
:1014300011F0004008BF6FF0004070474FF000000F
:10144000704700BF430803F05533C01A00F0333330
:10145000800800F03330184400EB10104FF00133D7
:1014600000F00F305843000E70472DE9F0478646D4
:101470008C460846089E154674461946002B40F0D7
:10148000C2808542B2FA82F245D94AB1C2F1200344
:1014900000FA02FC2EFA03F3954043EA0C0C944048
:1014A0004FEA154EA8B2BCFBFEF8230C0EFB18CC7D
:1014B00008FB00F943EA0C43994528D9EB1808F1D9
:1014C000FF3704D2994502D9A8F102072B44A3EBB8
:1014D0000903A4B2B3FBFEFC0EFB1C330CFB00F0B3
:1014E00044EA0344A04214D92C190CF1FF3304D26E
:1014F000A04202D9ACF102032C44241A43EA07406B
:101500001EB1D440002334607360BDE8F0874746C5
:10151000DDE76346F1E792BB431B01214FEA154E1D
:10152000AFB2B3FBFEFC200C0EFB1C330CFB07F828
:1015300040EA0343984562D9EB180CF1FF3004D21E
:10154000984502D9ACF102002B44A3EB0803A4B2E6
:10155000B3FBFEFC0EFB1C330CFB07F744EA034411
:10156000A7424ED92C190CF1FF3304D2A74202D95D
:10157000ACF102032C44E41B43EA0040C0E7C2F193
:10158000200320FA03F1954090402EFA03F3034321
:101590004FEA154EAFB2B1FBFEFC0EFB1C10190C4E
:1015A0000CFB07F841EA0041884504FA02F422D90D
:1015B00069180CF1FF3004D2884502D9ACF1020061
:1015C0002944A1EB08019BB2B1FBFEFC0EFB1C11F0
:1015D0000CFB07F743EA01439F420ED9EB180CF1CD
:1015E000FF3104D29F4202D9ACF102012B44DB1B34
:1015F00041EA004192E76046E3E76146F7E760466B
:10160000A3E76346B7E7834206D916B90021084627
:101610007BE7C6E900E0F9E7B3FA83F78FB98342C5
:1016200001D3724508D8BEEB020460EB030301202E
:101630009C461EB9002168E73846FAE7C6E9004C27
:10164000F8E7C7F1200CBB4022FA0CF41C432EFA39
:101650000CF120FA0CF3B84001434FEA14490EFA9A
:1016600007F5B3FBF9F81FFA84FE09FB18300B0CE1
:1016700008FB0EFA43EA00439A4502FA07F240D902
:10168000E31808F1FF3004D29A4502D9A8F102000C
:101690002344A3EB0A0389B2B3FBF9F809FB18331F
:1016A00008FB0EFE41EA03418E452CD9611808F172
:1016B000FF3304D28E4502D9A8F10203214443EA44
:1016C0000040A0FB0298A1EB0E014145CE464346E7
:1016D00002D306D14D4504D2B9EB020E68EB0403E8
:1016E0000138002EA6D0B5EB0E0261EB030101FA22
:1016F0000CFC22FA07F34CEA0303F940C6E9003177
:1017000098E74046C5E74346D9E7000000000000DF
:101710002DE9F04F87B0054603911646836804AA69
:101720005B689847002833DBDDE9044A4CF250330C
:10173000A4FB03B203FB0A2302930299DFF8608043
:1017400015A3D3E900235846FFF702FD4FF0FF39F8
:10175000029BD94578EB0303074619D3A6FB04B4D3
:1017600006FB0A440CA3D3E9002321465846FFF7A1
:10177000EFFCD94578EB0404034609D38742AA68F5
:1017800006D300210091146803993A462846A047E1
:1017900007B0BDE8F08F00BF00CA9A3B0000000010
:1017A000FFC99A3B000000002DE9F04F016C9FB08B
:1017B00016461F46CDE904672B9D039049B1426C44
:1017C0004A600123934004468B6009F0E7FC002344
:1017D0002364B7F10009B4BF012300232B60764BCB
:1017E000BCBF29F00049CDF8149033EA090300F09A
:1017F000AA80DDE904340022184621460023CDE901
:101800000801FFF715FD804668B12A9A012313608D
:101810002C9B13B12C9A694B1360694B0A930A985D
:101820001FB0BDE8F08F1CAB01931DAB0093039874
:10183000DDE9082309F0E6FF5FEA1955824640F02A
:101840009880DDE91C85454405F23243202B40F3A6
:101850008383C3F1400309FA03F905F2124326FA20
:1018600003F349EA0300FEF7CDFE0123013DA1F198
:10187000F8711193534B0022FEF786FD48A3D3E97C
:101880000023FEF739FF48A3D3E90023FEF77EFDCE
:10189000064628460F46FEF7C5FE45A3D3E90023BA
:1018A000FEF72AFF02460B4630463946FEF76EFD2C
:1018B00006460F46FFF79EFD002283460023304672
:1018C0003946FFF7BFFC002840F01A83A8EB050853
:1018D000BBF1160F08F1FF3400F28B813A4D05EB96
:1018E000CB05D5E90023DDE90801FFF7ABFC0028B3
:1018F00070D00023002C0BF1FF3B1093C0F27E81CF
:1019000000230B93BBF1000F6ADA0B9BA3EB0B03D5
:101910000B93CBF10003CDE90EB3289B092B4FF0BD
:10192000000B65D8052B40F31C83043B289300254E
:10193000289B023B032B00F22386DFE813F06004B0
:101940005D04540438042A9AC9F3130942F20F7350
:1019500059EA060913601CD12C9B002B00F02B8642
:101960001A4B0A9308332C9A0A9813601FB0BDE8EB
:10197000F08FDDE90812C2F31303084643F07F51EC
:10198000CDF84480A5F2FF35DDF8708041F44011B8
:1019900070E72C9B002B40F0E7830D4B0A933EE74A
:1019A00061436F63A787D23FB3C8608B288AC63F65
:1019B000FB799F501344D33F0000F07FFD030108E3
:1019C000FC0301080000F83FD0FB000820040108D8
:1019D0002C040108B8F1000F40F3608410900B90C4
:1019E00000230F93289BCDF838B0092B5C4499D97C
:1019F0000023CDE9283301254FF0FF330C950693E2
:101A0000039B00215964069B1893039809F0A0FBDF
:101A10000A90002800F0BD85039B0A9A1A64069B71
:101A20000E2B00F21581002D00F012810E9A002A73
:101A300040F33B84B24D02F00F0305EBC303D3E93F
:101A4000008913461511DA0540F1FA83AD4BDDE943
:101A50000801D3E90823FEF779FFCDE9120105F06B
:101A60000F0503277DB1A74EEB0708D54046494631
:101A7000D6E90023FEF740FE0137804689466D1007
:101A800006F10806F0D142464B46DDE91201FEF7A9
:101A90005DFF80468946109B43B19B4B0022404628
:101AA0004946FFF7CFFB002840F0F1843846FEF7A7
:101AB000B9FD42464B46FEF71FFE944B0022FEF74F
:101AC00065FC069B0646A1F15077002B00F0A9802B
:101AD0000E9B1993069B12930A9B894D49464046DB
:101AE000CDE914675E1CFFF785FC129905EBC10375
:101AF00053E902120746CDE91612FEF793FD02469E
:101B00000B4640464946FEF73FFC89460C99303764
:101B1000DDE916238046FFB2002900F053847C499A
:101B20000020FEF713FFDDE91423FEF72DFC0A9DCC
:101B300002460B46CDE914232F7042464B46FFF771
:101B40009FFB002840F09784CDE91AB4CDF858A047
:101B5000129DDDE914AB00272AE00137AF4280F285
:101B6000DE846C4B504659460022FEF7C5FD694B9A
:101B7000002282468B4640464946FEF7BDFD894617
:101B80008046FFF737FC0446FEF74CFD02460B4645
:101B900040464946FEF7F8FB303406F8014B524602
:101BA0005B4680468946FFF74DFB002840F0B48431
:101BB00042464B4654490020FEF7E6FB52465B4640
:101BC000FFF740FB0028C8D0199BDDF858A00A9AFF
:101BD000374603F1010802E0974200F07C843E465C
:101BE00017F8013D392BF7D00133DBB23B70454686
:101BF00075E10123002C1093BFF682AEC8F10103FA
:101C00000B9300247EE63846FEF70CFD42464B4619
:101C1000FEF772FD3D4B0022FEF7B8FB0646A1F130
:101C200050773D4B404649460022FEF7ADFB324619
:101C30003B4680468946FFF723FB002840F05A8444
:101C400040464946324607F10043FFF7FBFA28BBFE
:101C50001D9B002BC0F292800E9A0E2A00F38E80FC
:101C6000274D0E9B05EBC305D5E90034CDE90434BF
:101C7000299B002B19DA069B002B16DC0ED1264B74
:101C80000022DDE90401FEF737FD02460B46DDE9DF
:101C90000801FFF7E1FA002800F02C844FF000095A
:101CA0000A9E4F46299BDD4325E2DDE90445DDE937
:101CB000088922462B4640464946FEF747FEFFF775
:101CC00099FB0646FEF7AEFC22462B46FEF714FDB6
:101CD0000A9F0B46024649464046FEF755FB06F171
:101CE000300307F8013B069B012B00F0128301250E
:101CF000CDF818A09946DDE904ABA8462CE000BF5A
:101D0000D0FB0008A8FB00080000F03F00001C40CA
:101D10000000E03F000024400000144052465B46B3
:101D200020462946FEF712FEFFF764FB0646FEF743
:101D300079FC52465B46FEF7DFFC08F101080B46D2
:101D4000024629462046FEF71FFB06F13003C84530
:101D500007F8013B00F0DB82B94B0022FEF7CCFC18
:101D60000022002304460D46FFF762FA0028D5D072
:101D70000E9DDDF818A001353E46B0E00C9A002A11
:101D800040F0D28000230F9D0B9E0C931F4656B14E
:101D9000002C08DDA6420B9A3346A8BF2346D21A70
:101DA0000B92F61AE41A0F9B53B10C9B13B1002D42
:101DB00040F0E88251460F9A039809F07FFB824673
:101DC0000398012109F096FA8146BBF1000F40F01B
:101DD000B681289B012B40F3CC810120204410F0D8
:101DE0001F0000F09A80C0F12003042B40F3DA8139
:101DF0000B9BC0F11C0003440B93064404440B9B53
:101E0000002B05DD514603981A4609F0B1FB8246C6
:101E1000002C05DD49460398224609F0A9FB8146BE
:101E2000109B002B40F07081069B002B40F34881F3
:101E30000C9B002B40F0A4800E9D0135DDF828801E
:101E4000069CDDF80CB0012607E0514600230A226B
:101E5000584609F0ADF9013682464946504608F029
:101E600091FFA64200F1300308F8013BEDDB069A32
:101E7000002AC8BF16460A9AD8BF012602EB060BF5
:101E80000024514601220398049309F071FB49464E
:101E9000824609F0E5FB002840F3E3810A9A02E05C
:101EA0005A4500F0E9815E460BF1FF3B16F8013C14
:101EB000392BF5D001338BF80030DDF80C80494622
:101EC000404609F06BF957B12CB1BC4203D0214612
:101ED000404609F063F90398394609F05FF9039821
:101EE000514609F05BF9002333702A9B1D602C9B3F
:101EF000002B3FF494AC0A981E601FB0BDE8F08F31
:101F00005846FEF78FFB32463B46FFF791F9002813
:101F10007FF4DCAC0BF1FF3BD8E41C230B9A1A4492
:101F20000B921E441C446AE7289A012A40F3A981B7
:101F3000069A0F9B551EAB42C0F26B81002AA3EBA1
:101F4000050580F2DD820B9B069A9E1A03980121FB
:101F500009F0D0F907461AE7C3F1200306FA03F0A7
:101F600081E40125E4E43946002303980A2209F0BC
:101F70001FF9189B002B074640F3EF820E9506933E
:101F8000002E00F33F81BBF1000F40F0DF81B84627
:101F90000A9E069C731E1C44049B0C9403F00103D0
:101FA000039C0F934946504608F0ECFE39468346A1
:101FB000504609F055FB424649460546204609F081
:101FC0006FFBC26801460BF13003002A3AD108903A
:101FD00050460B9309F044FB08990690204609F0FF
:101FE000DDF8069A0B9B002A5AD1289A1AB90F9A43
:101FF000002A00F09A82002D45DB0C9AB346B242CB
:102000000BF8013B00F0B981514600230A2220461B
:1020100009F0CEF84745824639464FF000034FF0AD
:102020000A02204636D009F0C3F84146074600238D
:102030000A22204609F0BCF85E468046B2E700BF9F
:10204000000024400398069309F0A8F8002D069B91
:1020500006DB049A289902F001020D432A432AD193
:10206000514601220398049309F082FA49468246B8
:1020700009F0F6FA0028049B40F3E880392B00F0C1
:102080002F820BF131030E9D06F8013B3C460135D2
:10209000474612E709F08CF85E460746804681E71E
:1020A000002DC0F27D8228990D430F990D4300F059
:1020B0007782002AA1DD392B00F012820133E2E79A
:1020C000289B022B7FF7B4AE069B002B40F01D81AE
:1020D00049460522039809F06BF8014681465046AF
:1020E00009F0BEFA002840F310810A9E0E9D3123AC
:1020F00006F8013B013503984946013509F04EF8D1
:10210000002F7FF4E8AEEAE64946504609F0A8FA07
:102110000028BFF689AE5146002303980A2209F031
:1021200047F80E9B5D1E0C9B8246002B7FF41BAF75
:10213000189B002B40F3FF810E9D06937EE601461F
:102140005A46039809F0BAF9289B012B81466CDDA9
:102150004FF0000BD9F8103009EB8303186909F030
:1021600077F8C0F1200039E6924B0A930333FFF76A
:10217000FABB049B002B7FF430AEDDE90412C2F3FE
:102180001303002B7FF429AE8B4B134023B10B9B21
:1021900001330B9301340123BBF1000F40F0AE81FA
:1021A0009B461AE63FF42BAEC0F13C03B6E6012392
:1021B0000C93299B0E9A134418930133012B1E464E
:1021C0000693B8BF0126172E40F3D58101220423C0
:1021D0005B0003F11400B042114602F10102F7D98D
:1021E000039B596411E401230C93299B002B33DDDD
:1021F000189306931E46E6E700230C93D9E70023C5
:102200000C93F2E739460398324609F0B1F90746D4
:10221000B9E60F9B069A0F95EB1A9B440B9B1E4643
:10222000134414440B93002590E6049B002B8FD19C
:10223000DDE90401C1F313030A46002B88D1A3E7AB
:10224000DDE908230227CDE912230BE47FF41BAF5D
:10225000DA077FF518AF11E7012329930693FFF7FB
:10226000CFBB03D1049BDB073FF518AE5E461BF8DE
:10227000013D302BFAD020E60A9A31230135137044
:102280001BE6119A002A00F0F98003F233430B9AFF
:102290000F9D16461A441C440B9257E6C8F10103E1
:1022A00004460B931090FFF79BBB00F0EB800E9B56
:1022B000424D5E4206F00F0305EBC303D3E9002352
:1022C000DDE90801FEF718FA3511CDE9120100F039
:1022D0004D813B4E0023022780468946E80709D5F9
:1022E000D6E9002340464946FEF706FA0137804604
:1022F000894601236D1006F10806EFD1002B7FF40B
:10230000CAABDDE91289FFF7C6BB0A9ECAE4DDF855
:1023100018A00E9D02460B46FEF738F802460B4603
:10232000CDE906230135DDE90423A846FEF7A8FF21
:1023300040B9DDE90423DDE90601FEF779FF18B1B4
:10234000F10701D50A9A4AE43E46C8E57968039840
:1023500008F0FEFE0546002800F026813B690233A6
:102360009A0007F10C010C30FEF794FF0398294600
:10237000012209F0FDF880460AE60E9D3C46013533
:1023800047467EE5DDF80C8039462A46404609F08E
:1023900095F8524601460746404608F0D9FF514697
:1023A0008246404608F0FAFE0F9B5B1B0F933FF4FA
:1023B00007ADFFE42C0401080000F07FD0FB00080B
:1023C000A8FB0008DDE91401FEF796F90A9B1F70CF
:1023D000129B012BCDE90C0100F0C680129F0A9BD5
:1023E000CDF844B01F447C4B002240464946FEF7DE
:1023F00083F989468046FEF7FDFF8346FEF712F912
:102400000BF1300B02460B4640464946FDF7BCFF38
:1024100006F801BBB74280468946E4D1DDF844B0F6
:102420006E4B0022DDE90C01FDF7B0FF02460B46C2
:1024300040464946FEF724FF002867D1DDE90C231A
:1024400066490020FDF7A0FF02460B46404649467C
:10245000FEF7F8FE48B91D9B002BFFF693AC0E9BD0
:102460000E2B3FF78FACFFF7FCBB3E46013F16F843
:10247000013C302BF9D0199D013530E51C9BC3F18F
:10248000360304E7DDE908890227FFF704BB069B52
:10249000002B3FF4B8AB189B002B7FF7D9AB0E9AFB
:1024A0001293013A4C4B1992404600224946FEF7DE
:1024B00023F980468946781CFEF7B4F842464B461D
:1024C000FEF71AF9464B0022FDF760FF0646A1F120
:1024D0005077FFF701BB08F101083123FFF786BBF6
:1024E0000E9D0A9AB34639233C460BF8013B013551
:1024F0004746D8E44FF000094F46F6E59B4629E6EB
:102500000B9B1E46134414440B931FE5199B0A9A18
:1025100003F10108FFF763BBDDF858A0ABE7DDE985
:102520001AB4DDF858A0FFF793BB392BD8D0002D93
:102530003FF7A7ADA7E5289B022B0ADC189B069363
:1025400049460E9D08F01EFC0A9A00F130031370F4
:102550008DE4189B06930E95B6E5289B022BF8DCBC
:10256000189B0E9506930BE5374659E7DDE912896E
:102570000227FFF790BA039B00215964FFF745BA81
:10258000039B00255D642946184608F0E1FD0A908A
:10259000A8B9144B144800224FF4D57109F080FA01
:1025A000002A7FF770AD5BE50E4B0F482A4640F2DC
:1025B000EA2109F075FA0D4B0A93FFF730B9039B36
:1025C0000A9A1A644FF0FF330122299518930C924E
:1025D0000693FFF73DBB00BF000024400000E03F32
:1025E00000001C40300401084404010820040108D4
:1025F00038B50CF068FF0A220023FEF7A9FD094B4D
:10260000D3E90052441B61EB0202322C72F100024A
:1026100006DBC3E900010448BDE8384005F0EABC28
:1026200038BD00BF980B0020BC120020024B186878
:1026300008B100F0CFBB7047441300202DE9F04FE4
:1026400089B05E4C5E485F4A03210BF0DAFD2046FC
:1026500000F05AF948B95C4A594801210BF0D1FD04
:102660004FF0FF3009B0BDE8F08F584D584E594F2C
:10267000DFF86491DFF864A1DFF864B1DFF864810A
:102680002146284600F0D6FA3560574D2146384697
:1026900000F098FB2F60554F2146384600F0B0FC03
:1026A000534B544AC9F80070C3E9002700229A60CE
:1026B000DA60514F3168C8F8003000221A74504671
:1026C0002A680BF007F9C7F800A02146DFF82CA113
:1026D00058460BF094F83068CAF800B00BF04FF889
:1026E00008B9474AB8E728680BF063F80028F8D023
:1026F000D9F800000BF02BF90028F2D0DAF800002E
:102700000BF0D7F80028ECD0D8F8001038680BF0A0
:10271000F1F83C493C480CF077FD606A94F82810C9
:1027200083689D6965B10269012312688B40134279
:1027300014BF4FF000734FF080634FF0A072A847B2
:1027400094F8283031483249012202FA03F3C1E9F2
:102750000103606A8368DB6903B19847002600279C
:1027600000240525CDE90667CDE90354CDE90144F0
:10277000284B294900944FF40062284805F0BCFC1E
:10278000274926480CF072FD264B27490094CDE9D5
:102790000667CDE90354CDE901444FF48062234834
:1027A00005F0AAFC224921480CF060FD0448214AAA
:1027B00003210BF026FD204654E700BF5C130020E8
:1027C00034FB000888050108A30501083013002028
:1027D000581300202413002050130020E012002082
:1027E000CC1200204C13002054130020181300209A
:1027F00004130020A0FC000848130020441300200C
:10280000C60501082D260008BC120020F12500088D
:10281000B012002071280008401A0020180B002078
:10282000E70501083928000800160020980A002052
:10283000F50501080006010808B50B4C0B4D206892
:1028400000F006FB23685A7C3AB99A68197928681F
:10285000B2FA82F2520900F065FC002140F6B8306D
:1028600005F0FCFEEBE700BF4413002050130020EE
:1028700038B51B4D1B4C286800F058FB237833BB40
:102880002B682046D96900F087FCC8B1164B186840
:1028900000F034FB154B1B6801221A74144B1868A6
:1028A0006368934219D01349134A022B18BF11468B
:1028B00000F05EFC114A124801210BF0A2FC06E078
:1028C0002B682046196A00F0C3FC0028DED10021E5
:1028D00042F2107005F0C2FECDE70A49E8E700BFFA
:1028E000481300203C130020441300204C13002008
:1028F0005013002028060108350601083D0601088E
:1029000034FB00081B060108F0B504465C48206053
:1029100085B00AF00BFF064620B95A4A5A480121F1
:102920000BF06FFC594D6560012303222372638114
:10293000E5602274638228460AF0F8FE00286AD116
:10294000534A514801210BF05CFC00260D235148ED
:1029500023760F22002360616383E06184F82020E6
:1029600063840AF0E3FE002866D0E0690AF0DEFE28
:10297000002861D04FF4B01104F114000AF0D8FE21
:102980004FF4B01104F11C000AF0D2FE0D23012710
:1029900065623E4884F8283067850AF0C7FE054620
:1029A000002850D13C4A384839460BF02AFC3B48B5
:1029B0003B4BE06223630AF0B9FE3A4E00284AD04E
:1029C000206B0AF0B3FE002845D0374B18689A8870
:1029D0000090D3F806005B890290ADF80420E06A0D
:1029E000ADF80C30836869461B689847002834D0DE
:1029F0002E4A254801210BF004FC2A4866630AF0A0
:102A000095FE20B92A4A204801210BF0FAFB002547
:102A1000284605B0F0BDE0680AF088FE00288FD097
:102A2000201D4FF4B0110AF083FE4FF4B01104F1F1
:102A30000C000AF07DFE89E71E4A134801210BF0C5
:102A4000E0FB0026A2E74FF4803104F124000AF0F5
:102A50006FFE3546ABE7184ACBE7206B836802A9C7
:102A60001B6898470028C3D1666330460AF05EFEB3
:102A70000028C7D0002DCAD0012384F83830C7E71A
:102A80007CF70008700601082CFB0008A0F600087F
:102A90008A060108B4F60008CA06010818F70008FB
:102AA00004F700082CF7000898FB0008E00601086E
:102AB00011070108A5060108F906010810B504462A
:102AC000034A044801210BF09CFB0020207210BD3A
:102AD000420701086CFB00082DE9F04F8BB090F81D
:102AE000089000AF04460E46B9F1000F1ED0142224
:102AF0000021B818798106F075FB4FF40033BB61F3
:102B000007F10A03FB610C2387F824306368022570
:102B1000186B3D62836807F114015B6898470346B0
:102B200058B13D4A3D4829460BF074FB4FF000096F
:102B300048462C37BD46BDE8F08FB7F90A2038600B
:102B400022EAE27A5046FEF79FF83549FEF7F4F89C
:102B50003449FEF7A5F934498046FEF7EDF80546FD
:102B600030604046FEF7AEFA83462846FEF7AAFAE2
:102B7000C7F804D08CB006466C462C49396104F184
:102B8000140007F110010AF009FE07F10C0104F12D
:102B90001800C7F80CA00AF001FE04F11C00C7F8E9
:102BA0000CB00AF0FBFD5846FEF772F801464046AD
:102BB000FDF7B8FF1E49FEF7BFF8FEF7A9FA07F1C7
:102BC0000C01F86004F120000AF0E8FD04F1240093
:102BD000FE600AF0E3FD3046FEF75AF8014628464B
:102BE000FDF7A0FF1249FEF7A7F8FEF791FA07F1EB
:102BF0000C01F860224604F128000AF0CFFD0721FD
:102C000042F8101FF96005483B684FF4635101F02A
:102C10002FFED7F804D08BE7660701086CFB00088D
:102C20003333534000F07F450000A040890701087E
:102C30000000C842024AC0E9002100220272704727
:102C4000B8FC000810B50446034A044801210BF003
:102C5000D8FA0020207210BDCC070108DCFA000869
:102C60002DE9F04F8BB090F8089000AF04460E4667
:102C7000B9F1000F1CD014220021B8180225798167
:102C800006F0B0FA07F10A03C7E907350C2387F805
:102C900024306368BD61D86A836807F114015B68FA
:102CA0009847034658B13F4A3F4829460BF0B2FACD
:102CB0004FF0000948462C37BD46BDE8F08FB7F904
:102CC0000A20386022EAE27A5046FDF7DDFF3749F4
:102CD000FEF732F83649FEF7E3F836498046FDF74D
:102CE00021FF3549FEF7DCF8054630604046FEF727
:102CF000E9F983462846FEF7E5F9C7F804D08CB019
:102D000006466C462D49396104F1140007F11001A3
:102D10000AF05EFD07F10C0104F11800C7F80CA0E1
:102D20000AF056FD04F11C00C7F80CB00AF050FD83
:102D30005846FDF7ADFF01464046FDF7F3FE20493A
:102D4000FDF7FAFFFEF7E4F907F10C01F86004F172
:102D500020000AF03DFD04F12400FE600AF038FD79
:102D60003046FDF795FF01462846FDF7DBFE144986
:102D7000FDF7E2FFFEF7CCF907F10C01F8602246FF
:102D800004F128000AF024FD072142F8101FF96021
:102D900005483B684FF4635101F06AFDD7F804D051
:102DA00088E700BFF0070108DCFA0008333353401E
:102DB00000F07F4500002040A4703D3E130801084C
:102DC0000000C842024AC0E9002100220272704796
:102DD000D0FC000810B5437C044633B1174A1848AC
:102DE000BDE8104002210BF00CBA017CA9B9012307
:102DF000C0E902130374052303710AF027FD20467E
:102E00000AF03BFD20460AF001FD23790D4A03211B
:102E1000BDE810400A480BF0FDB9C1684B1E012BFC
:102E200004D803210379C160074AF1E7032904D1DB
:102E30000123C3600379054AEAE710BD4F08010882
:102E400024FB00087E080108A2080108C408010844
:102E5000F0B583B0037C00AF044673B1457C65B91F
:102E6000C368012B0FD103795E2B09D96423037149
:102E70000223C36020460AF0C9FC0C37BD46F0BDF2
:102E800005332371F6E7032BF7D10279052A28D8F9
:102E900005710AF0BBFCA168B1FA81F14909A16092
:102EA00020460AF0D3FCA1680F4A104B6E4688B04A
:102EB000002908BF13466A460D49C2E905134FF4BD
:102EC000007393830B4B42F8103F7B600A482B46FC
:102ED0004FF4E65101F0CCFC0123E360B546052335
:102EE000CFE7053A0271C6E7E6080108EA080108DB
:102EF000EE0801080300000124FB000838B5044671
:102F000000250AF0C8FC257120460AF07FFC4FF42A
:102F10008073E5602382034A0348BDE838400121FD
:102F20000BF06FB90D09010824FB00082DE9FF41E2
:102F30000446002700680297036802A9DB689847E7
:102F4000F0B1029BE36104F104080025A369029E2D
:102F5000AB423DD83046FEF7B5F80546FDF798FE82
:102F600001463046FDF7DEFD2149FDF7E5FEFEF79F
:102F7000CFF8204A00902B461F4803210BF054F94C
:102F800060680397036803A9DB689847E8B1039B6F
:102F90002362271D0026A369039DB34220D828463B
:102FA000FEF790F80446FDF773FE01462846FDF74C
:102FB000B9FD0F49FDF7C0FEFEF7AAF80F4A0090D1
:102FC00023460D4803210BF02FF904B0BDE8F08132
:102FD00058F8040F036831469B6898470135B5E7F8
:102FE00057F8040F03682946DB6898470136D2E793
:102FF0000000C8423009010854FB000844090108D8
:10300000024AC0E90021002202817047E8FC000862
:103010002DE9F04385B0054600AF01F0F004002A29
:1030200053D144F0080444F00403BB706B680126DC
:10303000586BBE60BB1C4FF002097B6087F80C9098
:1030400083683246D3F80880391D2723C04780465D
:1030500030460CF05CF86B68FC70586B87F80C908D
:10306000FB1CC7E90136836832469C68391D27235B
:10307000A047044632200CF04AF858EA040320D056
:103080006B7AF3B9E9468AB06A461149516102F197
:10309000180027210AF048FC02F11C0041460AF002
:1030A00043FC214602F120000AF03EFC0521796034
:1030B00042F8101F07484FF4215101F0D9FBCD46CB
:1030C0006E721437BD46BDE8F08344F00904AAE7E8
:1030D0006709010804FB0008F0B5037A8BB00446C9
:1030E0000E461746D3B100250D22294606A80595A0
:1030F00006F078F83846FDF7A7FACDE90201304628
:10310000FDF7A2FA064ACDE90001112105A806F053
:10311000D9F805AA294620460AF05BFC0BB0F0BDA1
:10312000B209010870B5037A88B004460D46164608
:10313000B3B100210D2204A8039106F053F8094A07
:10314000094B002E18BF13460093084A11212B4645
:1031500003A806F0B7F803AA012120460AF039FCBB
:1031600008B070BDE6080108EA080108C3090108B3
:1031700038B5037A04460D4653B1064A00210AF0D9
:1031800028FC2A4620460121BDE838400AF021BC2F
:1031900038BD00BFD40901082DE9F04383B005789C
:1031A00000AF04460E46002D48D125493046FDF7B4
:1031B0007FFF00283DD04FF0010884F80080C4F85C
:1031C00004803046FDF77EFFE9468AB002466C4631
:1031D0001C4B7B60391D04F114000AF00EFC7A6070
:1031E00004F118000AF009FC1046FDF751FD0146F4
:1031F0003046FDF797FC1449FDF79EFDFDF788FF6B
:10320000391D786004F11C000AF0F7FB0E237B6087
:1032100004F1200022460AF0F0FB05237B6042F80F
:10322000103F0A482B464FF4215101F021FB45463F
:10323000CD4628460C37BD46BDE8F0830025F8E7AB
:1032400000006041EE0901080000C842E4FA0008ED
:103250002DE9F04383B0057800AF04460E46002DFB
:1032600048D125493046FDF723FF00283DD00223F1
:103270004FF0010884F8008063603046FDF722FFBC
:10328000E9468AB002466C461C4B7B60391D04F14E
:1032900014000AF0B2FB7A6004F118000AF0ADFBEA
:1032A0001046FDF7F5FC01463046FDF73BFC14499E
:1032B000FDF742FDFDF72CFF391D786004F11C007D
:1032C0000AF09BFB03237B6004F1200022460AF0F6
:1032D00094FB05237B6042F8103F0A482B464FF4CD
:1032E000215101F0C5FA4546CD4628460C37BD466A
:1032F000BDE8F0830025F8E700004040190A010806
:103300000000C842E4FA00082DE9F04F91B08407AC
:10331000009302F004030293C2F3C20303F101031A
:10332000DDF86890039205460E46059340F0BA8199
:10333000041D30B1072909D86FF01B0011B0BDE89A
:10334000F08F01F00706341DC6F10806009B4FF010
:103350000008591E4FF0040A4FF0FF330193CDF8D7
:1033600010804746C34653460DB1009A2260059827
:10337000002800F3E8809848009A824203D39748D7
:103380008242C0F0E080039AA4EB050E92074FEA58
:103390009E0000F103810F2F00F2B180002D00F09C
:1033A000058107F140020DEB020C019A0CF8200C8C
:1033B0000CF8102C049801300490E7E07A285DD8CE
:1033C0004B280ED8472859D829282DD8252852D03F
:1033D00054D820287AD02338D0F1000B4BEB000BC7
:1033E00074E04C382E2849D8DFE800F0704848488F
:1033F00048484848484848484B484848484848484A
:103400004859484B4B595959704B6D487048184BA7
:10341000184848827F4B48484B487F0000204FF0B7
:10342000000B4FF0040A38E02A38C0B2012202FA39
:1034300000F010EA0E0F49D110F0625C2FD110EAB3
:10344000020B43D06046013C5444B4FBFAF40AFB3F
:1034500004F4002D61D0A3EB050CA444B4453FF661
:103460006BAF002868D1042B47D159F8043B236087
:10347000043404232AE0019A013A01924FF0000B30
:1034800024E011F8010C6C2834D111F8023C002022
:103490006C2B8346C5D14FF0080A5346D3E709F198
:1034A000070929F007090734F9E802AB24F00704FB
:1034B00035B106982044B0423FF63EAFC4E900ABB8
:1034C00008344FF0000B4FF0080A534611F8010F73
:1034D000002878D0BBF1000F7FF470AF2528F5D11C
:1034E000019B013301934FF0010B4FF0040AECE70D
:1034F000584694E700208346A5E7082B02D06FF0DA
:1035000015001BE709F1070929F00709F9E802236B
:10351000C4E9002308340823D8E768B9042B02D192
:1035200009F10409A4E7082BE9D109F1070929F0F9
:10353000070909F10809EDE7059A013A059259F8DA
:10354000042B009210E7039A900720D5A4EB050EF8
:103550004FEA9E004FF0010CBEF5007FCFD20F2F37
:10356000CDD8F5B107F140020DEB020EC0B2019AC1
:103570000EF8200C0EF8102CBCF1000F3FF41AAF1F
:1035800060F07F000EF8200C08F101080137C5F14A
:103590000802043406924FF6DA7E97E74FF0000CEB
:1035A000DAE7BCF1000F01D00136EFE702980236EE
:1035B0000028EBD10098CDE90631FCF721FEDDE9CA
:1035C00006310644E2E7631BB3F5806F97D23DB93D
:1035D000A6F10804E018B1E63CF5000890170108D0
:1035E000029A28609B082B709DF81030C2B1EB70D6
:1035F00085F80280B8F1000F05D008A80022C5F1B7
:10360000010C97420ED1C5F101030DF120094FF0D5
:10361000000A01930DF1300B574512D1601B8DE666
:103620006B70E5E710F8013B190608D504EB0C0EAA
:10363000B64503F07F033FF67FAE04F8013B01324D
:10364000DFE7B8F1000F03D099F90020002A17DB5B
:10365000029BD3B11AF80B2004F8012B0022019B26
:1036600098182044B0423FF667AE99F8000004F87D
:10367000010B009903922046FDF70CFE039A1444B7
:103680000AF1010A09F10109C6E799F8002055F885
:1036900022300093029B45F822300098FCF7B0FDE1
:1036A000421CDCE76FF00D0048E600BF2DE9F04F4B
:1036B00097B000AF90F802A0D7F880B03B62CBF390
:1036C000C0030446FA62BB61894641B94578007877
:1036D0000AEB800020444D4517D8A0EB0409E3789D
:1036E000FB61BAF1000F02D01BF0010F16D1FB698C
:1036F00053BBFB6A1BB13A6A4946204698474D4680
:1037000028465C37BD46BDE8F08F461C3046FCF7C6
:1037100077FD0130304409F10109DCE72378626864
:103720007A62FA6A9900796104EB8301002A40F019
:1037300000814D460E4601EB0A094FF000084E4548
:103740004CD101EB0A0610E01BF0020FD1D0237818
:103750009A007A6162687A62FA6A04EB8301002A4D
:1037600077D14D4601EB0A0690461BF0050F0CBFC2
:1037700002230123FB62FB6906EB430A0BF0020301
:10378000BB625645BCD016F8021B16F8013C54F833
:103790002390AF4B994502D3AE4B994536D3BB69C5
:1037A000002B40D0786A0AF0C5F900283BD0E946E2
:1037B0008AB06A46A84B53617B6AC2E906314FF46E
:1037C00000731384A54B42F8103FA54800234FF423
:1037D000125101F04DF8023DCD46D2E716F8013BFB
:1037E000F96254F82300FCF70BFDD7F88430F96A2E
:1037F00001304BB1D7F8883098453EBFD7F88430B8
:1038000023F8180008F10108054498E7BB6923B1C3
:10381000786A0AF08FF90028C9D11BF0010F05D191
:10382000FB6AED1AADE7BB6A002BAAD04846FCF74D
:10383000E7FCD7F8843053B1D7F8883098453FBFBC
:10384000D7F88420431C22F8183008F101080544F9
:1038500097E7BAF1000F72D01BF0040672D0D04681
:10386000002607F1480052463B61B962FDF712FDA0
:10387000B96A3B6901EB0A02BA62FA69F969520056
:10388000FA60BA6A02EB41023A610BF00202BA60D6
:103890003A69B96A8A4257D162787A621BF0020F9C
:1038A00032440CBF4FEA580100211BF0010FD2B285
:1038B00040F09F801BF0040F14BF40460020BB6106
:1038C0006270A070E1703A6A7969FB6A2046984795
:1038D000051EFFF615AFBB6923707B6A6370FB6939
:1038E000E37041463A6AFB6A84F802A007F1480097
:1038F0009847B0F10008C0F2B5807B693A6AA9EB3D
:103900000A01C91AFB68C91AD7E90A0398470028AF
:10391000C0F2AA80A84408EB00054FF0000B07F1A5
:10392000380AB34567D300213A6AFB6A08469847CC
:10393000E6E656464FF0000807F1380093E7564692
:10394000D04697E7B04695E7BA6A12F8021BBA620A
:1039500012F8015C3E4A54F82500904202D33D4AD9
:1039600090421ED3BA6932B1786A7B600AF0E2F8FD
:103970007B6800288CD1BA6802BB08F1280207F1E5
:10398000300C08F10100944407F1580252FA80F01B
:1039900008F102080CF8101C5FFA88F800F8105CB7
:1039A00076E7BA693AB1786A7B600AF0C3F87B6857
:1039B00000287FF46DAF1BF0010F09D006F128023B
:1039C00007F13000711C161806F8205CCEB25FE7D4
:1039D0001BF0040F3FF45CAF08F1280207F1300040
:1039E00008F1010102EB000808F8105C5FFA81F8A9
:1039F0004EE7002063E71BF80A3087F8373054F8A9
:103A00002390D7F88430FBB133F81B803A6AFB6A05
:103A1000012107F137009847002825DB0544B8F15C
:103A2000000F06D14846FCF7EBFB00F101081FFA36
:103A300088F83A6AFB6A414648469847002813DBF3
:103A400005440BF1010B6CE7D7F88480DEE700BF7B
:103A50003CF5000890170108540A01080400000111
:103A6000D4FA000845464BE6054649E6014B186086
:103A7000704700BFE807002030B587B00025CDE9CA
:103A800003010446009503A90548059500F06EF86A
:103A9000DDE904309842B8BF255407B030BD00BFFF
:103AA00083DB0008F0B5094E016802460A270020B2
:103AB0000B4601311C78355D6D0701D41360F0BDF4
:103AC00007FB0043A3F13000F2E700BFB902010891
:103AD0002DE9F84F15469A46D378234A12F803B0D9
:103AE0006F2B81460F460BF0030B2BD026D8582B9B
:103AF0000CBF10260A26DDF82880324600234846EF
:103B00003946FDF725FB092A08F1FF38D4B21ED843
:103B10003034B145E4B277F1000788F8004001D3B2
:103B2000D04511D82B789B0605D5082E15D1AB783A
:103B300043F00803AB704046BDE8F88F03F0F7038D
:103B4000702BD5E70826D6E781460F46D5E7BBF1AF
:103B5000010F0CBF37345734DBE7102EEBD1AB78B5
:103B600043F01003E6E700BFB90201082DE9F04F6A
:103B700097B08A46039016461C460025307808B94F
:103B8000284656E325280AD0039B5146984700282B
:103B9000C0F24F83731C01350493049EEEE7182294
:103BA000002110A805F01EFB7378252B00F0A380E0
:103BB0000023711C98469E469C4618460F4611F8F5
:103BC000012B2B2A00F0C68000F2BD80202A00F0D5
:103BD000C480232A00F0C4802BB19DF8483043F004
:103BE00040038DF84830B8F1000F05D09DF84830FB
:103BF00043F020038DF84830BEF1000F05D09DF84A
:103C0000483043F010038DF84830BCF1000F05D068
:103C10009DF8483043F008038DF8483028B19DF8EE
:103C2000483043F004038DF848309DF8483003F0E5
:103C30004401442903D16FF386138DF848309DF871
:103C40004830099743F080032A2A8DF8483040F025
:103C50008C809DF8493043F001038DF849307B1C7E
:103C60001A782E2A9DF849200CBF0121002161F30A
:103C700041028DF849200CD15A1C09925A782A2AFF
:103C800040F083809DF8492042F004028DF84920DD
:103C900002331A786C2A00F0A48000F28680682A29
:103CA00000F08C806A2A00F0A5804C2A00F0AA80DF
:103CB0001A4612F8013B0492782B9DF849208DF8A2
:103CC0004B3000F217816D2B00F2A980692B00F2B6
:103CD0001181572B00F2BE80412B03D0453B022BB4
:103CE00000F208819DF84A30042262F302038DF845
:103CF0004A300123CAE08DF84B30B31C04939DF881
:103D00004930D90740F1FD8054F8048BB8F1000F19
:103D100007DA9DF8482042F004028DF84820C8F1E7
:103D200000085A0740F1F68054F804BBBBF1000FBD
:103D300080F2F5809DF849306FF341038DF84930EA
:103D40004FF0FF3BEBE02D2A0DD0302A7FF444AF3B
:103D5000012333E74FF0010C30E74FF0010E2DE760
:103D60004FF001082AE7012028E709A8FFF79AFE8B
:103D7000099BBB423FF474AF9DF848201390C00FDD
:103D800060F341028DF848206AE709A8FFF78AFE30
:103D90009DF848301490C3F3400242EAD07262F3B7
:103DA00041038DF84830099B73E7742A26D07A2A9C
:103DB0007FF47EAF9DF8492006210CE05A78682AEE
:103DC0009DF8492006D1012161F3C6028DF84920F2
:103DD00002336DE7022161F3C6028DF849200133F9
:103DE00066E75A786C2A9DF8492001D10421EBE757
:103DF0000321F0E79DF849200521ECE79DF84920D3
:103E00000721E8E7BDF8482022F4F04222F0020240
:103E100042F4804242F00202ADF84820DFE76E3BF8
:103E2000D9B201238B4040F282410B4238D113F0CA
:103E3000240F52D1DF075DD59DF84A30032161F38D
:103E400002038DF84A3002F07803A3F140004342A8
:103E500043411BE0A3F15801C9B2012000FA01F16E
:103E600011F4624F7FF43EAF40F6010739421DD195
:103E700011F4043F3ED09DF84A3060F3020302F093
:103E80007802402A8DF84A3034D000239DF848202B
:103E9000C2F340010B4363F341028DF848202EE743
:103EA0009DF84A30022161F30203E8E79DF84A10C9
:103EB000022002F0780260F30201402A8DF84A10D5
:103EC00002BF9DF8481041F001018DF84810632BA6
:103ED000DBD1131E18BF0123D8E79DF84A30032118
:103EE00061F3020312F0780F8DF84A3014BF0123FA
:103EF0000023CBE79DF8483043F001038DF84830AC
:103F0000C3E79DF94820002AB4BFDDF84C804FF08C
:103F1000FF3806E79F077FF513AFDDF850B09DF837
:103F200049100023CDE913339DF84A3003F007030D
:103F3000012BC1F3C30132D1CB1E042B04D8DFE81F
:103F400003F0204545202000236801294FEAE37251
:103F5000CDE910321BD19DF94030DA17CDE910328E
:103F600004349DF8483013F003074FD0049B0398A6
:103F70003246514609F03BFE0028C0F25A81054402
:103F80000BE654F8043BDA17CDE91032E9E70229D1
:103F9000E6D11AB243F3C033CDE91023E0E7022B98
:103FA00024D1CB1E042B04D8DFE803F0181010181E
:103FB0001800012954F8043B4FF0000214D00229E4
:103FC000CDE91032CDD19BB21093CAE7073424F06B
:103FD0000704F4E80223CDE91023C2E754F8043BB8
:103FE000109300231193BCE7DBB2CDE7042B08D17B
:103FF000073424F00704D4E900230834CDE9102362
:10400000AFE7032BADD154F8043BDDE79DF84B003F
:1040100078283FF6C2AD62281ED8252850D05828EF
:104020007FF4BBAD0DF13E030093DDE910010AAB57
:1040300012AAFFF74DFDBBF1000F814680F2C2804E
:10404000B9F1000F3FF4A9AD0DF13E06A6EB09034F
:10405000002F7BD0013379E0633815283FF69DAD02
:1040600001A252F820F000BF3B410008994100082E
:104070009B3B00089B3B00089B3B00089B3B0008C8
:10408000994100089B3B00089B3B00089B3B0008B4
:104090009B3B0008E7410008BF410008F9400008C9
:1040A0009B3B00089B3B0008D14000089B3B00085D
:1040B000BF4100089B3B00089B3B0008BF41000834
:1040C000039B514698470028C0F2B380013564E550
:1040D000BBF1000FDDF840900ADB5946484605F079
:1040E00035F9B9F1000F3FF458AD09EB000620E0B7
:1040F0004846FCF785F8F8E71098002800F087801C
:104100000DF13E060AAB009612AA0021FFF7E0FC73
:10411000BDF84A3003F0EF0343F4F04343F01003DB
:10412000BBF1000F8146ADF84A304ADA00283FF46F
:1041300034ADA6EB0903002708E0109B8DF828306A
:1041400000270DF129060DF1280901239DF84A10D9
:1041500011F01002069260D00233139A05921344B4
:104160004A0644BF14995B18B8F1000F6EDDA8EB46
:1041700003089DF848305807C3F3800B66D45906EE
:104180005AD53FB1039B514638469847002850DB2B
:1041900001355F46302350E01E075CBFC3F30013B8
:1041A0005F01DDE9102348BF2B27002BBFF63AAF94
:1041B000524263EB4303CDE910232D2732E700275A
:1041C00030E700279DF848100DF13E03A3EB0903EB
:1041D0006FF386119B458DF848107FF631AFABEB3E
:1041E000030313932CE7109B07293FF6D6ACDFE8B7
:1041F00001F00C04060C08080C0C1D70CDE41D80A9
:10420000CBE4EA17C3E90052C7E41D60C5E4314EB0
:104210000746A6F10509052398E7080748BF0133BB
:104220009BE7184607935146039B98470028079B36
:1042300004DA17B0BDE8F08F2023C34659460029A1
:104240000BF1FF3BEDDC45446D1AD84637B1039BBB
:104250005146384698470028EBDB01359DF84A3037
:10426000DA0601D41B0706D5039B51463020984738
:104270000028DEDB0135069B3BB19DF84B00039B1C
:10428000514698470028D4DB0135059F2F4406E0AE
:10429000039B5146302098470028CADB01357B1B21
:1042A000002BF5DC039833464A46514609F09FFC43
:1042B0000028BEDB0544A844A8EB0503002B7FF7CC
:1042C0006CAC039B5146202098470028B1DB013598
:1042D000F2E700BF0D0B0108034A536823F0020305
:1042E00053600020704700BF002004E0134B1A68A1
:1042F00042F400721A601A6842F480621A601A6806
:1043000042F480721A600E4B0E4A1A600E4A5368CD
:1043100043F0010353600D4B9A6D42F080529A6551
:104320009B6D0B4A82B003F080530193019B93680D
:10433000002043F48043936002B0704700200240A5
:10434000480800200024F400002004E0001002408F
:10435000007000402DE9F047DFF85880044607461A
:104360004FF0010914B93846BDE8F08794FAA4F576
:10437000B5FA85F509FA05F32E0108EB05156FEA84
:10438000030A24EA03042B7B002BEBD058F80630F9
:104390001B694BB94644042273682846196807EA2A
:1043A0000A0700F051FADDE7284698470028D9D1DE
:1043B000F0E700BF74FB000830B51049104889B021
:1043C00000220BF082F80F4D0F4900220023CDE9A7
:1043D000062300240E23CDE90334CDE901440B4B21
:1043E00000944FF44072284603F086FE08492846A0
:1043F0000AF03CFF204609B030BD00BF154400085C
:1044000028100020A00B002080220020F546000884
:104410000E0B0108014803F0A7BC00BF840A00206E
:104420002DE9F04780461E480F4609F05CFE06461F
:1044300078B300252846BDE8F087237B6BB123685D
:10444000DB680BB12046984723681B69CBB96368CA
:1044500004221968204600F0F7F9013610344C4563
:10446000EBD3B8F1000FE5D0002DE2D02846FFF7DE
:1044700071FF0546002FF7D00021642004F0EEF80C
:10448000F2E7204698470028E1D00AFA06F31D43D8
:10449000E3E7044CDFF8109005464FF0010ADEE731
:1044A000A813002074FB000884FB0008014B53F89C
:1044B0002000704714FD000808B5034608462BB1DC
:1044C000044A136000F06EFC002008BD6FF0150078
:1044D000FBE700BFEC07002010B5044C237813B9AC
:1044E000034803F041FC0123237010BDF0150020A8
:1044F000840A002010B50446084809F0F4FD5CB1B8
:10450000BFF35B8F064B53E8001F013943E80012ED
:10451000002AF8D1BFF35B8F10BD00BFA0130020AD
:10452000A41300200020064BBFF35B8F014653E825
:10453000000F43E80012002AF9D1BFF35B8F7047E8
:10454000A013002070B5FFF7EDFF084C084E05469C
:10455000B44200D370BD63685B792BB123685B689C
:1045600013B12946204698471034F1E774FB000840
:1045700084FB000810B5044C0449204609F048FCAF
:10458000034B1C6010BD00BF040A002000FD0008A2
:1045900098130020084A094808B500231370084AF8
:1045A0001360084A4FF47A711360FFF785FFBDE886
:1045B0000840FFF7DFBF00BFF115002001E1000850
:1045C000A0130020A413002001460022014800236C
:1045D00009F03FBC040A0020014809F0D5BC00BF27
:1045E000040A0020024B0146186809F021BD00BFF3
:1045F00098130020014809F056BD00BF040A0020AE
:1046000070B5254B1878002844D0FFF7E5FF054624
:1046100090B1BFF35B8F214B53E8001F013943E892
:104620000012002AF8D1BFF35B8F1D4C1D4EB4421F
:1046300026D32846FFF7D6FF1B4B1C4C1B68002BCC
:1046400012DD0AF040FF0A220023FCF781FDD4E9C5
:104650000032C01A40F2E93361EB0201984271F175
:10466000000101D3FFF76EFFD4E9003213F57A732E
:1046700042F10002C4E90032BDE87040FFF7BABF62
:1046800063685B7923B1236829461B6820469847F5
:104690001034CCE770BD00BFF0150020A41300203B
:1046A00074FB000884FB0008A013002020100020E9
:1046B00070B50D4D297861B90120FFF7B1FE0B4CA3
:1046C0000B4EB44206D3FFF79BFF0028FBD101231A
:1046D0002B7070BD63685B791BB1236820469B68B3
:1046E00098471034EDE700BFF115002074FB000877
:1046F00084FB000800212DE9F0470846FFF790FEF3
:10470000044648B34FF4FA784FF0000903F0C4FFB1
:104710001A4B186030B11A4B1B68092B02DD19487F
:1047200003F022FB184FDFF85CA0002544B12046BF
:10473000FFF710FE044618B94FF0FF384FF0FF396D
:10474000FFF75EFF064628B9B5B942464B465046CC
:1047500003F02EFB3546E9E74FF0FF384FF0FF3905
:10476000D4E72B689B691BB1002211462846984765
:104770001035BD42F5D3E8E7044DFAE79C1300205D
:10478000A4130020840A002084FB000874FB0008A6
:1047900013B5184809F0A7FC174B1B7873B1EFF35A
:1047A0001184102383F31288BFF36F8FFFF728FF64
:1047B00084F31188BFF36F8F02B010BD0F4B1B68DD
:1047C000002BF9D050B900220023CDE900230C487A
:1047D00042F21072002304F0C7F9EDE70928EBD18B
:1047E00007480AF07EFE074802B0BDE8104003F01B
:1047F000BBBA00BFA4130020F11500209C130020B9
:1048000028100020840A002010B5064B1B680446BF
:1048100098472146A060044809F097FBBDE8104086
:10482000FFF7B6BFEC070020040A0020044A054B3E
:104830009B1AB1EBD30F34BF52F831000020704700
:10484000CCFA000874FB0008084BC31A10B41B1103
:1048500044680133237143689A714368196043685F
:1048600001225A7110BCFFF737BE00BF74FB00086D
:104870002DE9F04F8FB004AFC1F34A28B8600D4660
:1048800091467B600C0DB8F1000F63D0002607F154
:1048900014034FF0040B4FF00A0AC7F80C80C7E965
:1048A00007667E620193CDF808B0CDF800A007F14D
:1048B0001C03F96832464846FEF7F8FEB0F5006F73
:1048C00003461CD36C468AB0D9F8041004AB2648C2
:1048D000C3E9050140F2FF71D9611A464FF4007136
:1048E0001984224B42F8103F214833464FF41251AD
:1048F000FFF7BEFFA5462C37BD46BDE8F08FC0F3DD
:104900000A0804F11700184420F0070080083B60F3
:10491000FFF75AFE68F35325044690B13B68154AE9
:10492000C7E9083600F1100107F11403F961CDE978
:1049300000A3CDF808B0F96807F11C034846FEF75C
:10494000B5FE68F353257B68B9682A46204609F00E
:1049500008FCD0E704F1170020F007008008FFF7FB
:1049600033FE0446EDE700BF230B010804000001FD
:104970000CFB000837E100082DE9F04F87B0DDE9B6
:104980001279DDE9105A0446039193469846BFB167
:10499000CDF800903B46524610210020CDF81490EF
:1049A000FEF7B2FCB0F5006F06460AD3184A194864
:1049B00040F2FF73022107B0BDE8F04F09F02ABCB6
:1049C0003E4605F11700304420F0070004F00704CC
:1049D0008008FFF7F9FD0BF0070BE40044EA8B14A5
:1049E00044EA462444EA0554054640B13FB1CDF8B7
:1049F00000903B46524631461030FEF785FC039945
:104A000043462246284607B0BDE8F04F09F0A9BB4F
:104A1000620B01080CFB0008406820B1034BC01A70
:104A200040F3CF0070474FF0FF307047CCFA0008DA
:104A30000EB403B503AB014653F8042B04480193AD
:104A400009F00CFC02B05DF804EB03B0704700BF46
:104A500085E20008CA0605D48B064CBF024903490B
:104A6000FFF7E6BF704700BF9B0B01089A0B0108D8
:104A70002DE9F04F89B09A46149B06939DF84CB0EF
:104A8000159B0593169B179E049304460D4690466E
:104A9000BBF1000F00F09D8006F48073079309F0CE
:104AA00048FB06F00209024600283ED09249204603
:104AB000FFF7BEFF0746B9F1000F08D016F0440F0C
:104AC00035D18E492A462046FFF7B2FF074406F04B
:104AD000010353B18A4B8B4953F82B208A4B204654
:104AE000002A08BF1A46FFF7A3FF06F48073002BC5
:104AF00049D006F00803002B63D1B8F1000F66D04F
:104B0000824942462046FFF793FF0546069B3D44F7
:104B1000002B6DD1049B002B73D1F30700F1E580CE
:104B200031462046FFF796FFD9E00746C3E7784BAA
:104B300018680028CAD0774B4FF47A791B68B5FB08
:104B4000F3F54FF46161B5FBF0F300FB135509FB7E
:104B500005F54FF03C0CB3FBF1F201FB1231B5FB54
:104B6000F0FEB1FBFCF300FB1E550CFB131109FB1F
:104B700005F50091B5FBF0F56749CDE901E5204663
:104B8000FFF756FFA2E706F00803EBB1634B644959
:104B900053F82B202046FFF74BFF0546B8F1000FD6
:104BA00005D05A4942462046FFF742FF0544BAF174
:104BB000000FABD05B4952462046FFF739FF054452
:104BC000A4E74FF0000AE1E706F00805E6E74546EE
:104BD0009CE7BAF1010F069B06D1002B65D1049B1F
:104BE000002B7CD000250CE0002BF8D04E485DE077
:104BF0004E48069B4E49224608F06BFF049B002B53
:104C000069D0DFF83081DFF83091049F3146102FF2
:104C1000204628BF1027FFF71DFF4FF0000A55451B
:104C200046DC059B49461A782046FFF701FF4FF006
:104C3000010A1AF0070F03D141462046FFF7F8FE9C
:104C400057453CD9059B494613F80A202046FFF7F3
:104C5000EFFE0AF1010ABAF1100FEAD137492046F6
:104C60004FF0000AFFF7E4FE5246059B9A5C344B76
:104C7000995C11F0970F08BF2E2232492046FFF7AA
:104C8000D7FE0AF1010ABAF1100F1DD01AF0070F72
:104C900003D141462046FFF7CBFE57455246E4D8A4
:104CA00041462046FFF7C4FEEBE720485D46A0E7FB
:104CB00041462046FFF7BCFE0AF1010AAFE7224950
:104CC0002046FFF7B5FEC4E7059B3B440593049BD4
:104CD000DB1B049399D1BBF1000F7FF41EAF20467C
:104CE00009B0BDE8F04F09F0C0BA074A05492046AF
:104CF000FFF79EFE14E700BFA20B0108A60B0108F8
:104D000024FD00080A0901089D0B0108CB0B0108CE
:104D1000B0130020AC130020AF0B010838FD0008D1
:104D2000CF0B0108D50B0108BBE2000885E20008A3
:104D30005DE20008E20B0108DA0B0108E40B010850
:104D4000B9020108E60B0108E00B010873B542F255
:104D50000F738B4228BF0B4605680F4A0446052196
:104D6000684608F02DFF63680C495B6806460B2215
:104D7000284609F065FA63683246694628465B684A
:104D800009F05EFA636806495B681B22284609F051
:104D900057FA02B070BD00BF86070108050C010874
:104DA000E90B0108074A00210123904206D8064A70
:104DB00001B901231360054B1860704740085B0080
:104DC0000121F2E740420F00AC130020B013002095
:104DD000F8B5074F0D4604464618B44201D128469F
:104DE000F8BD14F8011BBB6801485B689847F4E7FD
:104DF000DCF60008014B03600020704780FD0008CE
:104E00002DE9F047064600AF0C46002936D0E946AA
:104E10008AB0D1E90012A3686D462148A8464FF038
:104E2000050AC5E90501C5E9072348F810AF1D4883
:104E3000424600234FF42151FFF71AFDCD46D4E935
:104E400003126369AD461848C5F810A0C5E905010D
:104E5000C5E907231348002342464FF42151FFF7C9
:104E600007FDCD46E369114A0E48012109F0D2F948
:104E7000A3690F4A0B48012109F0CCF9012E07D193
:104E8000EFF305830B4A0748103B314609F0C2F99E
:104E90002146304602F0F8FCBD46BDE8F08700BF71
:104EA0004B0C010844FB00087A0C0108A90C01080E
:104EB000B80C0108E60C010808B5034B1B689847BD
:104EC000BDE8084000F006B8F807002030BFFFF743
:104ED000FDBF00BF074A936893F90E10002907DB56
:104EE000526993421FBF044A536843F08053536092
:104EF000704700BF8015002000ED00E070B5294C20
:104F000006460D462848294909F046FAA36AD904FD
:104F10003CD52548264909F03FFA1720A36A1A050F
:104F200004D52148234909F037FA18201D4CA36AFB
:104F30009B0512D51C48204909F02EFAA36BA26AE2
:104F4000100409D51D4A1848012109F063F91EB162
:104F5000A36A23F40043A3621920124CA36A5905E3
:104F600004D51148164909F017FA1A20A36ADA0580
:104F70000ED50D48134909F00FFA1B20094A936A10
:104F800043F47F43936200232B7070BD1620C5E766
:104F9000A36A9B04F2D504480B4909F0FDF91C20D3
:104FA000ECE700BF00ED00E044FB0008F90C01084D
:104FB0000F0D0108200D0108330D01084C0D0108EB
:104FC000610D01087C0D0108940D010810B5204CFD
:104FD0002049214809F0E0F9A36A990136D51E4815
:104FE0001E4909F0D9F91E20A36ADA0104D51A482E
:104FF0001B4909F0D1F91F20154CA36A1B0304D5E6
:105000001548184909F0C8F92120A36A590304D5A5
:105010001148154909F0C0F922200D4CA36A9A03E2
:1050200004D50D48114909F0B7F92320A36ADB0321
:1050300004D509480E4909F0AFF92420044A936ABF
:105040006FEA03436FEA1343936210BD1D20CBE761
:1050500000ED00E0C30D010844FB0008DB0D010872
:10506000EE0D0108080E0108260E01084B0E01087E
:10507000650E01082DE9F843364D804689463648CD
:105080003649174609F088F9AB6ADE0627D5344958
:10509000314809F081F91124AB6A1D0704D5314963
:1050A0002D4809F079F912242A4DAB6A980718D5D2
:1050B0002D49294809F070F96E6BAB6A190646D57F
:1050C0002A4A25483346012109F0A4F8B9F1000F16
:1050D00003D0AB6A23F08003AB62132403E01024F7
:1050E000DAE76FF015061B4DAB6ADA0704D52049E5
:1050F000194809F051F91424AB6A9B0604D51D49DF
:10510000154809F049F91524124B9A6AD50602D4BC
:105110009A6A90070AD55B68190507D5414630465B
:1051200000F01AFA10B180F309880224094B9A6A38
:10513000920642BF5A6A22F400525A629A6A42F0B8
:10514000FF029A6200233B702046BDE8F8836FF0AF
:105150001506C2E700ED00E044FB0008900E0108D0
:10516000A60E0108200D0108D90E0108F10E010854
:10517000070F0108940D01082DE9F041664B8AB034
:10518000D3F8048000AF0446C8F30805002686F370
:105190001188BFF36F8F02F07F43B3F17F4F07D1C8
:1051A00002F00C03082B12D15C495D4809F0F4F8B9
:1051B000002634460023FB71EB1E092B00F28A8087
:1051C000DFE803F00A80837D888888888886100756
:1051D0004CBF0C460126EDE7524951484E4D09F0AF
:1051E000DBF80023FB71EB6A9A0705D54E494C4862
:1051F00009F0D2F8002333E0EB6A002B01DA4B49C7
:10520000F5E7EB6A5B00F5D54949454809F0C4F874
:105210006B69A26943F480736B61BFF34F8FBFF377
:105220006F8F6B6932F8022C23F480736B61BFF3CC
:105230004F8FBFF36F8F4DF602739A4209D0AB6A5E
:10524000DBB27BB3FA1D01212046FFF713FF0346B3
:1052500006E02368374A3248012108F0DBFF236863
:10526000FA79DAB907F1080504F1200C20686168C1
:105270002A4603C2083464451546F7D17A6A002EDF
:1052800044D0C2F3080121B96FEA52226FEA4222E8
:105290007A6207F108011846FFF7B2FD2837BD46CC
:1052A000BDE8F081AB6A13F47F4F04D0F91D0120F3
:1052B000FFF724FECBE7AB6AB3F5803F9AD3FFF745
:1052C00085FEC4E7FA1D0021BEE7F91D0020EFE7C7
:1052D00019498CE7194A1A4B18F4F87FE8468AB046
:1052E00018BF13466A461749C2E905134FF4007305
:1052F0001384103D144BD56142F8103F0848002339
:105300004FF41151FFF7B4FAC54673E722F4FF7268
:1053100022F00102BCE700BF00ED00E0540F0108DD
:1053200044FB00087F0F0108960F0108B70F010822
:10533000C50F0108E40F0108001001083B0F010828
:10534000260F01082410010804000001024A5369D5
:1053500043F010035361704700ED00E0EFF3088065
:10536000EFF3098101B57246FFF706FF01BD00BFEB
:10537000102080F3118808484FF40461401880F32E
:105380000988EFF314800221084380F31488BFF3E7
:105390006F8F00F0A1F80000C0250020084B9B682B
:1053A00083420BD1EFF3058343B1064B5A6842F0B9
:1053B00080525A605A6A22F400425A620AF026B8B1
:1053C0008015002000ED00E0094A93686FF00A01A3
:1053D0009967084958674B6843F080534B60002336
:1053E00083F31188BFF36F8F9368986F704700BF86
:1053F0008015002000ED00E010B50446EFF31183A6
:10540000102383F31288BFF36F8F094B586998609C
:10541000084B4FF000625A600022436F426783F3EB
:105420001188BFF36F8F00F0FBF8204610BD00BF5E
:105430008015002000ED00E00B498A684FF0300035
:105440001044EFF3098C80E8F01F74467046FFF7B4
:10545000D3FFA64604498A6802F1300090E8F01FA5
:105460008CF3098870470000801500201EF0040F9F
:105470000CBFEFF30880EFF30980816911F8021C7B
:105480000229FFD001B508F083FF01BD40B200281A
:1054900007DB044A4109012300F01F00834042F862
:1054A0002130704700E100E040B20028A8BF00F1C1
:1054B000604001F10101B8BF064B4FEA0111ACBFDA
:1054C00000F5614000F00F00C9B2B4BF195480F874
:1054D0000013704714ED00E00F4A08B50F4B22F09F
:1054E0007F029A60BFF34F8FBFF36F8FD3F888208E
:1054F00022F47002C3F88820EFF3148323F004032E
:1055000083F31488BFF36F8F02F0AAFA03F062F9F5
:1055100000F05CF802F0E8FA0000000800ED00E09E
:1055200042F8203C009B42F81C3C0A49019B42F88F
:10553000183C029B42F8143C21F001014FF08073AB
:1055400042F8043C42F8081C0023203A02654367F5
:10555000704700BFDBDB0008094A0346906870B162
:1055600013F1160F406E05D0A0F140029A4205D803
:10557000834203D2814228BF002070470020704739
:105580008015002008B50B4B0E461546986000F0BC
:1055900047F82C4686F309884FF00000064B9847E1
:1055A00020464FF000014FF000024FF00003034C83
:1055B000204700BF80150020A9E30008DBDB0008BE
:1055C000014B10221A61704700ED00E004480023EF
:1055D0001021C2180133662B82F80013F9D17047ED
:1055E00000E100E008B5EFF30583064A103B02EB4B
:1055F000C30152F8330049688847BDE80840FFF707
:1056000069BC00BF90F70008024B034A0348012120
:1056100000F08AB8000002200000002080FD000891
:10562000426E054B403A1A60044A4021C3E9011218
:105630001846012100F082B8D813002000000B1595
:1056400008B503461048D0F89020C2F30722013A6B
:10565000934207D90D480E4A012108F0DBFD6FF097
:10566000150008BDC0F898300A6822F01F021A43DE
:1056700042F01002C0F89C208A6842F00102C0F893
:10568000A0201846EDE700BF00ED00E03CFB00085D
:105690003B100108F0B50E4685B01F4604460025B4
:1056A000B5420DDA606810B397B1431E18420AD0B4
:1056B000104A11482B46012108F0ACFD6FF015028D
:1056C000104605B0F0BD1F28F2D921680B42EFD17A
:1056D0002368019308F07CFEA36801A90343D0B2BC
:1056E0000393FFF7ADFF10F1160FE7D0421C013511
:1056F0000C34D5E7611001083CFB0008044B05227F
:10570000C3F89420BFF34F8FBFF36F8F704700BF74
:1057100000ED00E0BFF35F8F024B0022C3F894203E
:10572000704700BF00ED00E010B5034C0123227864
:10573000FFF7B0FF207010BDF315002008B50B4A2D
:1057400000231278FFF7A6FF10F1160F07D0084AC2
:105750000021D2F89030C3F30723984200DB08BD44
:10576000C2F89800C2F8A0100130F2E7F31500204B
:1057700000ED00E02DE9F04357485849D0F890304B
:105780000D68C3F307239D4285B000F2A180FFF7A7
:10579000C1FF49680022954201F10C011AD1504C19
:1057A000504F25706846FFF725FBDFF83C81DFF896
:1057B0003C9106460025AE421FD123784649002081
:1057C000D1F89020C2F3072293427BDBFFF796FFCC
:1057D00000204CE0C0F8982051F80C3C23F01F0347
:1057E000134343F01003C0F89C3051F8043C43F0DD
:1057F0000103C0F8A0300132CDE7009800EB05119D
:105800004FEA051CCB683B40B3F5000F44D00AD8E3
:10581000B3F5001F2ED0B3F5800F34D0B3F5801F41
:1058200010D00135C7E7B3F1807F3ED0B3F1007FE0
:10583000F7D150F80C3088684A6808F0C9FD40F488
:10584000802009E050F80C3088684A6808F0C0FDF4
:1058500040F0885040F43020039001A92078CDE931
:105860000123FFF7EDFE002828DA6FF0150005B0E0
:10587000BDE8F08350F80C3088684A6808F0A8FD4D
:1058800040EA0800E8E750F80C3088684A6808F0F9
:105890009FFD40EA0900DFE750F80C3088684A684D
:1058A00008F096FD40F08270D6E750F80C3088681A
:1058B0004A6808F08DFD40F08870CDE72378013309
:1058C0002370AEE7C1F89830C1F8A000013377E744
:1058D0004FF0FF30CBE700BF00ED00E08CFD00088B
:1058E000F31500200000F0FF00000811000002077F
:1058F000014B1860704700BF00080020F8B5084F42
:1059000006460D460024AC4208DA3B6898470A2850
:10591000305504F1010401D00D28F4D12046F8BD22
:10592000FC070020F8B50A4F0D46461EC0F10104E1
:10593000A3199D4201DC2846F8BD73780A2B02D1D9
:105940003B680D2098473B6816F8010F9847EFE732
:105950000008002010B5074C2368C2180648C0F1A3
:10596000005101F500318A423ABF2260C0184FF061
:10597000FF3010BDE41300200040002008B50548AA
:1059800008F011F9002383F31188BFF36F8F04230C
:10599000184602DF931001082DE9F0410F4E104F19
:1059A000054600244FF001082B7853FA84F01F2895
:1059B0000DDC726908FA00F333EA020207D1736161
:1059C00057F830301BB107EBC002516898476A782E
:1059D0000134E3B29A42E7D2BDE8F081000401400D
:1059E000E8130020044B184400230133994200F8C7
:1059F000012BFADC704700BFCC09002010B4064B25
:105A0000064902460C6818560123934023430B6055
:105A100010BCFFF73BBD00BFCC09002000040140D3
:105A20001F2806DC034901220B68824023EA020397
:105A30000B6070470004014003292AD8DFE801F019
:105A4000020E141F134B01229968824021EA0201C1
:105A50009960D96821EA0202DA6070470D4B012291
:105A6000996882401143F3E70A4B0122D9688240CA
:105A70001143D960996821EA02029A6070470123B4
:105A800003FA00F0034B9A6802439A60DA68104305
:105A9000D86070470004014030B50A4B53F83040DD
:105AA0008C4204D103EBC0056D68954205D034B932
:105AB00043F8301003EBC0035A60002030BD6FF094
:105AC0000F00FBE7E8130020034B002243F83020CF
