:020000040800F2
:100000008016002049090008190600083509000873
:10001000350900083509000835090008000000000E
:100020000000000000000000000000004D0A000871
:100030003509000800000000190A0008951C000896
:10004000CD0B0008CD0B0008CD0B0008CD0B000830
:10005000CD0B0008CD0B0008CD0B0008CD0B000820
:10006000CD0B0008CD0B0008CD0B0008CD0B000810
:10007000CD0B0008CD0B0008CD0B0008CD0B000800
:10008000CD0B0008CD0B0008CD0B0008CD0B0008F0
:10009000CD0B0008CD0B0008CD0B0008CD0B0008E0
:1000A000CD0B0008CD0B0008CD0B0008CD0B0008D0
:1000B000CD0B0008CD0B0008CD0B0008CD0B0008C0
:1000C000CD0B0008CD0B0008CD0B0008CD0B0008B0
:1000D000CD0B0008CD0B0008CD0B0008CD0B0008A0
:1000E000CD0B0008CD0B0008CD0B0008CD0B000890
:1000F000CD0B0008CD0B0008CD0B0008CD0B000880
:10010000CD0B0008CD0B0008CD0B0008CD0B00086F
:10011000CD0B0008CD0B0008CD0B0008CD0B00085F
:10012000CD0B0008CD0B0008CD0B0008CD0B00084F
:10013000CD0B0008CD0B0008CD0B0008CD0B00083F
:10014000CD0B0008CD0B0008CD0B0008CD0B00082F
:10015000CD0B0008CD0B0008CD0B0008CD0B00081F
:10016000CD0B0008CD0B0008CD0B0008CD0B00080F
:10017000CD0B0008CD0B0008CD0B0008CD0B0008FF
:10018000CD0B0008CD0B0008CD0B0008CD0B0008EF
:10019000CD0B0008CD0B0008CD0B0008CD0B0008DF
:1001A000CD0B0008CD0B0008CD0B0008CD0B0008CF
:1001B000CD0B0008CD0B0008CD0B0008CD0B0008BF
:1001C000CD0B0008CD0B0008CD0B0008CD0B0008AF
:0801D000CD0B0008CD0B000867
:1001D80053B94AB9002908BF00281CBF4FF0FF31A6
:1001E8004FF0FF3000F00CB8ADF1080C6DE904CE0B
:1001F80000F008F8DDF804E0DDE9022304B07047F8
:10020800704700BF2DE9F04786468C460846089E91
:10021800154674461946002B40F0C2808542B2FA52
:1002280082F245D94AB1C2F1200300FA02FC2EFA43
:1002380003F3954043EA0C0C94404FEA154EA8B2DC
:10024800BCFBFEF8230C0EFB18CC08FB00F943EAB4
:100258000C43994528D9EB1808F1FF3704D2994582
:1002680002D9A8F102072B44A3EB0903A4B2B3FBFC
:10027800FEFC0EFB1C330CFB00F044EA0344A042D6
:1002880014D92C190CF1FF3304D2A04202D9ACF1D5
:1002980002032C44241A43EA07401EB1D440002329
:1002A80034607360BDE8F0874746DDE76346F1E7F1
:1002B80092BB431B01214FEA154EAFB2B3FBFEFCC4
:1002C800200C0EFB1C330CFB07F840EA034398454F
:1002D80062D9EB180CF1FF3004D2984502D9ACF181
:1002E80002002B44A3EB0803A4B2B3FBFEFC0EFBF5
:1002F8001C330CFB07F744EA0344A7424ED92C19D8
:100308000CF1FF3304D2A74202D9ACF102032C440A
:10031800E41B43EA0040C0E7C2F1200320FA03F1DE
:10032800954090402EFA03F303434FEA154EAFB2BF
:10033800B1FBFEFC0EFB1C10190C0CFB07F841EA84
:100348000041884504FA02F422D969180CF1FF30FB
:1003580004D2884502D9ACF102002944A1EB080176
:100368009BB2B1FBFEFC0EFB1C110CFB07F743EA2A
:1003780001439F420ED9EB180CF1FF3104D29F4282
:1003880002D9ACF102012B44DB1B41EA004192E7A0
:100398006046E3E76146F7E76046A3E76346B7E7E9
:1003A800834206D916B9002108467BE7C6E900E072
:1003B800F9E7B3FA83F78FB9834201D3724508D8B6
:1003C800BEEB020460EB030301209C461EB900212A
:1003D80068E73846FAE7C6E9004CF8E7C7F1200CA9
:1003E800BB4022FA0CF41C432EFA0CF120FA0CF351
:1003F800B84001434FEA14490EFA07F5B3FBF9F880
:100408001FFA84FE09FB18300B0C08FB0EFA43EAAE
:1004180000439A4502FA07F240D9E31808F1FF3081
:1004280004D29A4502D9A8F102002344A3EB0A0397
:1004380089B2B3FBF9F809FB183308FB0EFE41EA51
:1004480003418E452CD9611808F1FF3304D28E453B
:1004580002D9A8F10203214443EA0040A0FB029814
:10046800A1EB0E014145CE46434602D306D14D4588
:1004780004D2B9EB020E68EB04030138002EA6D0B3
:10048800B5EB0E0261EB030101FA0CFC22FA07F34B
:100498004CEA0303F940C6E9003198E74046C5E74E
:1004A8004346D9E700B591B08F23154DADF8043018
:1004B8000023ADF808300FCD0BAC0FC42B682360B8
:1004C80002230493069302AB01AA05930123039226
:1004D800089303AA0A9305AB07920993094883680E
:1004E8000BA91C6807AA09ABA0479DF80910064884
:1004F80002F04CFE002142F2107002F075F9F9E7A3
:1005080008480008B8440008B44B0008014B1B68B1
:10051800184700BF00000020014B1860704700BF5B
:100528000000002030B585B004460D461022002199
:10053800684603F06BFE02238DF802302A46044B0E
:1005480001932146684602F059FB05B030BD00BF53
:100558001505000880B505460E461746984602F070
:1005680061F9034603F0BEFEDFF81890044649F827
:100578000030424630463946A84754F8090000F092
:10058800F5F900BF08000000034A536823F002038E
:1005980053600020704700BF002004E0134B1A6826
:1005A80042F400721A601A6842F480621A601A688B
:1005B80042F480721A600E4B0E4A1A600E4A536853
:1005C80043F0010353600D4B9A6D42F080529A65D7
:1005D8009B6D0B4A82B003F080530193019B936893
:1005E800002043F48043936002B07047002002402B
:1005F800500100200024F400002004E00010024014
:1006080000700040014B0360002070474448000818
:1006180008B5034B1B689847BDE8084000F026B8AA
:100628000400002030BFFFF7FDBF00BF2DE9F041F7
:100638000B4EDFF8308006EB0807CC1B0546324628
:100648000949204603F0D4FDA01942460021083C80
:1006580003F0DCFD2C6707F10800BDE8F08100BF5E
:10066800000000000400000008480008074A9368DA
:1006780093F90E10002907DB526993421FBF044A01
:10068800536843F080535360704700BF58040020FC
:1006980000ED00E070B5264B15469A6A12F0100F6F
:1006A8009A6A14BF1124102412F0080F9A6A18BF0E
:1006B8001224920706460AD5586B9A6A140634D54E
:1006C80019B19A6A22F080029A62132401E06FF04D
:1006D8001500174B9A6A12F0010F9A6A18BF142472
:1006E80012F0200F9A6A18BF1524D20602D49B6A0A
:1006F8009B070AD50E4B5B68190506D5314600F0F5
:1007080017FA10B180F309880224094B9A6A9206F5
:1007180042BF5A6A22F400525A629A6A42F0FF02B1
:100728009A6200232B70204670BD6FF01500CCE74D
:1007380000ED00E0134B9A6A12F0007F9A6A14BF2A
:100748001E201D2012F0807F9A6A18BF1F2012F405
:10075800002F9A6A18BF212012F4802F9A6A18BFB6
:10076800222012F4003F9A6A18BF232012F4803F17
:100778009A6A6FEA02426FEA12429A6218BF24200C
:10078800704700BF00ED00E010B5194B0246986AAB
:100798009C6A10F4805F14BF1720162014F4006FB1
:1007A8009C6A18BF1820A40509D5986B986A00049C
:1007B80004D51AB19A6A22F400429A6219200C4BA5
:1007C8009A6A12F4806F9A6A18BF1A20D2050CD45C
:1007D8009B6A13F4005F18BF1C20054A936A43F410
:1007E8007F43936200230B7010BD1B20F5E700BF09
:1007F80000ED00E0F0B5484B5B688BB00446C3F3EE
:100808000803002585F31188BFF36F8F02F07F403E
:10081800B0F17F4F11D102F00C0008280DD010075D
:100828004CBF0C4601250022033B8DF80720032B03
:1008380005D8DFE803F0246367602C46F3E700235C
:100848009DF80720CAB902AE04F120072068616844
:10085800324603C20834BC421646F7D1099A002D25
:1008680054D0C2F3080121B96FEA52226FEA42223A
:10087800099202A9184602F097FC0BB0F0BD264B6E
:10088800DA6A9107DBD4DA6A002AD8DBDA6A52001E
:10089800D5D55A69A16942F480725A61BFF34F8F66
:1008A800BFF36F8F5A6931F8021C22F480725A61C3
:1008B800BFF34F8FBFF36F8F4DF6027291420AD08C
:1008C8009A6AD2B24AB10DF1070201212046FFF718
:1008D800E1FE0346B4E72368B2E79A6A12F47F4F51
:1008E80005D00DF107010120FFF74EFFF1E79B6AE4
:1008F800B3F5803FA3D3FFF71DFFEAE70DF1070229
:100908000021E3E70DF107010020EDE722F4FF7273
:1009180022F00102ACE700BF00ED00E0024A536993
:1009280043F010035361704700ED00E0EFF30880D7
:10093800EFF3098101B57246FFF75CFF01BD00BF07
:10094800102080F3118808484FF40461401880F3A0
:100958000988EFF314800221084380F31488BFF359
:100968006F8F00F0A5F80000C0040020084B9B68BA
:1009780083420BD1EFF3058343B1064B5A6842F02B
:1009880080525A605A6A22F400425A6203F0F5BB58
:100998005804002000ED00E0094A93686FF00A014E
:1009A8009967084958674B6843F080534B600023A8
:1009B80083F31188BFF36F8F9368986F704700BFF8
:1009C8005804002000ED00E010B50446EFF3118351
:1009D800102383F31288BFF36F8F0A4B586998600E
:1009E800094B4FF000625A60084B026F1A600022F0
:1009F800436F426783F31188BFF36F8F00F000F9EC
:100A0800204610BD5804002000ED00E040030020FF
:100A18000B498A684FF030001044EFF3098C80E8E6
:100A2800F01F74467046FFF7CFFFA64604498A6850
:100A380002F1300090E8F01F8CF30988704700003D
:100A4800580400201EF0040F0CBFEFF30880EFF3EA
:100A58000980816911F8021C0229FFD001B502F052
:100A6800A9FB01BD40B2002807DB044A4109012364
:100A780000F01F00834042F82130704700E100E099
:100A880040B20028A8BF00F1604001F10101B8BFE1
:100A9800064B4FEA0111ACBF00F5614000F00F00B2
:100AA800C9B2B4BF195480F80013704714ED00E0C0
:100AB8000F4A08B50F4B22F07F029A60BFF34F8FA1
:100AC800BFF36F8FD3F8882022F47002C3F8882010
:100AD800EFF3148323F0040383F31488BFF36F8FB9
:100AE80001F0E0FA01F02AFF00F060F801F01EFBC7
:100AF8000000000800ED00E042F8203C009B42F8AE
:100B08001C3C0A49019B42F8183C029B42F8143CE1
:100B180021F001014FF0807342F8043C42F8081CB0
:100B28000023203A02654367704700BF5D0500084F
:100B3800094A0346906870B113F1160F006E05D08C
:100B4800A0F140029A4205D8834203D2814228BFCD
:100B580000207047002070475804002008B515464B
:100B68000B4A0C4B9060026F1A600E4600F048F872
:100B78002C4686F309884FF00000074B984720461B
:100B88004FF000014FF000024FF00003034C2047E4
:100B98005804002040030020CD3100085D050008FE
:100BA800014B10221A61704700ED00E00448002351
:100BB8001021C2180133662B82F80013F9D170474F
:100BC80000E100E008B5EFF30583064A103B02EBAD
:100BD800C30152F8330049688847BDE80840FFF769
:100BE80045BD00BFCC440008024B034A034801211D
:100BF80000F076B8000002200000002044480008F9
:100C0800026E054B403A1A60044A4021C3E90112BA
:100C18001846012100F06EB84403002000000B15AF
:100C2800084AC2F898000B6823F01F03034343F0F7
:100C38001003C2F89C308B6843F00103C2F8A0305F
:100C4800704700BF00ED00E02DE9F043DFF8608059
:100C580085B00E461F4604464FF00009B14523DA19
:100C68006068D8B13FB1411E08421BD11F2819D96D
:100C78002368194216D12368019302F0B7FAA368D2
:100C880003430393D8F89050C5F30725D0B2013D2C
:100C9800A84207D801A9FFF7C3FF421C09F10109BF
:100CA8000C34DBE76FF01502104605B0BDE8F083A1
:100CB80000ED00E0044B0522C3F89420BFF34F8FEA
:100CC800BFF36F8F704700BF00ED00E0BFF35F8F89
:100CD800024B0022C3F89420704700BF00ED00E0EB
:100CE80010B5034C01232278FFF7AEFF207010BD2A
:100CF8008804002008B50B4A00231278FFF7A4FFE8
:100D080010F1160F07D0084A0021D2F89030C3F32B
:100D18000723984200DB08BDC2F89800C2F8A0106B
:100D28000130F2E78804002000ED00E02DE9F043EF
:100D3800534B544CD3F890302568C3F307239D4296
:100D480085B000F29A80FFF7C1FF00200C2685428B
:100D58001AD14D4C4D4F25706846FFF753FCDFF80C
:100D68002081DFF82C9106460025AE4213D1237866
:100D780043490020D1F89020C2F30722934276DB42
:100D8800FFF798FF002042E0616806FB0011FFF7BB
:100D980047FF0130DBE7009800EB05114FEA051C1F
:100DA800CB683B40B3F5000F48D00AD8B3F5001F15
:100DB80030D0B3F5800F36D0B3F5801F10D0013591
:100DC800D3E7B3F1807F42D0B3F1007FF7D150F879
:100DD8000C3088684A6802F009FA40F4802009E07B
:100DE80050F80C3088684A6802F000FA40F08850E1
:100DF80040F43020CDE901230390D8F890302078D2
:100E0800C3F30723013B98422AD96FF0150005B0B8
:100E1800BDE8F08350F80C3088684A6802F0E6F9BB
:100E280040EA0900E6E750F80C3088684A6802F0A2
:100E3800DDF940F0E06040F40030DBE750F80C30BA
:100E480088684A6802F0D2F940F08270D2E750F818
:100E58000C3088684A6802F0C9F940F08870C9E720
:100E680001A9FFF7DDFE237801332370A7E7C1F856
:100E78009830C1F8A00001337CE74FF0FF30C6E797
:100E880000ED00E050480008880400200000F0FF52
:100E98000000081108B5024B1B689847002008BDE0
:100EA80050030020034B044A1860937843F0020370
:100EB80093707047500300200800002008B50649C9
:100EC800064821F00701C1F1005202F5003202F094
:100ED8001EF9002008BD00BFC716002054030020DB
:100EE8002DE9F0410F4E104F054600244FF0010840
:100EF8002B7853FA84F01F280DDC726908FA00F386
:100F080033EA020207D1736157F830301BB107EB9F
:100F1800C002516898476A780134E3B29A42E7D22E
:100F2800BDE8F0810004014060030020044B184430
:100F380000230133994200F8012BFADC704700BF07
:100F48005C01002010B4064B064902460C6818568E
:100F58000123934023430B6010BCFFF783BD00BF00
:100F68005C010020000401401F2806DC034901221F
:100F78000B68824023EA02030B60704700040140BB
:100F880003292AD8DFE801F0020E141F134B0122AF
:100F98009968824021EA02019960D96821EA02022F
:100FA800DA6070470D4B0122996882401143F3E7DC
:100FB8000A4B0122D96882401143D960996821EA15
:100FC80002029A607047012303FA00F0034B9A6803
:100FD80002439A60DA681043D86070470004014001
:100FE80030B50A4B53F830408C4204D103EBC005AE
:100FF8006D68954205D034B943F8301003EBC0034F
:101008005A60002030BD6FF00F00FBE7600300203E
:10101800034B002243F8302003EBC0035A607047AB
:101028006003002010B5214B18680B68082B144684
:1010380016D00B2B0BD89BB1013B0A2B10D8DFE83D
:1010480003F017162E163331160F1A252500582BC4
:101058000ED008D84C2B0BD0502B09D0482B07D0DA
:101068006FF0850006E05C2B02D0602BF7E70020CC
:101078002060002010BD00F0C1F80623B0FBF3F09B
:10108800552358430723B0FBF3F0F1E700F0B6F817
:101098000623B0FBF3F0552358434008E8E74FF424
:1010A800FA40E5E70248E3E70248E1E7500100209B
:1010B80000366E01006CDC02F8B54C4F4C4C00F069
:1010C800BBF8384602F06DF900F0B8FEA368494A4B
:1010D800C3F303131578D35C05F01F0503F01F0352
:1010E80020FA03F647FA05F5AE4202D2284600F088
:1010F800DBFE236823F480232360236843F48033D2
:10110800236023689A03FCD5D4F8943043F0010394
:10111800C4F89430D4F894309B07FBD5D4F89830B1
:1011280043F00103C4F89830D4F898309807FBD5F9
:10113800A36803F00C030C2B18D12368590506D4B7
:10114800236843F48073236023685A05FCD5A36899
:1011580023F0030343F00103A360A36803F00C0327
:10116800042BFAD1A36823F0F003A360236823F0CB
:1011780080732360E36823F0605323F4003343F063
:101188006053E360E36843F48033E360E36823F487
:10119800C003E360E36843F48013E36000F032F8CF
:1011A800236843F08073236023689B01FCD5A36800
:1011B80023F0F003A360A36843F00303A360A368CC
:1011C80003F00C030C2BFAD1AE4202D3284600F0F0
:1011D8006BFE094B1F60A36823F4E063A360A36858
:1011E80023F46053A3600020F8BD00BF80FE210AED
:1011F80000100240C94C0008500100200048704708
:1012080000366E010A4AD2F8803023F48073C2F89F
:10121800803002F5D032074BD1680B4043F4AA4323
:1012280043F05303D360D36843F08073D3607047AF
:10123800007000400C80FFF9064B9A6D42F0805216
:101248009A659B6D82B003F080530193019B02B0B5
:10125800704700BF0010024008B5074802F0A5FE1D
:1012680038B10648FFF71EFE0448FFF755F900207D
:1012780008BD6FF01200FBE76844000889120008F7
:101288000A2838B5074D044604D1AB680D215B68C0
:1012980028469847AB6803485B68E1B29847204600
:1012A80038BD00BF6844000838B503690446586073
:1012B800084D284602F079FE40B16168AB680C31F0
:1012C8001B682846984700EAE07038BD6FF01200A6
:1012D800FBE700BFA043000873B50C461146B1F503
:1012E800001F456802691E4628D104F00303043331
:1012F8009B000F229A4042EA940202F00303023351
:10130800374951F82310130C93FAA3F3B3FA83F374
:1013180001EA124203F01F0322FA03F3AA689A4271
:1013280009D12046FFF720FE2046FFF771FE002175
:101338002046FFF725FE002002B070BDB1F5800FF2
:1013480044D028492046FFF74BFE002841D1B6F18A
:10135800806F37D0B6F1C06F36D0B6F1007F3BD181
:101368000226214AAD6892E803006B4683E8030031
:101378001E488268194612689047D8B904F00303DA
:1013880004339B000F21994041EA940101F00303C3
:101398009B0003F1804303F580330A0C986892FAA6
:1013A800A2F2B2FA82F202F01F0220EA114195403D
:1013B8000D439D6020463146FFF7E2FD2046FFF7CA
:1013C800C1FDB8E70126CCE70326CAE76FF0850020
:1013D800B2E76FF00F00AFE76FF01500ACE700BFA2
:1013E80000000140B73500081C480008A043000869
:1013F8002DE9F0471E4F044600EBC1060025B44214
:1014080001D1002014E02068C30600F01F0911D4A0
:10141800656845F02005C0F3481AC0F344200F283A
:1014280023D857F82080B8F1000F0DD16FF01200C3
:10143800BDE8F087B9F1100F04D0B9F1110FEAD166
:101448006568E8E73025E6E7404602F0AEFD00288B
:10145800ECD04B462A460AF00F01404602F0BEF88F
:10146800002804F10804CADAE2E76FF01500DFE7A4
:101478003C490008012912D0022907D089B900681F
:10148800094BC01A18BF0120000370470068064BBB
:10149800984214BF4FF440504FF40050704700205A
:1014A80070474FF4005070470080004043681B6845
:1014B80003F1080252E8002F42F0010203F108008C
:1014C80040E800210029F3D10F4A93420FD0A2F53A
:1014D800744293420BD002F58062934207D002F522
:1014E8008062934203D002F58062934203D15A6826
:1014F80042F040025A6053E8002F42F4807243E8F9
:1015080000210029F7D170470038014043681B6863
:1015180003F1080252E8002F22F0010203F108004B
:1015280040E800210029F3D10F4A93420FD0A2F5D9
:10153800744293420BD002F58062934207D002F5C1
:101548008062934203D002F58062934203D15A68C5
:1015580022F040025A6053E8002F22F4807243E8D8
:1015680000210029F7D170470038014070B51D46A9
:10157800094B002633F812203346FEF729FE0902EC
:1015880041EA10616C08000220182A46334641F1EE
:101598000001FEF71DFE70BD9C4B0008F7B50269FF
:1015A800436810681D680C46D9688368DB68B3B166
:1015B80001AA9847002812DB214B9D4232D1019F96
:1015C800204E00252346AAB238460021FFF7CEFF59
:1015D800A0F54070B04204D901350C2DF2D103B00A
:1015E800F0BD174EF36A23F00F032B43F362002C70
:1015F800F5D0154B33F81520002319463846FEF769
:10160800E7FD090241EA106163080002C01822469A
:101618004FF0000341F10001FEF7DAFDC0F31300BB
:10162800F060DCE72B6823F400432B60019B002C5F
:10163800D5D003EB5403B3FBF4F39BB2EB60CEE7D6
:1016480000800040FFFC0F009C4B00082DE9F84388
:1016580006460A794068336904685F68012A0D46BE
:1016680058D0931ED3F1000848EB03084FEA8828A6
:101678006979FFF7FFFE95F80690B9F1020F034666
:101688004BD0B9F1040F4CD0002A54D0033A012AA8
:1016980049D94FF48050B3F5805F4ED0B3F5405F21
:1016A8004DD0002B0CBF0123032399423BD1414667
:1016B80001F0F4FF814536D1EB79C3B1012B40D15C
:1016C800214B9C4213D0A3F574439C420FD003F5E1
:1016D80080639C420BD003F580639C4207D003F5DE
:1016E80080639C4203D003F540539C421BD123687E
:1016F80023F0010323602946304602F04BF92368A2
:1017080043F00103236095E8030087E80300002005
:10171800BDE8F8834FF4C068AAE73AB94FF08050A3
:10172800B9E7002AB5D06FF08500F1E7033A012A3E
:10173800F9D90020AFE71046ADE70023B5E702234B
:10174800B3E7032BBCD0EEE7003801402DE9F341A5
:101758000469476806465148206002F026FC20B913
:101768006FF0120002B0BDE8F0812068F968836864
:101778001B6898470028F5DB386A01AA002101F0A8
:1017880042FF0028EEDB019B002219791868FFF759
:101798002FFE0028E6DB756833692C68D3F80480CF
:1017A800236823F001032360686802F0FEFB002829
:1017B800D6D0D5E901018368DB6803B1984754E8BE
:1017C800003F43F00C0344E80032002AF7D14146B9
:1017D800304602F0DFF82B7D1BB1A36843F0080305
:1017E800A3606B7D1BB1636843F400436360AB7D0A
:1017F8001BB1636843F480336360EB7D1BB163689E
:1018080043F4003363602B7E83B3254B9C4213D093
:10181800A3F574439C420FD003F580639C420BD020
:1018280003F580639C4207D003F580639C4203D094
:1018380003F540539C422ED173681A68936843F4A9
:101848008043936023686A7E23F0787343EA4253A7
:1018580023602368AA7E23F4F81343EA0243236033
:10186800EB7E1BB1A36843F40043A3602B7F1BB13D
:10187800236843F000532360236843F00103236087
:10188800E3699A02FCD5E3695B02FCD530467B6AC2
:101898009847002066E76FF0150063E7A04300084B
:1018A800003801402DE9F3410446056946682F4F89
:1018B800384602F07AFB002855D0BB6831691B68AE
:1018C8003846984700284BDB706801AA002101F0D0
:1018D8009AFE002844DB019B002219791868FFF75B
:1018E80087FD00283CDBB36820469847AC68012692
:1018F8000834D5E9023203EBC203A4F1080293428B
:1019080004D8284602F0F8F9002029E054F8080C19
:1019180002F04BFB38B354F8080C14F8041C34F8E4
:10192800023CD0F810C0D0F80880DCF80070DA0764
:1019380054BF43F4B01383F4D01323F4801206FA8F
:1019480001FEDB074CBF4EEA070727EA0E07CCF873
:101958000070D8F800309847002804F10804C8DA65
:1019680002B0BDE8F0816FF01200F9E7A04300086B
:101978002DE9F04F1F4643680569D3F800808BB006
:1019880081460E46924602B99FB3B3889A0434D46E
:101998004FF0FF324FF0FF3305F1100000F072FCFA
:1019A8006E60DFF85CE2D9F810B0D9F804C0BEE880
:1019B8000F0002AC0FC49EE80F0084E80F00DBF8AC
:1019C8000020B388DCF800409642C3F3451100F0CC
:1019D8009B80082918D0102916D06FF085072B682E
:1019E8009B8813F4005304D16B6005F1100000F0DC
:1019F80025FC38460BB0BDE8F08FAB69002BC7D18A
:101A08006B689E42C4D1CCE713F4004F63687D48ED
:101A180014BF43F0100323F0100363608368DCF8FD
:101A28001010DB6813B96FF00407D8E701AA9847CC
:101A38000028F8DB019A3168012322FA03F0884272
:101A480005D90133092BF8D16FF01507C7E72268CC
:101A58000AA922F04002226001EB8303226853F8AE
:101A6800243C22F0380213432360B3889B0703D435
:101A7800236823F0020302E0236843F00203236093
:101A8800B38813F0040F236814BF43F0010323F055
:101A980001032360236823F444432360B38813F0CD
:101AA800100F236814BF43F0800323F080032360E2
:101AB800236823F400532360B368002B72D0236893
:101AC80043F400732360636823F004036360B388FE
:101AD80013F0010F236814BF23F4827343F4827355
:101AE8002360B388C3F34513082B636806BF23F448
:101AF800706343F4E06343F470636360636843F4C2
:101B080080536360CBF80060B388C3F34513082B98
:101B18000CBF012302233A465146284601F0EBFF49
:101B2800D8F8084014F001044AD1D8F8003043F03E
:101B38004003C8F80030D9F810603068002842D156
:101B4800D8F8043043F02003C8F804302FB1D8F88F
:101B5800043043F04003C8F80430D8F8043043F0A8
:101B68008003C8F80430A86B00231A46824236D195
:101B7800286C0022824239D19C42284638BF1C4634
:101B88004FF4FA5303FB04F250F8203B1B68B2FBF6
:101B9800F3F20A23C832A2FB032300F073FB60BBF5
:101BA8002F6B1CE7B38813F0010F236823F400732D
:101BB80088D143F480232360636843F0040385E7F6
:101BC80098F80C30ACE78368002BB9D001210830B5
:101BD80002F07EF83368186902F0D8F9B0E7696B4B
:101BE80001EBC201013249680B44BFE7E96B01EB25
:101BF800C201013249680C44BCE76FF07307EEE696
:101C080024480008A043000810B54FF0E0230F490E
:101C18009C691A6908689B690D4902F4803234B9D5
:101C280093B903464AB90A681044C01A10BD002B7C
:101C380008BF03460AB9A342F5D90A6802440A60F4
:101C48004FF0E0221269EEE70446F3E7540400205F
:101C5800500400200A4B102283F82320094B44F239
:101C680068221A60084B002018604FF0E02344F205
:101C780067225A6198611A6942F007021A6170472F
:101C880000ED00E0540400205004002010B5FFF7D8
:101C9800BBFF104B1049D3E900420868001942F114
:101CA8000002C3E900020D4A00230B60D2E900419B
:101CB80044F26823001BB0FBF3F043431B1941F1C6
:101CC8000001C2E9003100F013FFBDE81040FEF743
:101CD800CDBC00BF980100205004002090010020D6
:101CE8002DE9F041DFF8DC8099B1421C0BD14FF0AF
:101CF800E022136923F0010313614FF07F43C8F812
:101D08000030BDE8F081D8F80060012807DC002722
:101D18000BE0431CD8F80060F7D140F2D93040F20C
:101D2800DA339842A8BF1846471EEFF311851023EF
:101D380083F31288BFF36F8FFFF766FF224C4FF0D3
:101D4800E0239969D4E90023801843F10003C4E92A
:101D580000031E4B00221A601D4B1A68831A2ED4EA
:101D680044F2682C0CFB073303F584436733B3FB59
:101D7800FCF7131A0CFB073340F22642934238BF94
:101D88001346144A934228BF13464FF0E022C8F87E
:101D98000030013B90695361002393618142A1EBBC
:101DA8000003D4E9001238BF9B195B1842F1000206
:101DB800C4E9003285F31188BFF36F8FA1E740F2C1
:101DC8002643E2E754040020980100205004002034
:101DD800900100202882FF0038B5EFF31185102309
:101DE80083F31288BFF36F8F084B1C68084B1B687E
:101DF800E41AFFF709FF85F31188BFF36F8F44F2E8
:101E080068232044B0FBF3F038BD00BF98010020E0
:101E18009001002038B5EFF31185102383F3128861
:101E2800BFF36F8F044B1C68FFF7EEFE85F3118834
:101E3800BFF36F8F204438BD98010020174B9A6874
:101E480002F00C02042A23D09A6802F00C02082A35
:101E580020D09A6802F00C020C2A1DD1D968DA68E1
:101E6800D868DB6801F00301C3F341630329C2F3B7
:101E78000312C0F3062003F101030CBF0849094906
:101E88005B000132B1FBF2F25043B0FBF3F0704754
:101E9800044870470248704700207047001002400D
:101EA80000366E010024F400294A1368D2F8802015
:101EB80012F4807F03F4C063264A00F1FF3124D175
:101EC800914242D8B3F5007F2FD1234B984234D8A2
:101ED800224B984233D8224B984234D8214B98420F
:101EE80094BF00200120204A136823F00F03034306
:101EF8001360136803F00F0398421CBF136803F0C4
:101F08000F03C01A18BF0120704791421DD8B3F5BE
:101F1800007F0AD1154B98420FD8154B98420ED81E
:101F2800144B98420FD8144BD9E7B3F5806F08D1FA
:101F3800124B984207D8124BD1E70420D3E703206D
:101F4800D1E70020CFE70220CDE70120704700BF8E
:101F5800007000407FFE210A00321B0880651406CD
:101F680000990D0480CC060200200240000E2707CD
:101F7800804A5D050087930380C3C90100366E015E
:101F8800001BB70038B5EFF31185102383F31288CF
:101F9800BFF36F8F064B9C6802F01AF885F311881F
:101FA800BFF36F8F2046BDE83840FEF7DFBC00BFA7
:101FB8005804002038B5094B53F82040013053F835
:101FC8002050A54200D838BD636823B1204602F0EE
:101FD80002F80834F5E723689847FAE7844B0008C5
:101FE80070B52B4B2B4C2C4D012286B003201A7058
:101FF800FFF7E0FF00F0FCFD02F009F80420FFF70E
:10200800D9FF2646AE4204F1300410D300F02EFB6F
:10201800204C224EAC4226D300F03CFBFEF742FA9D
:102028001F4A137B23F00103137306B070BD54F8E5
:102038000C3C059354F8103C049354F8143C039357
:1020480054F8183C029354F81C3C019354F8203C73
:10205800009354E90A2354E90C0100F039F954F8C3
:10206800303C5E65CDE7D4E90A23B3F1FF3F08BFF2
:10207800B2F1FF3F05D052EA0301206803D101F015
:10208800D8FF3034C6E73146183000F0B7FCF8E71F
:1020980089040020FC470008FC4700084541000867
:1020A8002002002008B50348034A0021121A01F053
:1020B800AAFF08BD900100209004002070B50023FD
:1020C80086B00122CDE90423134E144D01930F224B
:1020D800CDE902321249142303FB005506EBC01662
:1020E80004464FF4C07000FB04110E4B00954FF4EA
:1020F800A072304600F0ECF8737B0B4AEE6023F0D8
:10210800040373734FF4046304FB033313442C7404
:102118006B6006B070BD00BFA0010020580400200D
:10212800000D002025400008C0040020BFB5002095
:10213800FFF740FF2B4B83F308882B4D2B4E6B6921
:102148002B4F43F400736B610024F02385F8223091
:10215800EC772C766C76AC7685F820406B6A43F485
:10216800E0236B62FEF7DAFBFEF71AFD4FF0FF3350
:10217800AB62EB62FEF7DAFDFEF736FD1D4BB3608E
:1021880040F201129A81C3E91844DC6601F00CFFA1
:102198000120FFF70FFF0220174DFFF70BFF00F09C
:1021A80099FA164B75610593012315490094CDE9F9
:1021B80003434FF400623B46CDE90144284600F052
:1021C80087F86A7B064622F0040228466A7301F003
:1021D8006CFF2046FFF772FF3A4631462846FEF765
:1021E800BDFC00BF000D002000ED00E058040020F9
:1021F800E91F0008A002002020020020D94C000896
:10220800800E002038B5054C256804EB850405B917
:1022180038BD54F80439013D9847F8E7FC470008F1
:1022280038B5044C044DAC4200D338BD54F8043BD7
:102238009847F8E7084800080848000838B50446F1
:10224800EFF31185102383F31288BFF36F8F01F02A
:1022580079FF48B10022826701F027FF2946084824
:10226800BDE8384000F0BEB9D4E902329A4218BF3E
:102278000133A36085F31188BFF36F8F38BD00BFAA
:102288008A04002013B5EFF31181102484F3128817
:10229800BFF36F8F846844B1013C846081F3118877
:1022A800BFF36F8F002002B010BD52EA030406D1BD
:1022B80081F31188BFF36F8F6FF00F00F3E7CDE95B
:1022C80000230246014800F061F9ECE78A04002087
:1022D8002DE9F043073285B022F007020E461F466B
:1022E8001099017300F158037F32C0E91633044690
:1022F800002322F03F020421836041733F2A0F9894
:10230800A073C4E90633E37306F14009A2F140085B
:1023180005D883F31188BFF36F8F084602DFB5181D
:1023280029462046FEF782F907300E9B20F0070069
:10233800A066C4E9189802930D9B01932D1A0C9B73
:1023480000932A463B4631462046FEF7D5FB00233C
:102358006365044B9B6803B1DB6EE366284605B0F2
:10236800BDE8F0835804002038B50D4D2B4653F8CE
:10237800184F9C4200D004B9EC68AB6838B95A7B56
:10238800D20604D1A26912B9DA897F2A05D89C42FB
:1023980002D0204600F07AFA23466B6138BD00BFB0
:1023A8005804002008B590F90D20437B002A014607
:1023B80004DA03F07F03437301F03DFE044B986891
:1023C800431A58425841BDE80840FFF7CDBF00BF47
:1023D8005804002070B490F90D30427B002B29DBA3
:1023E800D30627D183692BBB134962F07F0242735E
:1023F8000A4652F8184F944218BF2346CC6923B9AD
:10240800C0E900242060C8610CE090F90E5093F9EF
:102418000E60B5420AD0AE4208DD5A68C0E9003203
:102428001060586070BC0020FFF79EBF9C42E7D048
:102438001B68E4E770BC7047580400202DE9F041A0
:10244800002A427B0E460CBF102108211142044687
:102458000FD141EA0203D20918D1437308291BD0CE
:102468000120FFF781FFBFF35F8F637B23F06003D9
:102478006373274B9B68A34243D1EFF30583002B7B
:102488003FD13046BDE8F041FEF786BA03F07F033E
:10249800437301F0D0FDE1E7A36813B1204601F0D2
:1024A800D2FD04F1180001F08AFEA56D04F1580769
:1024B800AF4211D04FF0000875B1284601F0C3FDB6
:1024C80005F1180001F07BFEC5F878802846FFF773
:1024D80081FFA56DAF42EFD10D4DAB689C42BFD1D6
:1024E800EFF30583002BBBD00120FFF73DFF094B1D
:1024F800AB6040F201129A810022C3E91822DA6621
:10250800B1E786F31188BFF36F8FBDE8F08100BF94
:1025180058040020A002002070B590F90D20437BDC
:10252800002A014604DA03F07F03437301F083FDB8
:102538004B7B154A63F07F0310464B7350F8183FE6
:10254800D469834208BF002323B9C1E9000421608C
:10255800D1610CE091F90E5093F90E60B5420ED09E
:10256800AE420CDD5868C1E90030016059609068DE
:10257800431A5842BDE870405841FFF7F5BE9C42E7
:10258800E3D01B68E0E700BF58040020F8B5124B01
:102598000C461146114A98681060DDE90676EFF39B
:1025A8001182102282F31288BFF36F8F9D6828462C
:1025B80001F053FDB6F1FF3F08BFB7F1FF3F06D06A
:1025C80007493A46334605F1180000F017FA204645
:1025D800BDE8F840FEF7E0B9580400207804002070
:1025E8004541000849B9EFF3058030B9054B5A69F0
:1025F8009B689A4201D0FEF7CFB981F31188BFF3E7
:102608006F8F70475804002010B5EFF31184102223
:1026180082F31288BFF36F8F427B510704D484F38F
:102628001188BFF36F8F10BD22F004024273FFF7C9
:10263800D1FE21460248BDE81040FFF7D3BF00BFD6
:102648008B040020034648B9EFF3058232B9064AE5
:1026580051699268914201D0FEF79EB983F31188BF
:10266800BFF36F8F704700BF58040020EFF311814C
:10267800102383F31288BFF36F8F054B9A68D37BBF
:10268800013BD37381F31188BFF36F8F704700BF8D
:102698005804002038B5EFF31185102484F312880C
:1026A800BFF36F8F0A4B9A68D37B0133D373002033
:1026B800FFF75AFE85F31188BFF36F8FEFF3118090
:1026C80084F31288BFF36F8FBDE83840FFF7BABFB5
:1026D80058040020024B03F11802C3E90622704790
:1026E80058040020F8B5EFF31185102383F31288FE
:1026F800BFF36F8F19498868437B03F07F034373E7
:1027080001F099FC8B685A7B084662F07F025A7385
:1027180050F8182FCC69824208BF002222B9C3E9B9
:1027280000042360CB610CE093F90E6092F90E70FF
:10273800BE420ED0B7420CDD5168C3E900210B60E0
:1027480053600120FFF710FE2846BDE8F840FEF769
:1027580023B9A242E3D01268E0E700BF5804002082
:1027680050EA01032DE9F04105460E4603D1FFF773
:10277800B9FF00202BE0831C71F1FF3329DB01F046
:1027880033FD2C18EFF31188102383F31288BFF35D
:102798006F8F124F124BB8681860FFF703FEB868C6
:1027A80010492A463346183000F028F9BA68537B96
:1027B80043F0100353734046FEF7EEF801F014FDA2
:1027C800201A63EB0303012873F10003D1DBBDE892
:1027D800F0816FF00104241AD4E700BF58040020E8
:1027E8007804002045410008B1F1FF3F08BFB0F16F
:1027F800FF3F08B506D10A4B986801F065FC4FF019
:10280800FF3008BDFFF7ACFFC11709304FF00A02CF
:102818004FF0000341F10001FDF7DAFCF1E700BFDA
:1028280058040020014B9868704700BF58040020E6
:10283800044BC01A044BC0105843044B01221A54CD
:10284800704700BF20030020ABAAAAAA8C0400206E
:10285800C3897F2B12D80A4B1B6863B1094B90F9C7
:102868000E201B689A4209DB437BDB0606D1064B28
:10287800C31A18BF012303F0010070470023FAE7C9
:10288800800400207C040020A001002070B50E4BBD
:102898000E4C1E7C06EB460304EBC304054620469B
:1028A80001F08DFC0A4B002228469A55FFF7D0FF0D
:1028B80048B1084B08491A68013A2046D317BDE8C1
:1028C800704000F09BB870BD580400202003002021
:1028D8008C040020800400203928000838B5EFF364
:1028E8001185102383F31288BFF36F8F104B114AA1
:1028F8009C681068A04206D1FFF7C8FF85F31188CD
:10290800BFF36F8F38BD00211B7C11600A4AD35C6E
:10291800002BF3D02046FFF79BFF0028EED0637B07
:10292800DB0602D12046FFF7F7FD2046E4E700BFAB
:1029380058040020780400208C04002008B50648BC
:10294800064A0749121A01F060FBBDE80840054A2B
:102958000549064801F059BB000000208A01002003
:10296800184D000800000000184D00080000002065
:10297800034B1B680BB9FFF72FBA0020704700BF45
:102988008404002030B570B10B4B5B6898420AD0C4
:10299800036843B1D3E90421D0E90445121941EB96
:1029A8000501C3E90421D0E9003213605A6000230D
:1029B800C0E9003330BD00BF5401002010B50E4BF4
:1029C8001C689C4204D1FFF7D3FF6FF0004010BD94
:1029D800FFF7CEFF002CF8D0D4E904321B1A62EBC3
:1029E800E072B3F1004F72F10001EEDA002AACBFD9
:1029F80018460020EBE700BF54010020B3F1FF3F69
:102A080008BFB2F1FF3FF8B504461D4616465ED032
:102A18008160EFF31187102383F31288BFF36F8F60
:102A2800013275F1FF3324DA2E49D1E900206FF025
:102A380001039B1A4FF0FF3262EB00009E1B60EB14
:102A48000500012E70F1000301DA01260020C4E917
:102A58000460254ED6F800C07568B44508BF4FF02D
:102A6800000CBCF1000F0DD1C4E900652C60746046
:102A78001CE0FFF77DFF013645F10005361845EBF0
:102A8800E070E4E7DCE90420D4E90431934271EB17
:102A9800000E1DDAD21ADCF8043060EB0100CCE934
:102AA8000420C4E900C31C60CCF804403368B34276
:102AB80009D09C4207D10D4B1C6824B9FFF77EFF53
:102AC8002146FFF70DF987F31188BFF36F8FF8BD23
:102AD8009B1A61EB0001AC45C4E90431C4D0DCF8B1
:102AE80000C0BEE738030020540100208404002001
:102AF8002DE9F84FEFF3118C102383F31288BFF3FD
:102B08006F8FDFF8B0A0DFF8B0902C4FC9F8000045
:102B1800DAF800000024504508BF00200025D7E956
:102B28000021D9F80030E04678B3D0E9046C4FEAC8
:102B3800E37EB3427EEB0C0B05DAF61A6CEB0E045F
:102B4800C0E9046421E0B21841EBE671C0E904452C
:102B5800C7E90021FFF716FF88F31188BFF36F8FCD
:102B680083689847EFF31188102383F31288BFF323
:102B78006F8FD9F80030DAF800009B1B5045C44627
:102B8800C9F80030CBD1D7E900219A1841EBE3739B
:102B98000024C7E90023C9F80040FFF70FFF2146CA
:102BA800FFF79EF888F31188BFF36F8FBDE8F84FE1
:102BB800FFF794BE5401002084040020380300204D
:102BC80010B5EFF31184102383F31288BFF36F8FCE
:102BD800FFF7CEFE054A0346D2E90001181841EB7B
:102BE800E37184F31188BFF36F8F10BD38030020A1
:102BF800014800F0CBBA00BFDE4C00082DE9F04FC9
:102C08008DB043680293837815469A07804640F151
:102C18000D8100240E78002E00F00A81252E0BD09D
:102C28004B1C03930134029B4146304698470028C9
:102C3800C0F2F6800399EDE74E788B1C252E03939E
:102C4800F0D00027B946BB46BBF11F0F38D8A6F114
:102C58002003102B0AD8DFE803F02A0909300909F4
:102C6800092109090928092D09091F00A6F13003BE
:102C7800092B33D92A2E37D11BF0400F55F8043BC6
:102C880040F08280002BA7BF4BF0200B9946C3F180
:102C980000094BF0280B01E04BF0010B039B13F8E4
:102CA800016B0393002ECFD130E04BF0020B4BF0B9
:102CB800040BF3E74BF0080BF0E74BF0100BEDE7D4
:102CC800BBF17F0F19D8A6F13003092BD2D81BF01E
:102CD800400F03D00A2101FB0737DFE70A2101FB78
:102CE80009394BF0200BD9E72E2E06D11BF0400FE7
:102CF80040F09E804BF0400BD0E76C2E31D02BD8A3
:102D0800682E36D06A2E3CD04C2E3AD0002F46F092
:102D18002003B8BF2BF04002A3F16501BCBF1FFA26
:102D280082FB0027022901D9612B2FD1073525F015
:102D38000705DFF8ACA2083507271BF0080F66D097
:102D48000AEB070B56465E4563D1A4EB0A0A06EB6D
:102D58000A02A9EB07096FE1742E9FD07A2E9DD045
:102D6800D4E71BF0800F18BF4BF4007B4BF0800BAF
:102D780094E71BF4807F18BF4BF4007B4BF4807BF7
:102D88008CE74BF4207B89E71F4687E7A6F16301B0
:102D9800122900F2F080DFE811F013004F00EE0076
:102DA800EE00EE00EE004F00EE00EE00EE00EE004A
:102DB800EE00FE00E900EE00EE001B00EE00AF00A2
:102DC80055F8043B8DF8183001270DF1180AB4E7BF
:102DD80055F804AB834BBAF1000F08BF9A461BF0B5
:102DE800400F14BF39464FF0FF31504601F016FA34
:102DF8000746A2E7029B41462020984700280FDBA0
:102E0800013EB742F6D34C44A41BB14698E74E4660
:102E1800F7E716F8010B029B41469847002892DA1B
:102E280098F8023043F0040388F802304FF0FF347A
:102E380020460DB0BDE8F08F1BF0800F34D01BF496
:102E4800007F2CD0073525F00705AA4669685AF88F
:102E5800080B2BF010050029ADB237DA404261EBC0
:102E6800410145F480650DF1180B0A235A4601F01B
:102E7800E1F9A0EB0B0301936B0662D5019B25F0EA
:102E880001019F4289B240F3A180002E00F0998091
:102E980015F0100240F09C80BB460D4623E0AA4680
:102EA8005AF8040BC117D4E7AA461BF4807F5AF8D6
:102EB800041B01D10846F5E71BF4007F15BF48B293
:102EC80008B241F3C01141F3C031C2E750EA01032F
:102ED800C9D11BF0400FC6D0002FC4D12BF011026E
:102EE80095B2BB46019740F2064115EA01021CBFA4
:102EF8000BF1010B00222CE02BF010021FFA82FBD1
:102F08000A231BF0800C49D01BF400711DBF073544
:102F180025F00705AA46AA461ABF5AF8080B696899
:102F28005AF8040B50EA010545D12BF016051BF0A1
:102F3800400FADB242D0002F40D12BF0170295B20E
:102F4800019715F0100248D0019B002E42D103F1E1
:102F5800010B29075AD4EB0706D5D9456FDD01992E
:102F6800A9EB0B035F18CB465B4649E04BF0100B0F
:102F780010237826C5E7782B04D1C6F1780343F0EF
:102F88001003BEE7029B4146252098470028FFF61C
:102F980047AF023447E608230026B2E7AA461BF4E7
:102FA80080715AF8040BBDD01BF400711ABFC0B26F
:102FB800614680B2B6E72BF0060295B20DF1180B08
:102FC80054E725F01105ADB2BB468CE70D46B8E7CE
:102FD8003B460D4603F1020BBBE7DDF804B082E780
:102FE8000D4D0008064D0008CDE904324146029B0C
:102FF800202098470028FFF613AF049B059A013359
:103008009945F1DCA4EB0B01CC189B460AB3029B53
:103018004146302098470028FFF602AF8EB90134A8
:103028002744019B391B994224DC1D465DBB019A4C
:10303800A9EB0B09224455461446914435E0019FFB
:1030480092E7023441463046029B98470028E7DA67
:10305800E6E640F206410D42E2D015F0020F14BF39
:103068002B20202015F4806F04F10104414618BF7D
:103078002D20E9E7029B414630209847002804F1BB
:103088000104CEDACCE606AB013D4146585D029B11
:1030980098470028CADAC3E6029B41462020984791
:1030A800002804F10104FFF6BBAEA9EB0403002BD2
:1030B800F2DCBFE5704700EBC1004088400870476C
:1030C800F8B50346FFF7F7FFB0FA80F0C0F11F002C
:1030D80003EB800CCA00DCF81060171D0C460632A2
:1030E8008DB256B9012101FA00F0D9680143D960BF
:1030F800CCF81040DD539D52F8BDF1000431585A08
:10310800D85303EBC0009E52C5805D52F4E7043AE1
:103118002DE9F041CC1D114424F0070421F00701EA
:103128000E1BF708B7FA87F2C2F12405AD004FF07D
:1031380000080735C2F12002ED0804604146A76087
:10314800C4F80C80920004F1100001F05FF86B00E5
:1031580043F00103638004EBC5027B1B5900A4F80C
:1031680000805180A21924F83550A2F80280A35398
:1031780004EBC70329465A8842F001025A802046C8
:10318800BDE8F041FFF79CBF002070470FB407B5BA
:1031980004A951F8040B0191FDF7C4F903B05DF8D7
:1031A80004EB04B070477047012801D1EFF30583A1
:1031B800FEF7E8BE01460068FFF7F6BF00210120D0
:1031C800FFF7F2BF61B662B680F31188BFF36F8F65
:1031D800704772B6002383F31188BFF36F8FBFF374
:1031E8004F8F30BF62B6BFF36F8F7047202809D961
:1031F800B0F1004F08D80138B0FA80F0C0F11F00D4
:1032080040007047082070473E20704708B5FDF71A
:1032180041FE002008BD08B5062201210020FDF767
:1032280085FE002211460620FDF72AFC01210846EA
:103238000722FDF77BFE002211460720FDF720FC40
:10324800082201210220FDF771FE00221146082004
:10325800FDF716FC092201210320FDF767FE002275
:1032680011460920FDF70CFC0A2201210420FDF774
:103278005DFE002211460A20FDF702FC05210846E2
:103288001722FDF753FE002211461720FDF7F8FB21
:10329800282206210A20FDF749FE0022114628208F
:1032A800FDF7EEFB002008BD0B2809D840F66A732D
:1032B800C34013F0010F14BF00206FF08500704762
:1032C8006FF0850070470B68A3F14802182A82B096
:1032D80012D803F1804303F5043348681A6802439F
:1032E8001A600B6803F1804303F5043300201B6860
:1032F8000193019B02B070476FF08500FAE70B68F5
:10330800A3F14802182A9FBF03F1804303F5043351
:1033180049681A689DBF8A4300201A606FF08500CB
:10332800704710B50868FFF7BFFF002820DB4A6820
:10333800FF2A1CD0D3B203F1804303F50433C2F350
:1033480042341868C2F3042204FA02F220EA0202A4
:103358001A604968CBB203F1804303F50433C1F323
:1033680002421868C1F304218A4002431A6000200F
:1033780010BD086808B5A0F14803182B0AD800F159
:10338800804000F504304B680268934314BF012065
:10339800022008BDFFF788FF002814BF0120022083
:1033A800F7E7704743685B681B690B60002070474C
:1033B80043685B68586942400A4042405A610020AD
:1033C800704743685B6800209961704743685B6891
:1033D80000209962704743685A6853694B405361AB
:1033E8000020704710B503699868F8B1884219D170
:1033F800DC6808689860A14200D1D86000200860A5
:103408002AB19A680A60DA68996002B9D96000201E
:1034180010E0814206D108682060D8688142EDD169
:10342800DC60EBE7044600680028F2D1002AE8D106
:103438006FF0150010BDF0B544680120676888403A
:103448001E46C2F3801327EA00078B403B436360A4
:1034580090FAA0F7B7FA87F7D4F808C04FF0030E30
:103468007F000EFA07F72CEA070C90FAA0F7B7FAD4
:1034780087F7C2F3C1137F00BB4043EA0C03A36084
:1034880090FAA0F3B3FA83F3E7685B000EFA03F34C
:1034980027EA030790FAA0F3B3FA83F302F03005A2
:1034A8005B00C2F341229A403A43202DE26016D1D4
:1034B80007292BDC90FAA0F3226A2BB3B3FA83F323
:1034C8009B000F2101FA03F322EA030290FAA0F30A
:1034D800B3FA83F39B0006FA03F31343236290FACB
:1034E800A0F3B3FA83F3226890FAA0F05B000321FB
:1034F800B0FA80F02D0901FA03F3400022EA030331
:1035080085401D432560F0BD2B46D9E7030A616A53
:1035180093FAA3F282B1B2FA82F292000F2793FAD9
:10352800A3F3B3FA83F307FA02F29B0021EA02023B
:103538009E4016436662D2E72A46EEE713469A0390
:1035480010B518D59C070FD55A072DD55022DC0683
:103558000CD542F4007213F4002F446818D0646844
:1035680001238B40A3610DE01022F0E79C06F2D501
:1035780042F48062EFE7DC0311D5DA0611D4C3F315
:1035880040139A0240680023FFF755FF002010BD42
:103598005B03F7D5646801238B40A362F2E730220E
:1035A800F0E74FF40072EDE76FF08500EFE770B5D4
:1035B8000B46896821B101255E680C68854001B910
:1035C80070BD8A682A4002D04B68304698471CB1C3
:1035D800236821461C46F2E72346FAE7F8B51F465A
:1035E800044640680E461546FFF725FF112F08D1FF
:1035F800012303FA06F663685B682A054CBF9E61DF
:103608009E620020F8BD30B5036813600579046830
:1036180004EBC504A34202D36FF0010030BD5C790E
:103628008C4201D00833F0E70020F7E74368C1F384
:103638004B101B6801F01F01C05801238B40034247
:1036480014BF0123002313700020704710B543688E
:10365800C1F34B101A6801F01F01845801238B40F5
:1036680023438350002010BD10B54368C1F34B14A9
:10367800186801F01F01235801228A4023EA020337
:103688002350002010BD38B504460D46FFF7DEFF75
:1036980029462046FFF7E8FF002038BDB0F5805FD7
:1036A80007D0B0F1805F09D1002914BF01200220A2
:1036B8007047002914BF032004207047002914BF55
:1036C80002200320704743681B68D869DA69D1076C
:1036D800DA69C0F3C00048BF40F002009207DA6917
:1036E80048BF40F004005107DA6948BF40F02000A5
:1036F800D20542BF4FF4807240F008001A62C10739
:1037080044BF08221A62820744BF01221A62410795
:1037180044BF02221A62820644BF04221A6270471A
:1037280043681A6852E8003F43F0400342E800311A
:103738000029F7D1704743681A6852E8003F23F020
:10374800400342E800310029F7D1704743681A68FE
:1037580052E8003F43F0200342E800310029F7D146
:10376800704743681A6852E8003F23F0200342E894
:1037780000310029F7D1704743681B68D869C0F346
:1037880040107047012070470369C3E9021270476F
:10379800026993680BB1D1681847704708B50022D1
:1037A80025201146FDF76CF9BDE808402520FDF7F6
:1037B80059B908B500225B201146FDF761F9BDE84B
:1037C80008405B20FDF74EB943681B68D869C0F311
:1037D8008010704743681B68D86910F080001CBFD0
:1037E8001868C0F38010704710B5026952681268F3
:1037F8000A6042681268126802F4C062B2F5806F0B
:1038080004460B4633D0A2F5C060424242411A71C9
:1038180062681268526802F44052B2F5805F28D09C
:10382800B2F5405F27D0002A0CBF012203225A714B
:10383800626812681068116800F0102001F4C06115
:10384800FFF72CFF987162681268926802F4407260
:10385800A2F540714A424A41DA716168096889688B
:1038680011F4804F18BF0322DA71002010BD022224
:10387800CDE70022DBE70222D9E7F8B543681B68E9
:103888000D461868196800F0102001F4C061FFF7B0
:1038980005FF04281CD0D86910F0800017D0EFF37A
:1038A8001186102181F31288BFF36F8F0021CCB2EB
:1038B800A242204607DDDF693F0601F1010102D57A
:1038C800285D9862F3E786F31188BFF36F8FF8BD20
:1038D8006FF08500FBE710B543681B681020DA69B4
:1038E8001206FCD5EFF3118280F31288BFF36F8FB5
:1038F800DC69240604D482F31188BFF36F8FEEE7E6
:10390800996282F31188BFF36F8F10BD43681B68FB
:10391800DA69910602D51A68920607D4D86910F0B8
:10392800400004D01868C0F3801070470120704729
:10393800F8B543681B680D461868196800F0102030
:1039480001F4C061FFF7AAFE042810D0002408265D
:10395800E1B28A4208460CDDDF69BF0609D5586A1C
:103968006854D969090700D51E620134F0E76FF081
:103978008500F8BD43681B68DA69100744BF082250
:103988001A62DA69920643BF5B6A0B7000204FF037
:10399800FF3070472DE9F0410A790369D0F80480B7
:1039A8005E68012A04460D4611D0901E47424741E1
:1039B800BF0269794046FDF75DFDAB79022B09D05E
:1039C800042B31D0131E18BF01231B0306E04FF44C
:1039D800C067EEE7B2FA82F35B091B07EA79D8F809
:1039E8000010012A14BF4FF0000C4FF4407CAE4287
:1039F8001DD10A6822F0805222F4B0523A431A4389
:103A08000A604B6823F4405303434B6063681A68A9
:103A1800936823F4407343EA0C03936031682046AB
:103A2800BDE8F041FDF7BABD4FF48053D6E7D1F8B1
:103A380000E00EF4C06E77451FBFD1F800E02EF409
:103A4800C06E4EEA07070F6061680F68796801F475
:103A5800405188421FBF796821F440510143796081
:103A680061680868016801F010218B421FBF016876
:103A780021F010210B430360636819688B6803F415
:103A880040739C451FBF8B6823F4407343EA0C03C3
:103A98008B6063681B689968490405D5032A09D0B7
:103AA8009A6822F4804204E0032A03D19A6842F417
:103AB80080429A6029683368994204D02046FDF70D
:103AC8006DFD2B683360BDE8F08130B504460868A9
:103AD80008B9106008E0206845689D4205D3B5FB29
:103AE800F3F515602368186830BD08302060086851
:103AF80001380860EBE770B5044615461E46E9B97B
:103B080041630023A36304F14802334604F13801FA
:103B180004F13400FFF7D9FF6064ADB9E563002311
:103B2800236404F15002334604F1400104F13C00DF
:103B3800FFF7CBFF0023E064236370BD0B6843638A
:103B4800002BDED04B68DDE72B68E363002BE6D063
:103B58006B68E5E710B50B684A6C9B88C3F345139F
:103B6800082B0C4623D1D2B18B6C03B11378DBB28E
:103B78000373A36C93B1013BA36493B9636B0833DC
:103B88006363A36B013BA363012304F1480204F1BF
:103B9800380104F13400FFF798FF606410BD134644
:103BA800E5E7636C002BF9D001336364F6E792B163
:103BB8008B6C03B113889BB28381A36C002BEDD06F
:103BC800013BA3644BB9636B08336363A36B013B8D
:103BD800A3630223D9E71346EDE7636C002BDDD01E
:103BE8000233E2E710B50C46D1E913312268928816
:103BF800C2F34512082A20D1027BD2B20BB101B11F
:103C08001A70236D93B1013B236583B9E36B0833C5
:103C1800E363236C013B2364012304F1500204F1A4
:103C2800400104F13C00FFF750FFE06410BDE36C75
:103C3800002BFBD00133E364F8E7C2680BB101B194
:103C48001A80236D002BF1D0013B23653BB9E36B50
:103C58000833E363236C013B23640223DDE7E36C51
:103C6800002BE3D00233E6E708B523200022052124
:103C7800FCF706FFBDE808402320FCF7F3BE08B5B3
:103C8800242000220521FCF7FBFEBDE80840242083
:103C9800FCF7E8BE08B5332000220521FCF7F0FE4A
:103CA800BDE808403320FCF7DDBE0246806810F40A
:103CB800B87082B00AD093685B0605D5D3680193C3
:103CC800019B93680193019B6FF0040002B0704759
:103CD80003460A4600681979012303FA01F10369CA
:103CE8001B68194218BF82F0010212B18368DB68B1
:103CF800184783681B69FBE710B5036804464BB196
:103D08009A683AB1186900F041F920680021083032
:103D1800FFF7DEFFA36933B9636004F11000BDE863
:103D28001040FEF78BBA10BD10B544680069FFF764
:103D3800E3FF2268136823F040031360002010BDDE
:103D48002DE9F341436806691C68636823F0800322
:103D58006360636823F040036360636823F02003B3
:103D68000F466360A368DD0701D5237BFAE7236864
:103D780003F48273B3F5827F16D1A3681906FCD4C5
:103D8800D0F81080D8F8002072B1936863B1938896
:103D980013F4805508D1106900F0F8F8D8F800003D
:103DA80029460830FFF794FFA3689A0606D5A3684A
:103DB8000193019B236823F04003236033689B88A9
:103DC800DB045EBF236823F040032360376306F1FA
:103DD800200002B0BDE8F041FEF730BA2DE9F0410D
:103DE8004768046997F814803D680646B8F1000FE3
:103DF80002D02B685B062FD52846FFF756FF0146F1
:103E080020B13046BDE8F041FFF79ABFA26C1AB95D
:103E1800236D0BB90021F4E723689B88D8072CD4BD
:103E2800B8F1000F1AD0AB68D90703D52146284648
:103E3800FFF7D8FEAB689A0703D521462846FFF757
:103E480089FE3868FFF731FF01460028D9D1A36CF5
:103E580013B9236D002BDDD0BDE8F081AB689B075B
:103E6800FCD528462146FFF775FE38688368DD07CC
:103E7800FCD52146FFF7B6FEE3E7A968890762D5B6
:103E8800002A60D0C3F34513082B626C46D113781F
:103E98002B73A36C9BB1013BA364002B38D1636BDC
:103EA80008336363A36B013BA363012304F1480256
:103EB80004F1380104F13400FFF707FE6064AB68D1
:103EC800DB07BED5E36C002BBBD0226D002AB8D02F
:103ED80022689288C2F34512082A40D12A7B1A70B8
:103EE800236D002BADD0013B2365002B30D1E36B54
:103EF8000833E363236C013B2364012304F150027C
:103F080004F1400104F13C00FFF7DFFDE06498E7AD
:103F1800636C002BD3D001336364D0E71388AB8183
:103F2800A36C002BCBD0013BA3643BB9636B083374
:103F38006363A36B013BA3630223B7E7636C002BA6
:103F4800BDD00233E8E76B6823F080036B60B6E707
:103F5800E36C002B3FF475AF0133E36471E7EA6863
:103F68001A80236D002B3FF46CAF013B23653BB9EE
:103F7800E36B0833E363236C013B23640223BDE74F
:103F8800E36C002B3FF45DAF0233E6E738B5044637
:103F980048B1FDF73FFFAA2305465C43FDF73AFF0A
:103FA800431BA342FAD338BD704740B1C368587861
:103FB80010F001001EBF1878B0FA80F04009704771
:103FC800EFF31183102383F31288BFF36F8FFEE79B
:103FD80008B5FFF7F5FF10B5D0E9003433B9002074
:103FE800E268537843F00103537010BD20469847A8
:103FF8000028F4D00028B8BF4042E368FF28A8BFD3
:10400800FF201870ECE700F001B900F0F1B808B52E
:10401800FEF7F8F8BDE80840FEF702B908B5102425
:10402800EFF3118384F31288BFF36F8FFFF7D1F892
:10403800F6E7FEF7E9BAD0E9003213605A600023C8
:10404800C0E90033704708B5FFF7F5FF437B23F05D
:10405800020343730023836008BD38B504460D4648
:10406800FEF7A0F9637B43F002036373E5B1A56033
:104078002B689D4209D16B68C4E900531C606C60D1
:1040880012E06A689A42F6D01B68002BF3D094F9C4
:104098000E2093F90E108A42F3D09142F1DD5A684E
:1040A800C4E9003214605C6038BD10B5EFF31184C8
:1040B800102383F31288BFF36F8FFEF78BF984F315
:1040C8001188BFF36F8F10BD10B50446183000F08B
:1040D80076F8EFF31181102383F31288BFF36F8F03
:1040E800627B1A4004D081F31188BFF36F8F10BD33
:1040F8002046BDE81040FEF7A1B938B50446EFF3F5
:104108001185102383F31288BFF36F8F437B13F05D
:10411800280F0BD183680BB1FFF795FF637B51B96B
:1041280003F0FB0363732046FEF754F985F3118807
:10413800BFF36F8F38BD03F0EB03F3E701211838A5
:10414800FFF7DBBF38B5EFF31185102383F312882F
:10415800BFF36F8F0468A0420DD034B12046FFF73B
:1041680072FF04F1180000F02AF885F31188BFF3F4
:104178006F8F204638BD0024F7E7EFF31181102236
:1041880082F31288BFF36F8F027BD2070CD581F3BD
:104198001188BFF36F8F002383F31188BFF36F8FEC
:1041A8000423184602DF7047437B1B0704D581F3BD
:1041B8001188BFF36F8F70470122FEF73FB910B522
:1041C800EFF31184102282F31288BFF36F8F036814
:1041D8003BB1FEF7D7FB002084F31188BFF36F8F44
:1041E80010BD6FF01500F7E708B5FEF7E9FC08BD4C
:1041F8000A44914200F1FF3300D1704710B511F81D
:10420800014B03F8014F9142F9D110BD0244034616
:10421800934200D1704703F8011BF9E710B5024635
:1042280001448A42134603D01C780132002CF8D18D
:10423800181A10BDF0B5C3F137070446FFB203F0F2
:104248001F031046082BE6B233D0102B3ED065086A
:10425800A40844EA817445EAC1752D194FEA910210
:1042680042EB5102290941EA02716D1842EB121220
:10427800290A41EA02616D1842EB1222290C41EA2F
:1042880002416D1842EB1242AD1842F10002EC08EF
:1042980044EA4274D10804EB8402A6EB4205EDB26D
:1042A800092D0CD90134A5F10A0541F10001EDB23F
:1042B80012E0E40844EA417406F00705C9083035FD
:1042C80054EA010200F8015BBCD1F0BD240944EABC
:1042D800017406F00F050909092D84BFED19EDB227
:1042E800EDE7000001480068704700004003002027
:0842F80014BFFF7F010000006C
:10430000A505000800000000C1100008A043000837
:10431000910500080000000000000000B443000800
:10432000B11200082C440008B112000854440008DF
:104330001F320008C8430008B112000818440008E2
:10434000B112000804440008B1120008F04300084C
:10435000B1120008DC430008B11200084044000814
:104360005517000868440008551700087C440008E9
:1043700061120008000000005D1C00080000000041
:10438000C50E000800000000AD180008A444000895
:10439000AD18000890440008AD180008B8440008A3
:1043A000024C000800000000704800086E01002068
:1043B00000000000714C00087C490008804900089A
:1043C0007E01002000000000E44B00080000000017
:1043D000000000006C010020600300200F4C00086A
:1043E0008C4800081849000870010020E0030020F4
:1043F0001D4C0008A0480008184900087201002060
:10440000F00300202B4C0008B448000818490008AD
:104410007401002000040020394C0008C84800083E
:10442000184900087601002010040020474C0008BD
:10443000DC4800081849000878010020200400200A
:10444000554C0008F0480008184900087A0100207F
:1044500030040020634C0008044900081849000893
:104460007C01002040040020824C00089049000894
:10447000304A00088001002018000020924C0008FB
:10448000E0490008304A0008820100203000002086
:10449000A24C0008844A00087C4B000884010020DC
:1044A00048000020AF4C0008DC4A00087C4B0008A4
:1044B00086010020A0000020BC4C0008344B0008FE
:0C44C0007C4B000888010020F800002060
:1044CC0000000000C531000800000000C5310008E4
:1044DC0000000000C531000800000000C5310008D4
:1044EC0000000000C531000800000000C5310008C4
:1044FC00E24B0008E90E0008E04B0008E90E00084A
:10450C00DE4B0008E90E0008DC4B0008E90E000841
:10451C00DA4B0008E90E000800000000C531000865
:10452C0000000000C531000800000000C531000883
:10453C0000000000C531000800000000C531000873
:10454C0000000000C531000800000000C531000863
:10455C0000000000C531000800000000C531000853
:10456C0000000000C531000800000000C531000843
:10457C0000000000C5310008D84B0008E90E000807
:10458C0000000000C531000800000000C531000823
:10459C0000000000C531000800000000C531000813
:1045AC0000000000C531000800000000C531000803
:1045BC0000000000C531000800000000C5310008F3
:1045CC0000000000C531000800000000C5310008E3
:1045DC0000000000C5310008B8440008E53D0008A3
:1045EC00A4440008E53D00087C4400089937000805
:1045FC0000000000C531000800000000C5310008B3
:10460C00D64B0008E90E000800000000C531000878
:10461C0000000000C531000800000000C531000892
:10462C0000000000C531000800000000C531000882
:10463C0000000000C531000800000000C531000872
:10464C0000000000C531000800000000C531000862
:10465C0000000000C531000890440008E53D00084A
:10466C0000000000C531000800000000C531000842
:10467C0000000000C531000800000000C531000832
:10468C0000000000C531000800000000C531000822
:10469C0000000000C531000800000000C531000812
:1046AC0000000000C531000800000000C531000802
:1046BC0000000000C531000800000000C5310008F2
:1046CC0000000000C531000800000000C5310008E2
:1046DC0000000000C531000800000000C5310008D2
:1046EC0000000000C531000800000000C5310008C2
:1046FC0000000000C531000800000000C5310008B2
:10470C0000000000C531000800000000C5310008A1
:10471C0000000000C531000800000000C531000891
:10472C0000000000C531000800000000C531000881
:10473C0000000000C531000800000000C531000871
:10474C0000000000C531000800000000C531000861
:10475C0000000000C531000800000000C531000851
:10476C0000000000C531000800000000C531000841
:10477C0000000000C531000800000000C531000831
:10478C0000000000C531000800000000C531000821
:10479C0000000000C5310008684400089937000883
:1047AC0000000000C531000800000000C531000801
:1047BC0000000000C531000800000000C5310008F1
:1047CC0000000000C531000800000000C5310008E1
:1047DC0000000000C531000800000000C5310008D1
:1047EC0000000000C531000800000000C5310008C1
:0C47FC00000000000000000000000000B1
:1048080040420F0006010000404400080600110065
:10481800000000006000000001000000000000002F
:104828000800000010000000180000002000000030
:1048380028000000300000003800000000000020C0
:104848000000000000000B060200000058480008A5
:1048580000000008C74B00082400020700000020E1
:10486800CF4B000820000B11CF3200080733000897
:10487800000000002D1000087B3300080000000035
:104888002B330008FFFF0000001800480600000056
:104898004C00000040000000FFFF0000001400482A
:1048A800050000004C00000020000000FFFF000091
:1048B80000100048040000004C0000001000000038
:1048C800FFFF0000000C0048030000004C0000003F
:1048D80008000000FFFF0000000800480200000078
:1048E8004C00000004000000FFFF00000004004826
:1048F800010000004C00000002000000FFFF000063
:1049080000000048000000004C000000010000000A
:1049180045350008AD330008B9330008CB3300082B
:10492800D5330008DF330008E1120008ED33000832
:104938000000000054440008404400082C440008CB
:104948001844000804440008F0430008DC43000849
:10495800000000000000000000000000000000004F
:10496800000000000000000000000000000000003F
:1049780000000000001002403536000855360008D7
:10498800713600088F36000800800040B4430008E4
:1049980080070000B849000801000000000000007E
:1049A8000000000000000000C0490008BB370008F4
:1049B8005C00000001000000C84900080100000078
:1049C800D0490008020000004C000000000200006E
:1049D8006C0000000000000000380140B4430008EB
:1049E8000E080000084A000801000000000000004E
:1049F8000000000000000000104A0008A537000869
:104A08006000000000400000184A00080100000093
:104A1800204A00080200000087040000000200008D
:104A2800A7040000000000007D390008DF380008F6
:104A3800CF36000855160008F137000883380008FB
:104A480039390008293700083F370008DD370008E2
:104A5800553700086B370008D13700088137000840
:104A6800B514000815150008153900088D37000819
:104A7800913700080000000000000000003C0040E2
:104A8800A44A00089D3C0008010000009C4A000858
:104A9800000000005800000000800000AC4A000838
:104AA80001000000B44A000804000000E60100000C
:104AB80000020000460500008005000066050000B1
:104AC800000400008605000000040000000000004B
:104AD8000000000000380040FC4A0008873C00083D
:104AE80001000000F44A000800000000580000001F
:104AF80000400000044B0008010000000C4B0008B7
:104B0800040000008503000000020000A503000067
:104B180080050000C503000000040000E503000054
:104B28000004000040440008060011000030014065
:104B3800544B0008713C0008010000004C4B000871
:104B48000000000060000000001000005C4B00083E
:104B580001000000644B000803000000A5000000ED
:104B680080050000C500000000040000E50000000A
:104B78000004000079190008313D000800430008CE
:104B8800004300087843000880430008A043000859
:104B9800A0430008010002000400060008000A0003
:104BA8000C001000200040008000000157484F5FB3
:104BB800414D5F49203D203078253032580A004663
:104BC8004C4153485F30005352414D5F30000A0654
:104BD800050504010301020101010001696E746504
:104BE80072727570742D636F6E74726F6C6C65720F
:104BF8004034303031303430300072636340343008
:104C0800303231303030006770696F4034383030BE
:104C180031383030006770696F40343830303134A3
:104C28003030006770696F403438303031303030A0
:104C3800006770696F403438303030633030006757
:104C480070696F4034383030303830300067706900
:104C58006F403438303030343030006770696F401E
:104C680034383030303030300072657365742D63FD
:104C78006F6E74726F6C6C65720073657269616CCB
:104C88004034303030383030300073657269616CD0
:104C9800403430303133383030007370694034304C
:104CA8003030336330300073706940343030303323
:104CB8003830300073706940343030313330303040
:104CC80000000000000000000001020304060708BD
:104CD800096D61696E002A2A2A20426F6F74696E15
:104CE80067205A6570687972204F53206275696C25
:104CF800642076332E372E30202A2A2A0A00286E7E
:104D0800756C6C29002A666C6F61742A00000000BB
:104D1800913100082D060008000000001532000837
:104D28000000000000000000000000002800002033
:104D3800000000000000000000C2010000010300A4
:104D480000000000400000200000000000000000FB
:104D580000C2010000010300000000000000000084
:104D68007C4A00080000000058000020580000207D
:104D7800000000000100000068000020680000201A
:104D8800000000000100000000000000000000001A
:104D9800000000000000000000000000000000000B
:104DA80000000000000000000000000000000000FB
:104DB8000000000000000000D44A000800000000C5
:104DC800B0000020B000002000000000010000003A
:104DD800C0000020C000002000000000010000000A
:104DE80000000000000000000000000000000000BB
:104DF80000000000000000000000000000000000AB
:104E0800000000000000000000000000000000009A
:104E18002C4B0008010000000801002008010020B8
:104E28000000000001000000180100201801002007
:104E38000000000001000000000000000000000069
:104E4800000000000000000000000000000000005A
:104E5800000000000000000000000000000000004A
:104E68000024F4005401002054010020FFFFFFFF3C
:0C4E7800FFFFFFFFFFFFFFFFFFFFFFFF3A
:104E8400000000000000000000000000000000001E
:0E4E9400000000000000000000000000000010
:044EA20015E015E022
:04000005080009499D
:00000001FF
