:020000040800F2
:10000000001E0020012A000849250008ED290008EB
:10001000ED290008ED290008ED2900080000000086
:10002000000000000000000000000000FD2A0008A1
:10003000ED29000800000000C92A0008F53D00086D
:10004000752C0008752C0008752C0008752C00080C
:10005000752C0008752C0008752C0008752C0008FC
:10006000752C0008752C0008752C0008752C0008EC
:10007000752C0008752C0008752C0008752C0008DC
:10008000752C0008752C0008752C0008752C0008CC
:10009000752C0008752C0008752C0008752C0008BC
:1000A000752C0008752C0008752C0008752C0008AC
:1000B000752C0008752C0008752C0008752C00089C
:1000C000752C0008752C0008752C0008752C00088C
:1000D000752C0008752C0008752C0008752C00087C
:1000E000752C0008752C0008752C0008752C00086C
:1000F000752C0008752C0008752C0008752C00085C
:10010000752C0008752C0008752C0008752C00084B
:10011000752C0008752C0008752C0008752C00083B
:10012000752C0008752C0008752C0008752C00082B
:10013000752C0008752C0008752C0008752C00081B
:10014000752C0008752C0008752C0008752C00080B
:10015000752C0008752C0008752C0008752C0008FB
:10016000752C0008752C0008752C0008752C0008EB
:10017000752C0008752C0008752C0008752C0008DB
:10018000752C0008752C0008752C0008752C0008CB
:10019000752C0008752C0008752C0008752C0008BB
:1001A000752C0008752C0008752C0008752C0008AB
:1001B000752C0008752C0008752C0008752C00089B
:1001C000752C0008752C0008752C0008752C00088B
:0801D000752C0008752C0008D5
:1001D800FFFFFFFFFFFFFFFFFFFFFFFFFFFFFFFF27
:1001E800FFFFFFFFFFFFFFFFFFFFFFFFFFFFFFFF17
:0801F800FFFFFFFFFFFFFFFF07
:1002000090F800F06DE9024520F007016FF0000C56
:1002100010F0070491F820F040F049804FF00004FE
:100220006FF00700D1E9002391F840F000F10800D9
:1002300082FA4CF2A4FA8CF283FA4CF3A2FA8CF311
:100240004BBBD1E9022382FA4CF200F10800A4FA78
:100250008CF283FA4CF3A2FA8CF3E3B9D1E90423CC
:1002600082FA4CF200F10800A4FA8CF283FA4CF303
:10027000A2FA8CF37BB9D1E9062301F1200182FABD
:100280004CF200F10800A4FA8CF283FA4CF3A2FAC3
:100290008CF3002BC6D0002A04BF04301A4612BAD1
:1002A000B2FA82F2FDE8024500EBD2007047D1E9D4
:1002B000002304F00305C4F100004FEAC50514F063
:1002C000040F91F840F00CFA05F562EA05021CBF34
:1002D00063EA050362464FF00004A9E753B94AB93F
:1002E000002908BF00281CBF4FF0FF314FF0FF303E
:1002F00000F00CB8ADF1080C6DE904CE00F0A2F8E6
:10030000DDF804E0DDE9022304B07047704700BF68
:10031000844641EA000313F003036DD1403A41D310
:1003200051F8043B40F8043B51F8043B40F8043BCF
:1003300051F8043B40F8043B51F8043B40F8043BBF
:1003400051F8043B40F8043B51F8043B40F8043BAF
:1003500051F8043B40F8043B51F8043B40F8043B9F
:1003600051F8043B40F8043B51F8043B40F8043B8F
:1003700051F8043B40F8043B51F8043B40F8043B7F
:1003800051F8043B40F8043B51F8043B40F8043B6F
:1003900051F8043B40F8043B51F8043B40F8043B5F
:1003A000403ABDD2303211D351F8043B40F8043BFF
:1003B00051F8043B40F8043B51F8043B40F8043B3F
:1003C00051F8043B40F8043B103AEDD20C3205D30F
:1003D00051F8043B40F8043B043AF9D2043208D007
:1003E000D2071CBF11F8013B00F8013B01D30B8879
:1003F00003806046704700BF082A13D38B078DD057
:1004000010F003038AD0C3F10403D21ADB071CBF28
:1004100011F8013B00F8013B80D331F8023B20F892
:10042000023B7BE7043AD9D3013A11F8013B00F8CB
:10043000013BF9D20B7803704B7843708B78837053
:10044000604670472DE9F04786468C460846089E70
:10045000154674461946002B40F0C2808542B2FA18
:1004600082F245D94AB1C2F1200300FA02FC2EFA09
:1004700003F3954043EA0C0C94404FEA154EA8B2A2
:10048000BCFBFEF8230C0EFB18CC08FB00F943EA7A
:100490000C43994528D9EB1808F1FF3704D2994548
:1004A00002D9A8F102072B44A3EB0903A4B2B3FBC2
:1004B000FEFC0EFB1C330CFB00F044EA0344A0429C
:1004C00014D92C190CF1FF3304D2A04202D9ACF19B
:1004D00002032C44241A43EA07401EB1D4400023EF
:1004E00034607360BDE8F0874746DDE76346F1E7B7
:1004F00092BB431B01214FEA154EAFB2B3FBFEFC8A
:10050000200C0EFB1C330CFB07F840EA0343984514
:1005100062D9EB180CF1FF3004D2984502D9ACF146
:1005200002002B44A3EB0803A4B2B3FBFEFC0EFBBA
:100530001C330CFB07F744EA0344A7424ED92C199D
:100540000CF1FF3304D2A74202D9ACF102032C44D0
:10055000E41B43EA0040C0E7C2F1200320FA03F1A4
:10056000954090402EFA03F303434FEA154EAFB285
:10057000B1FBFEFC0EFB1C10190C0CFB07F841EA4A
:100580000041884504FA02F422D969180CF1FF30C1
:1005900004D2884502D9ACF102002944A1EB08013C
:1005A0009BB2B1FBFEFC0EFB1C110CFB07F743EAF0
:1005B00001439F420ED9EB180CF1FF3104D29F4248
:1005C00002D9ACF102012B44DB1B41EA004192E766
:1005D0006046E3E76146F7E76046A3E76346B7E7AF
:1005E000834206D916B9002108467BE7C6E900E038
:1005F000F9E7B3FA83F78FB9834201D3724508D87C
:10060000BEEB020460EB030301209C461EB90021EF
:1006100068E73846FAE7C6E9004CF8E7C7F1200C6E
:10062000BB4022FA0CF41C432EFA0CF120FA0CF316
:10063000B84001434FEA14490EFA07F5B3FBF9F845
:100640001FFA84FE09FB18300B0C08FB0EFA43EA74
:1006500000439A4502FA07F240D9E31808F1FF3047
:1006600004D29A4502D9A8F102002344A3EB0A035D
:1006700089B2B3FBF9F809FB183308FB0EFE41EA17
:1006800003418E452CD9611808F1FF3304D28E4501
:1006900002D9A8F10203214443EA0040A0FB0298DA
:1006A000A1EB0E014145CE46434602D306D14D454E
:1006B00004D2B9EB020E68EB04030138002EA6D079
:1006C000B5EB0E0261EB030101FA0CFC22FA07F311
:1006D0004CEA0303F940C6E9003198E74046C5E714
:1006E0004346D9E7000000002DE9F04F054687B0EA
:1006F000254FBB68029304AA5B68012138469847DE
:10070000002833DBDDE9044A4CF25033A4FB03B28A
:1007100003FB0A2303930399DFF8708018A3D3E93E
:1007200000235846FFF7DAFD4FF0FF39039BD94508
:1007300078EB030306461CD3A5FB04B405FB0A446F
:100740000FA3D3E9002321465846FFF7C7FDD9453B
:1007500078EB040403460CD386420DD300220092AA
:10076000029A0121146838463246A04707B0BDE816
:10077000F08F6FF08500F9E76FF01500F6E700BF26
:1007800000CA9A3B00000000486A0008FFC99A3B73
:100790002DE9F04F85B06D4600AF8AB06C466D4BC9
:1007A000BB60012207F1080104F1140004F069FEA6
:1007B00004F11800062104F06BFE04F11C00142162
:1007C00004F066FE3C2104F1200004F061FE2246A4
:1007D000052342F8103FBB605F4800234FF42351CC
:1007E00001F08EFBAD465D4805F0C2FE50B95C4A93
:1007F0005948012105F00CFA4FF0FF301437BD467F
:10080000BDE8F08F574805F0B3FE08B9564AEFE748
:10081000544805F0ADFE08B9544AE9E7544804F0DD
:1008200040FE034628B1534A4B48012105F0F9F92F
:10083000E2E7514804F035FE034608B14F4AF3E7BA
:100840004F4A4548DFF810A1032105F0E1F90125E1
:100850004FF032084FF0000942F21070FFF744FFEA
:10086000834610B1474A0346DEE76E468CB06C46BD
:10087000454BBB60012207F1080104F1140004F0AC
:1008800000FE294604F1180004F002FE04F11C00E9
:100890003C2104F0FDFD04F12000062104F0F8FDE8
:1008A00007F10801C7E90289022204F1280004F0D7
:1008B000E8FD2246082142F8101FB96044F2C00149
:1008C0005B46504601F01CFB3220B54604F003FEA7
:1008D0005846FFF709FF034608B12C4AA4E78AB03F
:1008E00078606C462A4ABA6007F10801012204F1D7
:1008F000140004F0C6FD294604F1180004F0C8FDF8
:1009000004F11C003C2104F0C3FD4FF47A7104F1A2
:10091000200004F0BDFD2246052142F8101FB960F9
:100920004FF423517B68504601F0EAFA4FF47A7095
:10093000B546013504F0CFFD3D2D8DD1154A064851
:100940003C23032105F06DF94FF47A7004F0C3FDE8
:10095000FAE700BFA6720008C86D0008486A0008E0
:10096000DE720008BC6900080273000824730008E6
:10097000086E000846730008006E00086E730008D9
:1009800096730008AB730008D5730008FA7300086B
:10099000197400084C7400082DE9F04F91B08407D9
:1009A000009302F004030293C2F3C20303F10103B4
:1009B000DDF86890039205460E46059340F0BA8133
:1009C000041D30B1072909D86FF01B0011B0BDE834
:1009D000F08F01F00706341DC6F10806009B4FF0AA
:1009E0000008591E4FF0040A4FF0FF330193CDF871
:1009F00010804746C34653460DB1009A22600598C1
:100A0000002800F3E8809848009A824203D3974870
:100A10008242C0F0E080039AA4EB050E92074FEAF1
:100A20009E0000F103810F2F00F2B180002D00F035
:100A3000058107F140020DEB020C019A0CF8200C25
:100A40000CF8102C049801300490E7E07A285DD867
:100A50004B280ED8472859D829282DD8252852D0D8
:100A600054D820287AD02338D0F1000B4BEB000B60
:100A700074E04C382E2849D8DFE800F07048484828
:100A800048484848484848484B48484848484848E3
:100A90004859484B4B595959704B6D487048184B41
:100AA000184848827F4B48484B487F0000204FF051
:100AB000000B4FF0040A38E02A38C0B2012202FAD3
:100AC00000F010EA0E0F49D110F0625C2FD110EA4D
:100AD000020B43D06046013C5444B4FBFAF40AFBD9
:100AE00004F4002D61D0A3EB050CA444B4453FF6FB
:100AF0006BAF002868D1042B47D159F8043B236021
:100B0000043404232AE0019A013A01924FF0000BC9
:100B100024E011F8010C6C2834D111F8023C0020BB
:100B20006C2B8346C5D14FF0080A5346D3E709F131
:100B3000070929F007090734F9E802AB24F0070494
:100B400035B106982044B0423FF63EAFC4E900AB51
:100B500008344FF0000B4FF0080A534611F8010F0C
:100B6000002878D0BBF1000F7FF470AF2528F5D1B5
:100B7000019B013301934FF0010B4FF0040AECE7A6
:100B8000584694E700208346A5E7082B02D06FF073
:100B900015001BE709F1070929F00709F9E8022305
:100BA000C4E9002308340823D8E768B9042B02D12C
:100BB00009F10409A4E7082BE9D109F1070929F093
:100BC000070909F10809EDE7059A013A059259F874
:100BD000042B009210E7039A900720D5A4EB050E92
:100BE0004FEA9E004FF0010CBEF5007FCFD20F2FD1
:100BF000CDD8F5B107F140020DEB020EC0B2019A5B
:100C00000EF8200C0EF8102CBCF1000F3FF41AAFB8
:100C100060F07F000EF8200C08F101080137C5F1E3
:100C20000802043406924FF6DA7E97E74FF0000C84
:100C3000DAE7BCF1000F01D00136EFE70298023687
:100C40000028EBD10098CDE90631FFF7D9FADDE9AC
:100C500006310644E2E7631BB3F5806F97D23DB9D6
:100C6000A6F10804E018B1E6886800086C7E000868
:100C7000029A28609B082B709DF81030C2B1EB706F
:100C800085F80280B8F1000F05D008A80022C5F150
:100C9000010C97420ED1C5F101030DF120094FF06F
:100CA000000A01930DF1300B574512D1601B8DE600
:100CB0006B70E5E710F8013B190608D504EB0C0E44
:100CC000B64503F07F033FF67FAE04F8013B0132E7
:100CD000DFE7B8F1000F03D099F90020002A17DBF5
:100CE000029BD3B11AF80B2004F8012B0022019BC0
:100CF00098182044B0423FF667AE99F8000004F817
:100D0000010B009903922046FFF702FB039A14445B
:100D10000AF1010A09F10109C6E799F8002055F81E
:100D200022300093029B45F822300098FFF768FAC2
:100D3000421CDCE76FF00D0048E600BF2DE9F04FE4
:100D400097B000AF90F802A0D7F880B03B62CBF329
:100D5000C0030446FA62BB61894641B94578007810
:100D60000AEB800020444D4517D8A0EB0409E37836
:100D7000FB61BAF1000F02D01BF0010F16D1FB6925
:100D800053BBFB6A1BB13A6A4946204698474D4619
:100D900028465C37BD46BDE8F08F461C3046FFF75D
:100DA0002FFA0130304409F10109DCE72378626849
:100DB0007A62FA6A9900796104EB8301002A40F0B3
:100DC00000814D460E4601EB0A094FF000084E45E2
:100DD0004CD101EB0A0610E01BF0020FD1D02378B2
:100DE0009A007A6162687A62FA6A04EB8301002AE7
:100DF00077D14D4601EB0A0690461BF0050F0CBF5C
:100E000002230123FB62FB6906EB430A0BF002039A
:100E1000BB625645BCD016F8021B16F8013C54F8CC
:100E20002390AF4B994502D3AE4B994536D3BB695E
:100E3000002B40D0786A04F084FB00283BD0E946C0
:100E40008AB06A46A84B53617B6AC2E906314FF407
:100E500000731384A54B42F8103FA54800234FF4BC
:100E6000125101F04DF8023DCD46D2E716F8013B94
:100E7000F96254F82300FFF7C3F9D7F88430F96A10
:100E800001304BB1D7F8883098453EBFD7F8843051
:100E900023F8180008F10108054498E7BB6923B15D
:100EA000786A04F04EFB0028C9D11BF0010F05D170
:100EB000FB6AED1AADE7BB6A002BAAD04846FFF7E4
:100EC0009FF9D7F8843053B1D7F8883098453FBFA1
:100ED000D7F88420431C22F8183008F10108054493
:100EE00097E7BAF1000F72D01BF0040672D0D0461B
:100EF000002607F1480052463B61B962FFF708FA45
:100F0000B96A3B6901EB0A02BA62FA69F9695200EF
:100F1000FA60BA6A02EB41023A610BF00202BA606F
:100F20003A69B96A8A4257D162787A621BF0020F35
:100F300032440CBF4FEA580100211BF0010FD2B21E
:100F400040F09F801BF0040F14BF40460020BB619F
:100F50006270A070E1703A6A7969FB6A204698472E
:100F6000051EFFF615AFBB6923707B6A6370FB69D2
:100F7000E37041463A6AFB6A84F802A007F1480030
:100F80009847B0F10008C0F2B5807B693A6AA9EBD6
:100F90000A01C91AFB68C91AD7E90A039847002849
:100FA000C0F2AA80A84408EB00054FF0000B07F13F
:100FB000380AB34567D300213A6AFB6A0846984766
:100FC000E6E656464FF0000807F1380093E756462C
:100FD000D04697E7B04695E7BA6A12F8021BBA62A4
:100FE00012F8015C3E4A54F82500904202D33D4A73
:100FF00090421ED3BA6932B1786A7B6004F0A1FADC
:101000007B6800288CD1BA6802BB08F1280207F17E
:10101000300C08F10100944407F1580252FA80F0B4
:1010200008F102080CF8101C5FFA88F800F8105C50
:1010300076E7BA693AB1786A7B6004F082FA7B6835
:1010400000287FF46DAF1BF0010F09D006F12802D4
:1010500007F13000711C161806F8205CCEB25FE76D
:101060001BF0040F3FF45CAF08F1280207F13000D9
:1010700008F1010102EB000808F8105C5FFA81F842
:101080004EE7002063E71BF80A3087F8373054F842
:101090002390D7F88430FBB133F81B803A6AFB6A9F
:1010A000012107F137009847002825DB0544B8F1F6
:1010B000000F06D14846FFF7A3F800F101081FFA18
:1010C00088F83A6AFB6A414648469847002813DB8D
:1010D00005440BF1010B6CE7D7F88480DEE700BF15
:1010E000886800086C7E0008747400080400000121
:1010F000986D000845464BE6054649E6014B1860E9
:10110000704700BF0000002030B587B00025CDE952
:1011100003010446009503A90548059500F06EF803
:10112000DDE904309842B8BF255407B030BD00BF98
:1011300091550008F0B5094E016802460A270020C3
:101140000B4601311C78355D6D0701D41360F0BD8D
:1011500007FB0043A3F13000F2E700BF8D710008E8
:101160002DE9F84F15469A46D378234A12F803B072
:101170006F2B81460F460BF0030B2BD026D8582B34
:101180000CBF10260A26DDF8288032460023484688
:101190003946FFF7A3F8092A08F1FF38D4B21ED860
:1011A0003034B145E4B277F1000788F8004001D34C
:1011B000D04511D82B789B0605D5082E15D1AB78D4
:1011C00043F00803AB704046BDE8F88F03F0F70327
:1011D000702BD5E70826D6E781460F46D5E7BBF149
:1011E000010F0CBF37345734DBE7102EEBD1AB784F
:1011F00043F01003E6E700BF8D7100082DE9F04FC2
:1012000097B08A46039016461C460025307808B9E8
:10121000284656E325280AD0039B514698470028C4
:10122000C0F24F83731C01350493049EEEE718222D
:10123000002110A804F0C0F87378252B00F0A380DB
:101240000023711C98469E469C4618460F4611F88E
:10125000012B2B2A00F0C68000F2BD80202A00F06E
:10126000C480232A00F0C4802BB19DF8483043F09D
:1012700040038DF84830B8F1000F05D09DF8483094
:1012800043F020038DF84830BEF1000F05D09DF8E3
:10129000483043F010038DF84830BCF1000F05D002
:1012A0009DF8483043F008038DF8483028B19DF888
:1012B000483043F004038DF848309DF8483003F07F
:1012C0004401442903D16FF386138DF848309DF80B
:1012D0004830099743F080032A2A8DF8483040F0BF
:1012E0008C809DF8493043F001038DF849307B1C18
:1012F0001A782E2A9DF849200CBF0121002161F3A4
:1013000041028DF849200CD15A1C09925A782A2A98
:1013100040F083809DF8492042F004028DF8492076
:1013200002331A786C2A00F0A48000F28680682AC2
:1013300000F08C806A2A00F0A5804C2A00F0AA8078
:101340001A4612F8013B0492782B9DF849208DF83B
:101350004B3000F217816D2B00F2A980692B00F24F
:101360001181572B00F2BE80412B03D0453B022B4D
:1013700000F208819DF84A30042262F302038DF8DE
:101380004A300123CAE08DF84B30B31C04939DF81A
:101390004930D90740F1FD8054F8048BB8F1000FB3
:1013A00007DA9DF8482042F004028DF84820C8F181
:1013B00000085A0740F1F68054F804BBBBF1000F57
:1013C00080F2F5809DF849306FF341038DF8493084
:1013D0004FF0FF3BEBE02D2A0DD0302A7FF444AFD5
:1013E000012333E74FF0010C30E74FF0010E2DE7FA
:1013F0004FF001082AE7012028E709A8FFF79AFE25
:10140000099BBB423FF474AF9DF848201390C00F76
:1014100060F341028DF848206AE709A8FFF78AFEC9
:101420009DF848301490C3F3400242EAD07262F350
:1014300041038DF84830099B73E7742A26D07A2A35
:101440007FF47EAF9DF8492006210CE05A78682A87
:101450009DF8492006D1012161F3C6028DF849208B
:1014600002336DE7022161F3C6028DF84920013392
:1014700066E75A786C2A9DF8492001D10421EBE7F0
:101480000321F0E79DF849200521ECE79DF849206C
:101490000721E8E7BDF8482022F4F04222F00202DA
:1014A00042F4804242F00202ADF84820DFE76E3B92
:1014B000D9B201238B4040F282410B4238D113F064
:1014C000240F52D1DF075DD59DF84A30032161F327
:1014D00002038DF84A3002F07803A3F14000434242
:1014E00043411BE0A3F15801C9B2012000FA01F108
:1014F00011F4624F7FF43EAF40F6010739421DD12F
:1015000011F4043F3ED09DF84A3060F3020302F02C
:101510007802402A8DF84A3034D000239DF84820C4
:10152000C2F340010B4363F341028DF848202EE7DC
:101530009DF84A30022161F30203E8E79DF84A1062
:10154000022002F0780260F30201402A8DF84A106E
:1015500002BF9DF8481041F001018DF84810632B3F
:10156000DBD1131E18BF0123D8E79DF84A300321B1
:1015700061F3020312F0780F8DF84A3014BF012393
:101580000023CBE79DF8483043F001038DF8483045
:10159000C3E79DF94820002AB4BFDDF84C804FF026
:1015A000FF3806E79F077FF513AFDDF850B09DF8D1
:1015B00049100023CDE913339DF84A3003F00703A7
:1015C000012BC1F3C30132D1CB1E042B04D8DFE8B9
:1015D00003F0204545202000236801294FEAE372EB
:1015E000CDE910321BD19DF94030DA17CDE9103228
:1015F00004349DF8483013F003074FD0049B039840
:101600003246514603F0FAFF0028C0F25A810544E1
:101610000BE654F8043BDA17CDE91032E9E702296A
:10162000E6D11AB243F3C033CDE91023E0E7022B31
:1016300024D1CB1E042B04D8DFE803F018101018B7
:101640001800012954F8043B4FF0000214D002297D
:10165000CDE91032CDD19BB21093CAE7073424F004
:101660000704F4E80223CDE91023C2E754F8043B51
:10167000109300231193BCE7DBB2CDE7042B08D114
:10168000073424F00704D4E900230834CDE91023FB
:10169000AFE7032BADD154F8043BDDE79DF84B00D9
:1016A00078283FF6C2AD62281ED8252850D0582889
:1016B0007FF4BBAD0DF13E030093DDE910010AABF1
:1016C00012AAFFF74DFDBBF1000F814680F2C280E8
:1016D000B9F1000F3FF4A9AD0DF13E06A6EB0903E9
:1016E000002F7BD0013379E0633815283FF69DAD9C
:1016F00001A252F820F000BFCB17000829180008FB
:101700002B1200082B1200082B1200082B120008C5
:10171000291800082B1200082B1200082B120008B1
:101720002B120008771800084F18000889170008C6
:101730002B1200082B120008611700082B1200085A
:101740004F1800082B1200082B1200084F18000831
:10175000039B514698470028C0F2B380013564E5E9
:10176000BBF1000FDDF840900ADB5946484603F014
:1017700075FEB9F1000F3FF458AD09EB000620E00B
:101780004846FEF73DFDF8E71098002800F08780F6
:101790000DF13E060AAB009612AA0021FFF7E0FC0D
:1017A000BDF84A3003F0EF0343F4F04343F0100375
:1017B000BBF1000F8146ADF84A304ADA00283FF409
:1017C00034ADA6EB0903002708E0109B8DF8283004
:1017D00000270DF129060DF1280901239DF84A1073
:1017E00011F01002069260D00233139A059213444E
:1017F0004A0644BF14995B18B8F1000F6EDDA8EBE0
:1018000003089DF848305807C3F3800B66D4590687
:101810005AD53FB1039B514638469847002850DBC4
:1018200001355F46302350E01E075CBFC3F3001351
:101830005F01DDE9102348BF2B27002BBFF63AAF2D
:10184000524263EB4303CDE910232D2732E70027F3
:1018500030E700279DF848100DF13E03A3EB090384
:101860006FF386119B458DF848107FF631AFABEBD7
:10187000030313932CE7109B07293FF6D6ACDFE850
:1018800001F00C04060C08080C0C1D70CDE41D8042
:10189000CBE4EA17C3E90052C7E41D60C5E4314E4A
:1018A0000746A6F10509052398E7080748BF013355
:1018B0009BE7184607935146039B98470028079BD0
:1018C00004DA17B0BDE8F08F2023C346594600293B
:1018D0000BF1FF3BEDDC45446D1AD84637B1039B55
:1018E0005146384698470028EBDB01359DF84A30D1
:1018F000DA0601D41B0706D5039B514630209847D2
:101900000028DEDB0135069B3BB19DF84B00039BB5
:10191000514698470028D4DB0135059F2F4406E047
:10192000039B5146302098470028CADB01357B1BBA
:10193000002BF5DC039833464A46514603F05EFE21
:101940000028BEDB0544A844A8EB0503002B7FF765
:101950006CAC039B5146202098470028B1DB013531
:10196000F2E700BF2D750008034A536823F0020315
:1019700053600020704700BF002004E0134B1A683A
:1019800042F400721A601A6842F480621A601A689F
:1019900042F480721A600E4B0E4A1A600E4A536867
:1019A00043F0010353600D4B9A6D42F080529A65EB
:1019B0009B6D0B4A82B003F080530193019B9368A7
:1019C000002043F48043936002B07047002002403F
:1019D0005C0000200024F400002004E0001002401D
:1019E000007000402DE9F047DFF8588004460746B4
:1019F0004FF0010914B93846BDE8F08794FAA4F510
:101A0000B5FA85F509FA05F32E0108EB05156FEA1D
:101A1000030A24EA03042B7B002BEBD058F8063092
:101A20001B694BB94644042273682846196807EAC3
:101A30000A0700F051FADDE7284698470028D9D177
:101A4000F0E700BFE86D000830B51049104889B0D4
:101A5000002204F0EDFE0F4D0F4900220023CDE9D6
:101A6000062300240E23CDE90334CDE901440B4BBA
:101A700000944FF44072284602F07EFF0849284641
:101A800004F0C9FD204609B030BD00BFA51A00080A
:101A900070050020E800002000090020851D0008D6
:101AA0002E750008014802F0DFBE00BFD8000020FC
:101AB0002DE9F04780461E480F4604F01BF8064605
:101AC00078B300252846BDE8F087237B6BB12368F7
:101AD000DB680BB12046984723681B69CBB9636864
:101AE00004221968204600F0F7F9013610344C45FD
:101AF000EBD3B8F1000FE5D0002DE2D02846FFF778
:101B000071FF0546002FF7D00021642003F0A0F9F3
:101B1000F2E7204698470028E1D00AFA06F31D4371
:101B2000E3E7044CDFF8109005464FF0010ADEE7CA
:101B300068070020E86D0008F86D0008014B53F8B5
:101B400020007047246E000808B5034608462BB1F4
:101B5000044A136000F06EFC002008BD6FF0150011
:101B6000FBE700BF0400002010B5044C237813B934
:101B7000034802F079FE0123237010BDCC08002039
:101B8000D800002010B50446084803F0B3FF5CB14C
:101B9000BFF35B8F064B53E8001F013943E8001287
:101BA000002AF8D1BFF35B8F10BD00BF6007002093
:101BB000640700200020064BBFF35B8F014653E80B
:101BC000000F43E80012002AF9D1BFF35B8F704782
:101BD0006007002070B5FFF7EDFF084C084E054682
:101BE000B44200D370BD63685B792BB123685B6836
:101BF00013B12946204698471034F1E7E86D0008F4
:101C0000F86D000810B5044C0449204603F007FEA7
:101C1000034B1C6010BD00BF98000020106E000830
:101C200058070020084A094808B500231370084ADD
:101C30001360084A4FF47A711360FFF785FFBDE81F
:101C40000840FFF7DFBF00BFCD0800200F5B000892
:101C5000600700206407002001460022014800239D
:101C600003F0FEBD98000020014803F094BE00BFC1
:101C700098000020024B0146186803F0E0BE00BF48
:101C800058070020014803F015BF00BF980000204E
:101C900070B5254B1878002844D0FFF7E5FF0546BE
:101CA00090B1BFF35B8F214B53E8001F013943E82C
:101CB0000012002AF8D1BFF35B8F1D4C1D4EB442B9
:101CC00026D32846FFF7D6FF1B4B1C4C1B68002B66
:101CD00012DD04F0ABFD0A220023FEF7FFFAD4E97F
:101CE0000032C01A40F2E93361EB0201984271F10F
:101CF000000101D3FFF76EFFD4E9003213F57A73C8
:101D000042F10002C4E90032BDE87040FFF7BABFFB
:101D100063685B7923B1236829461B68204698478E
:101D20001034CCE770BD00BFCC0800206407002051
:101D3000E86D0008F86D00086007002068050020C5
:101D400070B50D4D297861B90120FFF7B1FE0B4C3C
:101D50000B4EB44206D3FFF79BFF0028FBD10123B3
:101D60002B7070BD63685B791BB1236820469B684C
:101D700098471034EDE700BFCD080020E86D00085B
:101D8000F86D000800212DE9F0470846FFF790FEA6
:101D9000044648B34FF4FA784FF0000903F076F8A0
:101DA0001A4B186030B11A4B1B68092B02DD194819
:101DB00002F05AFD184FDFF85CA0002544B1204620
:101DC000FFF710FE044618B94FF0FF384FF0FF3907
:101DD000FFF75EFF064628B9B5B942464B46504666
:101DE00002F066FD3546E9E74FF0FF384FF0FF3966
:101DF000D4E72B689B691BB10022114628469847FF
:101E00001035BD42F5D3E8E7044DFAE75C07002042
:101E100064070020D8000020F86D0008E86D000875
:101E200013B5184803F066FE174B1B7873B1EFF338
:101E30001184102383F31288BFF36F8FFFF728FFFD
:101E400084F31188BFF36F8F02B010BD0F4B1B6876
:101E5000002BF9D050B900220023CDE900230C4813
:101E600042F21072002303F067FAEDE70928EBD184
:101E7000074804F0E9FC074802B0BDE8104002F052
:101E8000F3BC00BF64070020CD0800205C070020E1
:101E900070050020D800002010B5064B1B680446D2
:101EA00098472146A060044803F056FDBDE8104065
:101EB000FFF7B6BF0400002098000020044A054B3D
:101EC0009B1AB1EBD30F34BF52F83100002070479A
:101ED000986D0008E86D0008084BC31A10B41B1178
:101EE00044680133237143689A71436819604368F9
:101EF00001225A7110BCFFF737BE00BFE86D000821
:101F00002DE9F04F8FB004AFC1F34A28B8600D46F9
:101F100091467B600C0DB8F1000F63D0002607F1ED
:101F200014034FF0040B4FF00A0AC7F80C80C7E9FE
:101F300007667E620193CDF808B0CDF800A007F1E6
:101F40001C03F96832464846FEF7F8FEB0F5006F0C
:101F500003461CD36C468AB0D9F8041004AB26485B
:101F6000C3E9050140F2FF71D9611A464FF40071CF
:101F70001984224B42F8103F214833464FF4125146
:101F8000FFF7BEFFA5462C37BD46BDE8F08FC0F376
:101F90000A0804F11700184420F0070080083B608D
:101FA000FFF75AFE68F35325044690B13B68154A83
:101FB000C7E9083600F1100107F11403F961CDE912
:101FC00000A3CDF808B0F96807F11C034846FEF7F6
:101FD000B5FE68F353257B68B9682A46204603F0AE
:101FE000C7FDD0E704F1170020F007008008FFF7D5
:101FF00033FE0446EDE700BF43750008040000010E
:10200000A06D0008455B00082DE9F04F87B0DDE9C1
:102010001279DDE9105A0446039193469846BFB100
:10202000CDF800903B46524610210020CDF8149088
:10203000FEF7B2FCB0F5006F06460AD3184A1948FD
:1020400040F2FF73022107B0BDE8F04F03F0E9BD95
:102050003E4605F11700304420F0070004F0070465
:102060008008FFF7F9FD0BF0070BE40044EA8B143E
:1020700044EA462444EA0554054640B13FB1CDF850
:1020800000903B46524631461030FEF785FC0399DE
:1020900043462246284607B0BDE8F04F03F068BD2E
:1020A00082750008A06D0008406820B1034BC01A7B
:1020B00040F3CF0070474FF0FF307047986D000835
:1020C0000EB403B503AB014653F8042B0448019347
:1020D00003F0BFFD02B05DF804EB03B0704700BF32
:1020E0007B5C0008CA0605D48B064CBF0249034935
:1020F000FFF7E6BF704700BFBB750008BA75000860
:102100002DE9F04F89B09A46149B06939DF84CB088
:10211000159B0593169B179E049304460D46904607
:10212000BBF1000F00F09D8006F48073079303F06D
:1021300007FD06F00209024600283ED092492046DB
:10214000FFF7BEFF0746B9F1000F08D016F0440FA5
:1021500035D18E492A462046FFF7B2FF074406F0E4
:10216000010353B18A4B8B4953F82B208A4B2046ED
:10217000002A08BF1A46FFF7A3FF06F48073002B5E
:1021800049D006F00803002B63D1B8F1000F66D0E8
:10219000824942462046FFF793FF0546069B3D4491
:1021A000002B6DD1049B002B73D1F30700F1E58068
:1021B00031462046FFF796FFD9E00746C3E7784B44
:1021C00018680028CAD0774B4FF47A791B68B5FBA2
:1021D000F3F54FF46161B5FBF0F300FB135509FB18
:1021E00005F54FF03C0CB3FBF1F201FB1231B5FBEE
:1021F000F0FEB1FBFCF300FB1E550CFB131109FBB9
:1022000005F50091B5FBF0F56749CDE901E52046FC
:10221000FFF756FFA2E706F00803EBB1634B6449F2
:1022200053F82B202046FFF74BFF0546B8F1000F6F
:1022300005D05A4942462046FFF742FF0544BAF10D
:10224000000FABD05B4952462046FFF739FF0544EB
:10225000A4E74FF0000AE1E706F00805E6E7454687
:102260009CE7BAF1010F069B06D1002B65D1049BB8
:10227000002B7CD000250CE0002BF8D04E485DE010
:102280004E48069B4E49224603F02AF9049B002B38
:1022900069D0DFF83081DFF83091049F3146102F8C
:1022A000204628BF1027FFF71DFF4FF0000A5545B5
:1022B00046DC059B49461A782046FFF701FF4FF0A0
:1022C000010A1AF0070F03D141462046FFF7F8FE36
:1022D00057453CD9059B494613F80A202046FFF78D
:1022E000EFFE0AF1010ABAF1100FEAD13749204690
:1022F0004FF0000AFFF7E4FE5246059B9A5C344B10
:10230000995C11F0970F08BF2E2232492046FFF743
:10231000D7FE0AF1010ABAF1100F1DD01AF0070F0B
:1023200003D141462046FFF7CBFE57455246E4D83D
:1023300041462046FFF7C4FEEBE720485D46A0E794
:1023400041462046FFF7BCFE0AF1010AAFE72249E9
:102350002046FFF7B5FEC4E7059B3B440593049B6D
:10236000DB1B049399D1BBF1000F7FF41EAF204615
:1023700009B0BDE8F04F03F073BC074A0549204699
:10238000FFF79EFE14E700BFC2750008C67500087F
:10239000346E0008EB750008BD750008EE75000886
:1023A000700700206C070020CF750008486E0008F9
:1023B000F2750008F8750008B15C00087B5C000845
:1023C000535C000805760008FD75000807760008D4
:1023D0008D710008097600080376000873B542F293
:1023E0000F738B4228BF0B4605680F4A0446052130
:1023F000684603F0ECF863680C495B6806460B22FC
:10240000284603F018FC63683246694628465B6834
:1024100003F011FC636806495B681B22284603F041
:102420000AFC02B070BD00BF1977000828760008CA
:102430000C760008074A00210123904206D8064A7C
:1024400001B901231360054B1860704740085B0019
:102450000121F2E740420F006C07002070070020C6
:10246000F8B5074F0D4604464618B44201D1284638
:10247000F8BD14F8011BBB6801485B689847F4E796
:10248000F8690008014B036000207047906E000857
:102490002DE9F047064600AF0C46002936D0E94644
:1024A0008AB0D1E90012A3686D462148A8464FF0D2
:1024B000050AC5E90501C5E9072348F810AF1D481D
:1024C000424600234FF42151FFF71AFDCD46D4E9CF
:1024D00003126369AD461848C5F810A0C5E90501A7
:1024E000C5E907231348002342464FF42151FFF763
:1024F00007FDCD46E369114A0E48012103F091FB27
:10250000A3690F4A0B48012103F08BFB012E07D171
:10251000EFF305830B4A0748103B314603F081FB7C
:102520002146304601F0E6FFBD46BDE8F08700BF1A
:102530006E760008C06D00089D760008CC76000815
:10254000DB7600080977000808B5034B1B6898473D
:10255000BDE8084000F006B81000002030BFFFF7CB
:10256000FDBF00BF074A936893F90E10002907DBEF
:10257000526993421FBF044A536843F0805353602B
:10258000704700BF9C08002000ED00E070B5294CAA
:1025900006460D462848294903F0F9FBA36AD904E9
:1025A0003CD52548264903F0F2FB1720A36A1A05FB
:1025B00004D52148234903F0EAFB18201D4CA36AE7
:1025C0009B0512D51C48204903F0E1FBA36BA26ACE
:1025D000100409D51D4A1848012103F022FB1EB141
:1025E000A36A23F40043A3621920124CA36A59057D
:1025F00004D51148164903F0CAFB1A20A36ADA056C
:102600000ED50D48134903F0C2FB1B20094A936AFB
:1026100043F47F43936200232B7070BD1620C5E7FF
:10262000A36A9B04F2D504480B4903F0B0FB1C20BD
:10263000ECE700BF00ED00E0C06D00081C7700086B
:102640003277000843770008567700086F77000854
:10265000847700089F770008B777000810B5204CF2
:102660002049214803F093FBA36A990136D51E48FF
:102670001E4903F08CFB1E20A36ADA0104D51A4818
:102680001B4903F084FB1F20154CA36A1B0304D5D0
:102690001548184903F07BFB2120A36A590304D590
:1026A0001148154903F073FB22200D4CA36A9A03CD
:1026B00004D50D48114903F06AFB2320A36ADB030C
:1026C00004D509480E4903F062FB2420044A936AAA
:1026D0006FEA03436FEA1343936210BD1D20CBE7FB
:1026E00000ED00E0E6770008C06D0008FE77000806
:1026F000117800082B780008497800086E780008E7
:10270000887800082DE9F843364D804689463648DA
:102710003649174603F03BFBAB6ADE0627D5344942
:10272000314803F034FB1124AB6A1D0704D531494D
:102730002D4803F02CFB12242A4DAB6A980718D5BC
:102740002D49294803F023FB6E6BAB6A190646D569
:102750002A4A25483346012103F063FAB9F1000FF4
:1027600003D0AB6A23F08003AB62132403E0102490
:10277000DAE76FF015061B4DAB6ADA0704D520497E
:10278000194803F004FB1424AB6A9B0604D51D49C9
:10279000154803F0FCFA1524124B9A6AD50602D4A8
:1027A0009A6A90070AD55B68190507D541463046F5
:1027B00000F01AFA10B180F309880224094B9A6AD2
:1027C000920642BF5A6A22F400525A629A6A42F052
:1027D000FF029A6200233B702046BDE8F8836FF049
:1027E0001506C2E700ED00E0C06D0008B3780008F0
:1027F000C978000843770008FC78000814790008BD
:102800002A790008B77700082DE9F041664B8AB0B5
:10281000D3F8048000AF0446C8F30805002686F309
:102820001188BFF36F8F02F07F43B3F17F4F07D161
:1028300002F00C03082B12D15C495D4803F0A7FAA3
:10284000002634460023FB71EB1E092B00F28A8020
:10285000DFE803F00A80837D8888888888861007EF
:102860004CBF0C460126EDE7524951484E4D03F04E
:102870008EFA0023FB71EB6A9A0705D54E494C4846
:1028800003F085FA002333E0EB6A002B01DA4B49B1
:10289000F5E7EB6A5B00F5D54949454803F077FA5F
:1028A0006B69A26943F480736B61BFF34F8FBFF311
:1028B0006F8F6B6932F8022C23F480736B61BFF366
:1028C0004F8FBFF36F8F4DF602739A4209D0AB6AF8
:1028D000DBB27BB3FA1D01212046FFF713FF03464D
:1028E00006E02368374A3248012103F09AF9236849
:1028F000FA79DAB907F1080504F1200C206861685B
:102900002A4603C2083464451546F7D17A6A002E78
:1029100044D0C2F3080121B96FEA52226FEA422281
:102920007A6207F108011846FFF7B2FD2837BD4665
:10293000BDE8F081AB6A13F47F4F04D0F91D01208C
:10294000FFF724FECBE7AB6AB3F5803F9AD3FFF7DE
:1029500085FEC4E7FA1D0021BEE7F91D0020EFE760
:1029600019498CE7194A1A4B18F4F87FE8468AB0DF
:1029700018BF13466A461749C2E905134FF400739E
:102980001384103D144BD56142F8103F08480023D2
:102990004FF41151FFF7B4FAC54673E722F4FF7202
:1029A00022F00102BCE700BF00ED00E077790008EB
:1029B000C06D0008A2790008B9790008DA7900082A
:1029C000E8790008077A0008237A00085E79000891
:1029D00049790008477A000804000001024A536957
:1029E00043F010035361704700ED00E0EFF30880FF
:1029F000EFF3098101B57246FFF706FF01BD00BF85
:102A0000102080F3118808484FF40461401880F3C7
:102A10000988EFF314800221084380F31488BFF380
:102A20006F8F00F0A1F80000400C0020084B9B685D
:102A300083420BD1EFF3058343B1064B5A6842F052
:102A400080525A605A6A22F400425A6203F0B3BEBE
:102A50009C08002000ED00E0094A93686FF00A012D
:102A60009967084958674B6843F080534B600023CF
:102A700083F31188BFF36F8F9368986F704700BF1F
:102A80009C08002000ED00E010B50446EFF3118330
:102A9000102383F31288BFF36F8F094B5869986036
:102AA000084B4FF000625A600022436F426783F385
:102AB0001188BFF36F8F00F0FBF8204610BD00BFF8
:102AC0009C08002000ED00E00B498A684FF03000C0
:102AD0001044EFF3098C80E8F01F74467046FFF74E
:102AE000D3FFA64604498A6802F1300090E8F01F3F
:102AF0008CF30988704700009C0800201EF0040F2A
:102B00000CBFEFF30880EFF30980816911F8021C14
:102B10000229FFD001B503F036F901BD40B200280B
:102B200007DB044A4109012300F01F00834042F8FB
:102B30002130704700E100E040B20028A8BF00F15A
:102B4000604001F10101B8BF064B4FEA0111ACBF73
:102B500000F5614000F00F00C9B2B4BF195480F80D
:102B60000013704714ED00E00F4A08B50F4B22F038
:102B70007F029A60BFF34F8FBFF36F8FD3F8882027
:102B800022F47002C3F88820EFF3148323F00403C7
:102B900083F31488BFF36F8F01F098FD02F002FAFF
:102BA00000F05CF801F0D6FD0000000800ED00E048
:102BB00042F8203C009B42F81C3C0A49019B42F829
:102BC000183C029B42F8143C21F001014FF0807345
:102BD00042F8043C42F8081C0023203A026543678F
:102BE000704700BFE9550008094A0346906870B174
:102BF00013F1160F406E05D0A0F140029A4205D89D
:102C0000834203D2814228BF0020704700207047D2
:102C10009C08002008B50B4B0E461546986000F046
:102C200047F82C4686F309884FF00000064B98477A
:102C300020464FF000014FF000024FF00003034C1C
:102C4000204700BF9C0800209F5D0008E955000850
:102C5000014B10221A61704700ED00E00448002388
:102C60001021C2180133662B82F80013F9D1704786
:102C700000E100E008B5EFF30583064A103B02EBE4
:102C8000C30152F8330049688847BDE80840FFF7A0
:102C900069BC00BF5C6A0008024B034A034801217B
:102CA00000F08AB80000022000000020906E0008AA
:102CB000426E054B403A1A60044A4021C3E90112B2
:102CC0001846012100F082B89807002000000B157B
:102CD00008B503461048D0F89020C2F30722013A05
:102CE000934207D90D480E4A012102F09AFF6FF076
:102CF000150008BDC0F898300A6822F01F021A4378
:102D000042F01002C0F89C208A6842F00102C0F82C
:102D1000A0201846EDE700BF00ED00E0B86D000808
:102D20005E7A0008F0B50E4685B01F4604460025C1
:102D3000B5420DDA606810B397B1431E18420AD04D
:102D4000104A11482B46012102F06BFF6FF015026B
:102D5000104605B0F0BD1F28F2D921680B42EFD113
:102D60002368019303F02FF8A36801A90343D0B2AD
:102D70000393FFF7ADFF10F1160FE7D0421C0135AA
:102D80000C34D5E7847A0008B86D0008044B05229E
:102D9000C3F89420BFF34F8FBFF36F8F704700BF0E
:102DA00000ED00E0BFF35F8F024B0022C3F89420D8
:102DB000704700BF00ED00E010B5034C01232278FE
:102DC000FFF7B0FF207010BDCF08002008B50B4AF8
:102DD00000231278FFF7A6FF10F1160F07D0084A5C
:102DE0000021D2F89030C3F30723984200DB08BDDE
:102DF000C2F89800C2F8A0100130F2E7CF08002016
:102E000000ED00E02DE9F04357485849D0F89030E4
:102E10000D68C3F307239D4285B000F2A180FFF740
:102E2000C1FF49680022954201F10C011AD1504CB2
:102E3000504F25706846FFF725FBDFF83C81DFF82F
:102E40003C9106460025AE421FD12378464900201A
:102E5000D1F89020C2F3072293427BDBFFF796FF65
:102E600000204CE0C0F8982051F80C3C23F01F03E0
:102E7000134343F01003C0F89C3051F8043C43F076
:102E80000103C0F8A0300132CDE7009800EB051136
:102E90004FEA051CCB683B40B3F5000F44D00AD87D
:102EA000B3F5001F2ED0B3F5800F34D0B3F5801FDB
:102EB00010D00135C7E7B3F1807F3ED0B3F1007F7A
:102EC000F7D150F80C3088684A6802F07CFF40F473
:102ED000802009E050F80C3088684A6802F073FFDF
:102EE00040F0885040F43020039001A92078CDE9CB
:102EF0000123FFF7EDFE002828DA6FF0150005B07A
:102F0000BDE8F08350F80C3088684A6802F05BFF37
:102F100040EA0800E8E750F80C3088684A6802F098
:102F200052FF40EA0900DFE750F80C3088684A6831
:102F300002F049FF40F08270D6E750F80C30886804
:102F40004A6802F040FF40F08870CDE723780133F3
:102F50002370AEE7C1F89830C1F8A000013377E7DD
:102F60004FF0FF30CBE700BF00ED00E09C6E0008A3
:102F7000CF0800200000F0FF000008110000020749
:102F8000014B1860704700BF140000202DE9F0418C
:102F90000F4E104F054600244FF001082B7853FACE
:102FA00084F01F280DDC726908FA00F333EA02028C
:102FB00007D1736157F830301BB107EBC00251687D
:102FC00098476A780134E3B29A42E7D2BDE8F081CB
:102FD00000040140A4070020044B184400230133DF
:102FE000994200F8012BFADC704700BF680000200E
:102FF00010B4064B064902460C681856012393404C
:1030000023430B6010BCFFF789BD00BF68000020A0
:10301000000401401F2806DC034901220B6882409E
:1030200023EA02030B6070470004014003292AD8F9
:10303000DFE801F0020E141F134B01229968824051
:1030400021EA02019960D96821EA0202DA60704738
:103050000D4B0122996882401143F3E70A4B01228C
:10306000D96882401143D960996821EA02029A60C6
:103070007047012303FA00F0034B9A6802439A60F9
:10308000DA681043D86070470004014030B50A4B3D
:1030900053F830408C4204D103EBC0056D68954273
:1030A00005D034B943F8301003EBC0035A60002058
:1030B00030BD6FF00F00FBE7A4070020034B002298
:1030C00043F8302003EBC0035A607047A407002088
:1030D00010B5214B18680B68082B144616D00B2B23
:1030E0000BD89BB1013B0A2B10D8DFE803F0171671
:1030F0002E163331160F1A252500582B0ED008D85E
:103100004C2B0BD0502B09D0482B07D06FF08500EB
:1031100006E05C2B02D0602BF7E700202060002047
:1031200010BD00F0C1F80623B0FBF3F0552358435F
:103130000723B0FBF3F0F1E700F0B6F80623B0FB8D
:10314000F3F0552358434008E8E74FF4FA40E5E729
:103150000248E3E70248E1E75C00002000366E0128
:10316000006CDC02F8B54C4F4C4C00F0BBF8384614
:1031700002F004FF00F002FFA368494AC3F30313FF
:103180001578D35C05F01F0503F01F0320FA03F642
:1031900047FA05F5AE4202D2284601F02DF9236820
:1031A00023F480232360236843F48033236023685F
:1031B0009A03FCD5D4F8943043F00103C4F894305A
:1031C000D4F894309B07FBD5D4F8983043F0010332
:1031D000C4F89830D4F898309807FBD5A36803F06A
:1031E0000C030C2B18D12368590506D4236843F42B
:1031F0008073236023685A05FCD5A36823F003037A
:1032000043F00103A360A36803F00C03042BFAD17D
:10321000A36823F0F003A360236823F08073236086
:10322000E36823F0605323F4003343F06053E3601A
:10323000E36843F48033E360E36823F4C003E360AE
:10324000E36843F48013E36000F032F8236843F04E
:103250008073236023689B01FCD5A36823F0F003EF
:10326000A360A36843F00303A360A36803F00C0307
:103270000C2BFAD1AE4202D3284601F0BDF8094B1F
:103280001F60A36823F4E063A360A36823F4605382
:10329000A3600020F8BD00BF80FE210A001002409C
:1032A0005B7D00085C0000200048704700366E011E
:1032B0000A4AD2F8803023F48073C2F8803002F5D5
:1032C000D032074BD1680B4043F4AA4343F0530379
:1032D000D360D36843F08073D360704700700040C0
:1032E0000C80FFF9064B9A6D42F080529A659B6DF7
:1032F00082B003F080530193019B02B0704700BF7E
:103300000010024008B5074803F032F938B106480A
:10331000FFF736FE0448FDF7F1FE002008BD6FF010
:103320001200FBE7F86900082D3300080A2838B5B9
:10333000074D044604D1AB680D215B6828469847C9
:10334000AB6803485B68E1B29847204638BD00BFD0
:10335000F869000838B5036904465860084D2846E6
:1033600003F006F940B16168AB680C311B68284670
:10337000984700EAE07038BD6FF01200FBE700BF2D
:103380003069000873B50C461146B1F5001F456859
:1033900002691E4628D104F0030304339B000F2268
:1033A0009A4042EA940202F003030233374951F88B
:1033B0002310130C93FAA3F3B3FA83F301EA124236
:1033C00003F01F0322FA03F3AA689A4209D12046A8
:1033D000FFF720FE2046FFF771FE00212046FFF791
:1033E00025FE002002B070BDB1F5800F44D0284901
:1033F0002046FFF74BFE002841D1B6F1806F37D051
:10340000B6F1C06F36D0B6F1007F3BD10226214A1B
:10341000AD6892E803006B4683E803001E488268AB
:10342000194612689047D8B904F0030304339B008F
:103430000F21994041EA940101F003039B0003F13D
:10344000804303F580330A0C986892FAA2F2B2FA2C
:1034500082F202F01F0220EA114195400D439D6067
:1034600020463146FFF7E2FD2046FFF7C1FDB8E7F1
:103470000126CCE70326CAE76FF08500B2E76FF0BC
:103480000F00AFE76FF01500ACE700BF0000014090
:1034900089610008F86D0008306900082DE9F047DF
:1034A0001E4F044600EBC1060025B44201D10020A6
:1034B00014E02068C30600F01F0911D4656845F0C8
:1034C0002005C0F3481AC0F344200F2823D857F82A
:1034D0002080B8F1000F0DD16FF01200BDE8F08729
:1034E000B9F1100F04D0B9F1110FEAD16568E8E71E
:1034F0003025E6E7404603F03BF80028ECD04B4689
:103500002A460AF00F01404602F055FE002804F159
:103510000804CADAE2E76FF01500DFE7886F0008F9
:10352000B1F5807F28D016D8102927D00FD80129CF
:1035300026D0042908BF012318BF09231349026AB2
:10354000C85C02238340134023FA00F070474029EF
:1035500008BF0323F0E7B1F5804F13D007D8B1F5CA
:10356000806F11D0B1F5805F08BF0623E4E7B1F5A5
:10357000803F08BF0823DFE70423DFE70223DDE7FE
:103580000023DBE70723D9E70523D7E75F7C0008A3
:103590002DE9F04701F1FF3C88B0BCF1050FBDF803
:1035A00040704568164698460AD98D4A0B468D48A4
:1035B000012102F036FB6FF0150008B0BDE8F0877E
:1035C0002B68B3F1804F06D0874A934203D0B6F5FB
:1035D000803F00F20181854A042952F82C4007F40B
:1035E000807A0BD9BAF1000F11D12046D146AEB97D
:1035F0001A6A22EA00021A620020DEE77C4A52F8C8
:103600002C90BAF1000F05D0B9F1000F04D1794A1E
:103610000B46CCE72046EAE74846E8E7AA6862BBE3
:10362000013E1A6A07F0010730EA02024FEA470733
:103630004AD1B0F5807F00F0C58032D8102800F064
:10364000C3802AD8012800F0C180042808BF0122C5
:1036500018BF09226848196A805C0222824021EA68
:103660000202874017431F62644B286853F82C30CE
:10367000414698472B68DE62BEE7102A02D108F166
:10368000FF38CDE722F04001202902D0402A40F047
:10369000A3804FEA58087608C3E7402808BF0322F2
:1036A000D6E7B0F5804F00F0938008D8B0F5806F72
:1036B00000F09080B0F5805F08BF0622C8E7B0F543
:1036C000803F08BF0822C3E7684602F046FF602338
:1036D00000930123BAF1000F1ED0029305972B68C7
:1036E0001B6A34EA03030CBF0123002301932868FB
:1036F0002146FFF715FF0490CDF80C8028686A4634
:10370000214600F0CDFCD0B136483D4A012102F0FF
:103710007FFA6FF0040050E701930497B9F1000FAE
:10372000EAD02B681B6A39EA03030CBF012300238C
:10373000029328684946FFF7F3FE0590DCE72A6804
:10374000136843F080031360B4F5807F2A6831D09A
:103750001FD8102C30D018D8012C04D0042C08BF4E
:10376000012018BF0920274B195C274B1832185C21
:10377000545808238340234353502B68DE622A6841
:10378000536943F00103536136E7402C08BF03201F
:10379000E7E7B4F5804F11D007D8B4F5806F0FD0AC
:1037A000B4F5805F08BF0620DBE7B4F5803F08BFB3
:1037B0000820D6E70420D6E70220D4E70720D2E786
:1037C0000520D0E7042245E7022243E7002241E733
:1037D00007223FE705223DE76FF08500EDE600BFD9
:1037E000517B0008D06D0008000C00408870000874
:1037F00078700008667B00085F7C00086070000835
:103800008D7B0008737C0008697C00082DE9F0437B
:1038100087B007694568434E304602F0A9FE50B9AB
:10382000414A4248012102F0F3F96FF012042046A8
:1038300007B0BDE8F083D6F8089005F10C08D9F878
:103840000030414630469847041E06DA384A23467F
:103850003648012102F0E5F9E9E7D9F80C30F3B177
:1038600001AA414630469847041E1ADB019B3B6083
:10387000D7E901018368DB68B3B9686901AA00214F
:1038800002F0AEFC041E07DB019B002219791868C8
:10389000FFF704FE041E09DA264A2346D8E76FF034
:1038A0005704254A2346D3E79847E6E701A802F0E4
:1038B0004BFE6B68ADF80430AB6802930023CDE992
:1038C000033301A9286800F08FFB38B11B4A174861
:1038D000012102F09DF96FF00404A8E72B68184A53
:1038E000934213D002F5006293420FD002F540627A
:1038F00093420BD002F58062934207D002F58062BA
:10390000934203D002F50062934203D15A6C42F411
:1039100000425A642A68136843F0010313600024CC
:1039200085E700BF30690008B77B0008D06D00084C
:10393000D67B0008187C0008F67B0008367C00085F
:10394000002C0140012912D0022907D089B9006852
:10395000094BC01A18BF0120000370470068064BCE
:10396000984214BF4FF440504FF40050704700206D
:1039700070474FF4005070470080004070B51D46FE
:10398000094B002633F812203346FCF7A7FC090246
:1039900041EA10616C08000220182A46334641F1C2
:1039A0000001FCF79BFC70BD8E7200082DE9F0430E
:1039B00083B002694368064610681D680C46D968E2
:1039C0008368DB6800AF43B9334A3448012102F011
:1039D0001FF90C37BD46BDE8F0833A1D9847002813
:1039E000F2DB2F4B9D4248D1D7F80480DFF8B4902A
:1039F00000252346AAB240460021FFF7BFFFA0F5ED
:103A00004070484518D901350C2DF2D16D468AB069
:103A100033686A462449D461C2E905134FF4007340
:103A20001384224B42F8103F1C4800234FF41151DD
:103A3000FEF766FAAD46CCE7194EF36A23F00F03A2
:103A40002B43F362002CC4D0194B33F8152000230C
:103A500019464046FCF742FC090241EA106163083E
:103A60000002C01822464FF0000341F10001FCF7AC
:103A700035FCC0F31300F060ABE72B6823F4004380
:103A80002B607B68002CA4D003EB5403B3FBF4F34E
:103A90009BB2EB609DE700BF8E7C0008E06D0008E4
:103AA00000800040FFFC0F00BC7C00080400000107
:103AB0008E7200082DE9F84306460A79406833699A
:103AC00004685F68012A0D4658D0931ED3F10008A0
:103AD00048EB03084FEA88286979FFF733FF95F828
:103AE0000690B9F1020F03464BD0B9F1040F4CD048
:103AF000002A54D0033A012A49D94FF48050B3F533
:103B0000805F4ED0B3F5405F4DD0002B0CBF01233A
:103B1000032399423BD1414602F0C5FB814536D192
:103B2000EB79C3B1012B40D1214B9C4213D0A3F5BB
:103B300074439C420FD003F580639C420BD003F585
:103B400080639C4207D003F580639C4203D003F559
:103B500040539C421BD1236823F001032360294674
:103B6000304602F056FC236843F00103236095E8D9
:103B7000030087E803000020BDE8F8834FF4C06825
:103B8000AAE73AB94FF08050B9E7002AB5D06FF0F4
:103B90008500F1E7033A012AF9D90020AFE7104682
:103BA000ADE70023B5E70223B3E7032BBCD0EEE774
:103BB000003801402DE9F04182B0046945680646AD
:103BC0006348206000AF02F0D3FC38B9614A624814
:103BD000012102F01DF86FF012040DE02068E96881
:103BE00083681B689847044658B9286A3A1D002123
:103BF00002F0F6FA041E0CDA20460837BD46BDE88E
:103C0000F081564A5448012102F002F8002CF3DBFF
:103C1000EBE77B68002219791868FFF73FFC041E68
:103C2000EADB756833692C68D3F80480236823F0D5
:103C300001032360686802F09BFC08B9484AC6E7A4
:103C4000D5E901018368DB6803B1984754E8003F78
:103C500043F00C0344E80032002AF7D141463046D5
:103C600002F0D7FB2B7D1BB1A36843F00803A360D0
:103C70006B7D1BB1636843F400436360AB7D1BB194
:103C8000636843F480336360EB7D1BB1636843F486
:103C9000003363602B7E002B47D0324B9C422AD0EE
:103CA000A3F574439C4226D003F580639C4222D046
:103CB00003F580639C421ED003F580639C421AD0BA
:103CC00003F540539C4216D06C4688B033686A4670
:103CD0002549C2E905134FF400739383234B42F83F
:103CE000103F1D4800234FF4E251FEF709F9A546A5
:103CF0006FF0150480E773681A68936843F4804393
:103D0000936023686A7E23F0787343EA425323600A
:103D10002368AA7E23F4F81343EA02432360EB7E70
:103D20001BB1A36843F40043A3602B7F1BB123683E
:103D300043F000532360236843F001032360E369E9
:103D40009A02FCD5E3695B02FCD5002454E700BF6E
:103D500030690008B77B0008E06D0008D37C0008DC
:103D6000F37C0008003801400E7D000803000001CC
:103D700010B54FF0E0230F499C691A6908689B69E8
:103D80000D4902F4803234B993B903464AB90A683E
:103D90001044C01A10BD002B08BF03460AB9A34245
:103DA000F5D90A6802440A604FF0E0221269EEE792
:103DB0000446F3E798080020940800200A4B1022DC
:103DC00083F82320094B44F268221A60084B002034
:103DD00018604FF0E02344F267225A6198611A6933
:103DE00042F007021A61704700ED00E098080020D9
:103DF0009408002010B5FFF7BBFF104B1049D3E922
:103E000000420868001942F10002C3E900020D4AAD
:103E100000230B60D2E9004144F26823001BB0FB91
:103E2000F3F043431B1941F10001C2E9003101F0F5
:103E300093F9BDE81040FEF795BB00BFB005002028
:103E400094080020A80500202DE9F041DFF8DC806F
:103E500099B1421C0BD14FF0E022136923F001030A
:103E600013614FF07F43C8F80030BDE8F081D8F807
:103E70000060012807DC00270BE0431CD8F8006035
:103E8000F7D140F2D93040F2DA339842A8BF184651
:103E9000471EEFF31185102383F31288BFF36F8F52
:103EA000FFF766FF224C4FF0E0239969D4E9002325
:103EB000801843F10003C4E900031E4B00221A607E
:103EC0001D4B1A68831A2ED444F2682C0CFB07335E
:103ED00003F584436733B3FBFCF7131A0CFB07337A
:103EE00040F22642934238BF1346144A934228BFF9
:103EF00013464FF0E022C8F80030013B906953614F
:103F0000002393618142A1EB0003D4E9001238BF82
:103F10009B195B1842F10002C4E9003285F3118855
:103F2000BFF36F8FA1E740F22643E2E79808002035
:103F3000B005002094080020A80500202882FF007A
:103F400038B5EFF31185102383F31288BFF36F8F19
:103F5000084B1C68084B1B68E41AFFF709FF85F340
:103F60001188BFF36F8F44F268232044B0FBF3F055
:103F700038BD00BFB0050020A8050020174B9A6887
:103F800002F00C02042A23D09A6802F00C02082ADC
:103F900020D09A6802F00C020C2A1DD1D968DA6888
:103FA000D868DB6801F00301C3F341630329C2F35E
:103FB0000312C0F3062003F101030CBF08490949AD
:103FC0005B000132B1FBF2F25043B0FBF3F07047FB
:103FD00004487047024870470020704700100240B4
:103FE00000366E010024F4002C4A0368904245D04C
:103FF000B0F1804F42D0A2F5943290423ED002F50B
:10400000806290423AD002F58062904236D002F54A
:104010009432904232D002F5E05290422ED0A2F576
:104020008052904207D002F58062904203D002F5A0
:104030008062904227D1CA6823F44073134303601F
:104040008B68C3620B888362144B984213D003F5CC
:10405000006398420FD003F5406398420BD003F5FC
:104060008063984207D003F58063984203D003F53C
:10407000006398420CD10B69036309E04A6823F09E
:1040800070031343D7E703608B68C3620B888362B6
:10409000436943F00103436100207047002C014055
:1040A000B1F5805F30B500F021810AD8102900F009
:1040B0008E80B1F5807F00F0D280012941D00120AF
:1040C00030BDB1F5803F00F05B81B1F5801FF6D1C6
:1040D000036A23F480130362036A016D146821F0FC
:1040E000807121F4E04141EA0424116923F40013B2
:1040F00043EA0153516823F4801343EA01539F4973
:10410000884213D001F5006188420FD001F540616B
:1041100088420BD001F58061884207D001F58061AB
:10412000884203D001F50061884206D14168956953
:1041300021F4802141EA852141600465D268C2648E
:1041400042E0036A23F001030362036A4168846961
:10415000156824F4803424F073042C43156923F08B
:1041600002032B43556823F001032B43834DA842E0
:1041700013D005F50065A8420FD005F54065A842AB
:104180000BD005F58065A84207D005F58065A842EB
:1041900003D005F50065A84212D1556923F0080344
:1041A00043EA8503956823F0040343EA8503956990
:1041B00021F480712943D56921F4007141EA450158
:1041C00041608461D26842630362002078E7036A39
:1041D00023F010030362036A41688469156824F0C0
:1041E000807424F4E64444EA0524156923F020038E
:1041F00043EA0513556823F0100343EA05135F4DA6
:10420000A84213D005F50065A8420FD005F540651A
:10421000A8420BD005F58065A84207D005F580655A
:10422000A84203D005F50065A84213D1556923F0D3
:10423000800343EA8513956823F0400343EA85131E
:10424000956921F4806141EA8501D56921F4006115
:1042500041EAC50141608461D2688263B4E7036AC0
:1042600023F480730362036A4168C469156824F407
:10427000803424F073042C43156923F4007343EA5B
:104280000523556823F4807343EA05233B4DA84278
:1042900013D005F50065A8420FD005F54065A8428A
:1042A0000BD005F58065A84207D005F58065A842CA
:1042B00003D005F50065A84213D1556923F40063C6
:1042C00043EA8523956823F4806343EA852395694F
:1042D00021F4805141EA0511D56921F4005141EAE8
:1042E00045114160C461D268C2636DE7036A23F47B
:1042F00080530362036A4168C469156824F08074BE
:1043000024F4E64444EA0524156923F4005343EAFF
:104310000533556823F4805343EA0533174DA8420B
:1043200013D005F50065A8420FD005F54065A842F9
:104330000BD005F58065A84207D005F58065A84239
:1043400003D005F50065A84213D1556923F4004355
:1043500043EA8533956823F4804343EA85339569BE
:1043600021F4804141EA8511D56921F4004141EAF7
:10437000C5114160C461D268026425E7002C014088
:10438000036A23F480330362036A016D146821F425
:10439000803121F070010C43116923F4003343EAAA
:1043A0000143516823F4803343EA014311498842B1
:1043B00013D001F5006188420FD001F540618842B9
:1043C0000BD001F58061884207D001F580618842F9
:1043D00003D001F50061884206D14168956921F456
:1043E000803141EA052141600465D268816C8264B4
:1043F000EAE600BF002C0140294A1368D2F8802069
:1044000012F4807F03F4C063264A00F1FF3124D107
:10441000914242D8B3F5007F2FD1234B984234D834
:10442000224B984233D8224B984234D8214B9842A1
:1044300094BF00200120204A136823F00F03034398
:104440001360136803F00F0398421CBF136803F056
:104450000F03C01A18BF0120704791421DD8B3F551
:10446000007F0AD1154B98420FD8154B98420ED8B1
:10447000144B98420FD8144BD9E7B3F5806F08D18D
:10448000124B984207D8124BD1E70420D3E7032000
:10449000D1E70020CFE70220CDE70120704700BF21
:1044A000007000407FFE210A00321B088065140660
:1044B00000990D0480CC060200200240000E270760
:1044C000804A5D050087930380C3C90100366E01F1
:1044D000001BB70010B50446FDF732FC0348044A40
:1044E000012101F095FB204602F04DF8C06D000857
:1044F0006B7D00082DE9F843044600AF0D46EFF34D
:104500001188102383F31288BFF36F8F0428294A80
:1045100098BF294B9668117C94BF53F82030274BE5
:10452000E9468AB06A462648C2E9073140F20133BB
:104530009384244BC2E9050442F8103F224800232B
:104540004FF43151FDF7DCFCCD4645B1EB69C3F3C7
:10455000080323B11D4A1C48012101F059FB2EB16B
:10456000304602F05BF808B1037803B91848E94611
:104570008AB06A46174BD061C2E9053640F2013372
:104580001384154B42F8103F00230F484FF411518C
:10459000FDF7B6FC2946CD462046FFF79BFF88F382
:1045A0001188BFF36F8F3046FEF740FABD46BDE875
:1045B000F88300BF9C080020607100087A7D000825
:1045C000907D000805000001C06D0008B87D00085E
:1045D000887D0008D97D00080400000138B5094B2A
:1045E00053F82040013053F82050A54200D838BD80
:1045F000636823B1204601F0CEFF0834F5E7236855
:104600009847FAE77471000870B52B4B2B4C2C4D72
:10461000012286B003201A70FFF7E0FF00F0C6FE0B
:1046200001F0D5FF0420FFF7D9FF2646AE4204F182
:10463000300410D300F04EFB204C224EAC4226D367
:1046400000F05CFBFCF7A4F81F4A137B23F0010386
:10465000137306B070BD54F80C3C059354F8103C2D
:10466000049354F8143C039354F8183C029354F800
:104670001C3C019354F8203C009354E90A2354E96C
:104680000C0100F03BF954F8303C5E65CDE7D4E90D
:104690000A23B3F1FF3F08BFB2F1FF3F05D052EA52
:1046A0000301206803D101F0BBFF3034C6E7314677
:1046B000183000F0D7FCF8E7D00800208C6D000817
:1046C0008C6D00084D6700083806002008B50348C7
:1046D000034A0021121A01F076FF08BDE80000200D
:1046E000D408002070B5002386B00122CDE9042350
:1046F000134E144D01930F22CDE9023212491423B7
:1047000003FB005506EBC01604464FF4C07000FBD7
:1047100004110E4B00954FF4A072304600F0EEF8F5
:10472000737B0B4AEE6023F0040373734FF404634E
:1047300004FB033313442C746B6006B070BD00BFE0
:10474000B80500209C08002080140020DD650008CA
:10475000400C0020BFB50020FFF740FF2C4B83F337
:1047600008882C4D2C4E6B692C4F43F400736B6101
:104770000024F02385F82230EC772C766C76AC762A
:1047800085F820406B6A43F4E0236B62FEF726F95C
:10479000FEF75EFA4FF0FF33AB62EB62FEF732FBDF
:1047A000FEF77AFAFDF73EFA1D4BB36040F20112B4
:1047B0009A81C3E919441C6701F0D9FE0120FFF773
:1047C0000DFF0220174DFFF709FF00F0B7FA164B57
:1047D00075610593012315490094CDE903434FF416
:1047E00000623B46CDE90144284600F087F86A7B29
:1047F000064622F0040228466A7301F04DFF204667
:10480000FFF770FF3A4631462846FEF703FA00BF2D
:104810008014002000ED00E09C08002009460008FC
:10482000B8060020380600203B7E00080016002055
:1048300038B5054C256804EB850405B938BD54F836
:104840000439013D9847F8E78C6D000838B5044CF1
:10485000044DAC4200D338BD54F8043B9847F8E708
:10486000986D0008986D000838B50446EFF311857F
:10487000102383F31288BFF36F8F01F081FF48B1DB
:104880000022826701F008FF29460848BDE8384049
:1048900000F0DCB9D4E902329A4218BF0133A360B8
:1048A00085F31188BFF36F8F38BD00BFD10800209A
:1048B00013B5EFF31181102484F31288BFF36F8FC7
:1048C000846844B1013C846081F31188BFF36F8F29
:1048D000002002B010BD52EA030406D181F3118812
:1048E000BFF36F8F6FF00F00F3E7CDE900230246AF
:1048F000014800F07FF9ECE7D1080020F0B507325D
:1049000085B022F0070204467F320E9D0D9E25736E
:10491000583022F03F02C4E91600042500203F2A47
:10492000A673C4E90600A0606573E07301F1400757
:10493000A2F1400605D880F31188BFF36F8F284697
:1049400002DFC4E919768D1800260C9AE6660292F9
:104950000B9A01920A9A009220462A46FEF728F9FD
:10496000044B66659B6803B11B6F2367284605B03F
:10497000F0BD00BF9C080020F0B587B0002505956C
:10498000109D04950F9D03950E9D0295DDE912760D
:104990000D9D01950C9D00950446FFF7AFFFB6F104
:1049A000FF3F08BFB7F1FF3F05D056EA070305D127
:1049B000204600F05DF9204607B0F0BD03493A46B5
:1049C000334604F1180000F04DFBF4E74D67000892
:1049D00038B50D4D2B4653F8184F9C4200D004B902
:1049E000EC68AB6838B95A7BD20604D1A26912B917
:1049F000DA897F2A05D89C4202D0204600F07AFA54
:104A000023466B6138BD00BF9C08002008B590F9B3
:104A10000D20437B002A014604DA03F07F03437331
:104A200001F000FE044B9868431A58425841BDE813
:104A30000840FFF7CDBF00BF9C08002070B490F97C
:104A40000D30427B002B29DBD30627D183692BBB9A
:104A5000134962F07F0242730A4652F8184F94429B
:104A600018BF2346CC6923B9C0E900242060C8617F
:104A70000CE090F90E5093F90E60B5420AD0AE42A8
:104A800008DD5A68C0E900321060586070BC002030
:104A9000FFF79EBF9C42E7D01B68E4E770BC7047FD
:104AA0009C0800202DE9F041002A427B0E460CBFF5
:104AB00010210821114204460FD141EA0203D20914
:104AC00018D1437308291BD00120FFF781FFBFF3E2
:104AD0005F8F637B23F060036373274B9B68A34264
:104AE00043D1EFF30583002B3FD13046BDE8F041C1
:104AF000FDF7B2BF03F07F03437301F093FDE1E7DD
:104B0000A36813B1204601F095FD04F1180001F0EF
:104B100074FEA56D04F15807AF4211D04FF00008A4
:104B200075B1284601F086FD05F1180001F065FE1B
:104B3000C5F878802846FFF781FFA56DAF42EFD119
:104B40000D4DAB689C42BFD1EFF30583002BBBD06A
:104B50000120FFF73DFF094BAB6040F201129A8143
:104B60000022C3E919221A67B1E786F31188BFF35F
:104B70006F8FBDE8F08100BF9C080020B8060020C0
:104B800070B590F90D20437B002A014604DA03F04A
:104B90007F03437301F046FD4B7B154A63F07F03AF
:104BA00010464B7350F8183FD469834208BF002366
:104BB00023B9C1E900042160D1610CE091F90E50E4
:104BC00093F90E60B5420ED0AE420CDD5868C1E9D3
:104BD0000030016059609068431A5842BDE8704047
:104BE0005841FFF7F5BE9C42E3D01B68E0E700BFE9
:104BF0009C080020F8B5124B0C461146114A9868E3
:104C00001060DDE90676EFF31182102282F312883C
:104C1000BFF36F8F9D68284601F016FDB6F1FF3F88
:104C200008BFB7F1FF3F06D007493A46334605F1C2
:104C3000180000F017FA2046BDE8F840FDF70CBF59
:104C40009C080020BC0800204D67000849B9EFF31C
:104C5000058030B9054B5A699B689A4201D0FDF72F
:104C6000FBBE81F31188BFF36F8F70479C08002053
:104C700010B5EFF31184102282F31288BFF36F8F07
:104C8000427B510704D484F31188BFF36F8F10BDAA
:104C900022F004024273FFF7D1FE21460248BDE82C
:104CA0001040FFF7D3BF00BFD2080020034648B929
:104CB000EFF3058232B9064A51699268914201D0F8
:104CC000FDF7CABE83F31188BFF36F8F704700BF33
:104CD0009C080020EFF31181102383F31288BFF3A7
:104CE0006F8F054B9A68D37B013BD37381F3118897
:104CF000BFF36F8F704700BF9C08002038B5EFF3FB
:104D00001185102484F31288BFF36F8F0A4B9A68C1
:104D1000D37B0133D3730020FFF75AFE85F311884C
:104D2000BFF36F8FEFF3118084F31288BFF36F8F9F
:104D3000BDE83840FFF7BABF9C080020024B03F1E2
:104D40001802C3E9062270479C080020F8B5EFF36B
:104D50001185102383F31288BFF36F8F1949886878
:104D6000437B03F07F03437301F05CFC8B685A7B49
:104D7000084662F07F025A7350F8182FCC698242BD
:104D800008BF002222B9C3E900042360CB610CE014
:104D900093F90E6092F90E70BE420ED0B7420CDD50
:104DA0005168C3E900210B6053600120FFF710FE3A
:104DB0002846BDE8F840FDF74FBEA242E3D0126896
:104DC000E0E700BF9C08002050EA01032DE9F04114
:104DD00005460E4603D1FFF7B9FF00202BE0831CE8
:104DE00071F1FF3329DB01F01DFD2C18EFF3118861
:104DF000102383F31288BFF36F8F124F124BB868E2
:104E00001860FFF703FEB86810492A463346183089
:104E100000F028F9BA68537B43F0100353734046FF
:104E2000FDF71AFE01F0FEFC201A63EB03030128D4
:104E300073F10003D1DBBDE8F0816FF00104241AA7
:104E4000D4E700BF9C080020BC0800204D67000884
:104E5000B1F1FF3F08BFB0F1FF3F08B506D10A4BE3
:104E6000986801F028FC4FF0FF3008BDFFF7ACFF59
:104E7000C11709304FF00A024FF0000341F1000161
:104E8000FBF72CFAF1E700BF9C080020014B986863
:104E9000704700BF9C080020044BC01A044BC01090
:104EA0005843044B01221A54704700BF38070020B2
:104EB000ABAAAAAAD3080020C3897F2B12D80A4B19
:104EC0001B6863B1094B90F90E201B689A4209DBFD
:104ED000437BDB0606D1064BC31A18BF012303F040
:104EE000010070470023FAE7C4080020C008002032
:104EF000B805002070B50E4B0E4C1E7C06EB460329
:104F000004EBC3040546204601F077FC0A4B00225F
:104F100028469A55FFF7D0FF48B1084B08491A6850
:104F2000013A2046D317BDE8704000F09BB870BD31
:104F30009C08002038070020D3080020C408002067
:104F4000994E000838B5EFF31185102383F31288CA
:104F5000BFF36F8F104B114A9C681068A04206D1B6
:104F6000FFF7C8FF85F31188BFF36F8F38BD0021AD
:104F70001B7C11600A4AD35C002BF3D02046FFF75C
:104F80009BFF0028EED0637BDB0602D12046FFF7B3
:104F9000F7FD2046E4E700BF9C080020BC08002085
:104FA000D308002008B50648064A0749121A01F03E
:104FB0000CFBBDE80840054A0549064801F005BB61
:104FC00000000020E80000206C7E000800000000C7
:104FD0006C7E000800000020034B1B680BB9FEF735
:104FE000AFBF0020704700BFC808002030B570B1C7
:104FF0000B4B5B6898420AD0036843B1D3E90421A4
:10500000D0E90445121941EB0501C3E90421D0E9B7
:10501000003213605A600023C0E9003330BD00BF86
:105020006000002010B50E4B1C689C4204D1FFF7B5
:10503000D3FF6FF0004010BDFFF7CEFF002CF8D07B
:10504000D4E904321B1A62EBE072B3F1004F72F143
:105050000001EEDA002AACBF18460020EBE700BFE3
:1050600060000020B3F1FF3F08BFB2F1FF3FF8B589
:1050700004461D4616465ED08160EFF3118710236B
:1050800083F31288BFF36F8F013275F1FF3324DA97
:105090002E49D1E900206FF001039B1A4FF0FF3237
:1050A00062EB00009E1B60EB0500012E70F1000317
:1050B00001DA01260020C4E90460254ED6F800C0BC
:1050C0007568B44508BF4FF0000CBCF1000F0DD15E
:1050D000C4E900652C6074601CE0FFF77DFF0136B9
:1050E00045F10005361845EBE070E4E7DCE9042003
:1050F000D4E90431934271EB000E1DDAD21ADCF8C8
:10510000043060EB0100CCE90420C4E900C31C605A
:10511000CCF804403368B34209D09C4207D10D4B10
:105120001C6824B9FFF77EFF2146FEF78DFE87F34A
:105130001188BFF36F8FF8BD9B1A61EB0001AC457E
:10514000C4E90431C4D0DCF800C0BEE75007002039
:1051500060000020C80800202DE9F84FEFF3118C03
:10516000102383F31288BFF36F8FDFF8B0A0DFF84E
:10517000B0902C4FC9F80000DAF800000024504528
:1051800008BF00200025D7E90021D9F80030E0460B
:1051900078B3D0E9046C4FEAE37EB3427EEB0C0BAC
:1051A00005DAF61A6CEB0E04C0E9046421E0B218CB
:1051B00041EBE671C0E90445C7E90021FFF716FF9E
:1051C00088F31188BFF36F8F83689847EFF31188D6
:1051D000102383F31288BFF36F8FD9F80030DAF809
:1051E00000009B1B5045C446C9F80030CBD1D7E91D
:1051F00000219A1841EBE3730024C7E90023C9F8A2
:105200000040FFF70FFF2146FEF71EFE88F31188CE
:10521000BFF36F8FBDE8F84FFFF794BE600000202A
:10522000C80800205007002010B5EFF311841023A8
:1052300083F31288BFF36F8FFFF7CEFE054A034654
:10524000D2E90001181841EBE37184F31188BFF330
:105250006F8F10BD50070020F8B50446EFF311879B
:10526000102383F31288BFF36F8F026822B187F394
:105270001188BFF36F8FF8BDD0E90A36581C46F18C
:105280000001022871F1000127D3012B76F1000102
:10529000BCBF012316465D1E46F1FF3601F0C6FA7B
:1052A000013041F10001401946EB0101012871F183
:1052B000000139DB01F0BAFA013041F100016FF071
:1052C0000102401946EB0103121A4FF0FF3161EB66
:1052D000030318492046FFF7C5FE236B0133236300
:1052E000236A6BB187F31188BFF36F8F236A20465F
:1052F0009847EFF31187102383F31288BFF36F8F62
:1053000054F8185FA542B2D0002DB0D0284601F065
:10531000EBF90023AB6787F31188BFF36F8F284643
:10532000BDE8F84001F0B8B96FF001024FF0FF336B
:10533000CFE700BF595200082DE9F04105461C4651
:1053400090461F46EFF31186102383F31288BFF3B4
:105350006F8FB4F1FF3F08BFB2F1FF3F05D186F375
:105360001188BFF36F8FBDE8F081531C74F1FF33D8
:1053700009DB012A74F10003BCBF0122002412F1F1
:10538000FF3844F1FF37284601F037FADDE906011E
:105390000023C5E90A012B63034942463B462846E0
:1053A000FFF760FEDBE700BF59520008014800F03C
:1053B00001B900BF437E0008830730B547D0541EB3
:1053C000002A3ED0CAB2034601E0013C39D303F8BB
:1053D000012B9D07F9D1032C2CD9CDB205EB052566
:1053E0000F2C05EB054535D9A4F1100222F00F0C66
:1053F00003F1100EE6444FEA121C1A461560556080
:105400009560D56010327245F8D10CF1010214F0AC
:105410000C0F03EB021204F00F0C13D0ACF10403D9
:1054200023F003030433134442F8045B9A42FBD194
:105430000CF003042CB1C9B21C4403F8011B9C42BC
:10544000FBD130BD64461346002CF4D1F9E7034686
:105450001446C0E71A46A446E0E700BF71B1034610
:1054600000EB010C01E0634506D01A4601331178C8
:105470000029F8D1101A7047181A7047084670476B
:1054800070470B680360022A04BF4B684360704793
:1054900007B50122019101A9FFF7F3FF03B05DF801
:1054A00004FBF0B4034600681979DB880669876855
:1054B0003468DA0754BF43F4D01383F4B0130125E2
:1054C0008D4023F48012DB074CBF2C43AC43346087
:1054D0003B68F0BC18470A2180FB0101FFF7B8BC0C
:1054E0002DE9F04706460D46174698462BB398F827
:1054F000004093F80190DB78A40004EB430498F893
:1055000002301C4444444FF0000ACA4509D3D8F87D
:10551000042008F1080339463046AC46BDE8F047A0
:10552000604714F8013B48F823402046FAF768FE2C
:10553000013004440AF1010AE7E76FF01500BDE805
:10554000F08770B5002502462846144614F8013B42
:105550000BB9184609E098B18D4207D1702B04D0E1
:10556000A3F140023A2A0BD8002070BDA3F14006F7
:105570003A2E05D853780135941C002BE9D0002031
:10558000252B08BF80F001002246DEE7002070478F
:1055900030B50C688B6814B14A689A4202DC01335A
:1055A0008B6030BD013A9A4214BF05460025E55490
:1055B0008B68F4E70FB407B504A951F8040B019107
:1055C00000F0ADFA03B05DF804EB04B070470CB422
:1055D00007B504AB53F8042B0193FBF795FD03B01B
:1055E0005DF804EB02B07047044608B50846114662
:1055F0001A46A047FFF74AFCFDF718FA2DE9F041DB
:105600000746884615461E461446B44205D30EB1D9
:10561000601B08E02378002BFAD014F8010B4146F8
:10562000B8470028F1DABDE8F08110B503690246F9
:1056300013F0080009D11368D4689C4297BF526ADE
:10564000E31AD31A01200B6010BD00231846FAE7B5
:1056500013B501A90446FFF7E8FF20B1019BE268FA
:10566000013B13440193606A019BC01A013802B0E8
:1056700010BD10B5044650182269636AD20702D5DE
:10568000013B184010BD984228BFC01AFAE710B578
:1056900004460A46C168FFF7ECFF2369E06023F087
:1056A0000803236110BD38B50D46026A8B000168FE
:1056B00043F0020342F82130044601682A46FFF70E
:1056C000D8FFE36861682060984202BF236943F015
:1056D000080323612A462046FFF7CBFF606038BDF0
:1056E0002DE9F74FC768066A9B4616F8273003F086
:1056F0000303022B04468846914606EB870A4FF0C7
:10570000000309D01360CBF800302369990710D447
:10571000002003B0BDE8F08F56F827101360890809
:10572000CBF80030F1D0FFF7B2FFE368A3600120AF
:10573000EFE7E3695046984716F82730DA07054641
:10574000E6D513F002031DD0B8F1000F03D0414697
:105750002046FFF7A8FF61682A462046FFF789FF29
:10576000D4E902319942606004D12A462046FFF70D
:1057700080FFA060A3682360E360236943F008030F
:105780002361D4E7014620460193FFF780FFE268DA
:10579000A260B8F1000F04D02168226A019B42F890
:1057A000213005EB0802CBF8002021682046FFF7E6
:1057B00060FF2369206043F00803236116F8273057
:1057C0006FF3000306F82730C9F800A0AFE770B503
:1057D00004461546FFF74DFF2368834205D1236930
:1057E000216023F00803236170BD226AAB0043F0FF
:1057F000020342F82130204661682A46FFF739FF4C
:105800006060F1E738B503695B07044606D5856A31
:10581000FFF71EFF85422CBFA562A06238BD38B5D8
:105820000D46044620220021FFF7C6FDEB68E36128
:10583000AB68A3612B6823626B6863620022A2627B
:105840002A6923B1591E194208BF42F001022261A0
:10585000012204F12C000021BDE8384000F0C9BE4F
:105860002DE9F04F87B000250093436A03958B42E2
:1058700004460E4692460595A94639D3EFF3118B9F
:10588000102383F31288BFF36F8F059AD8462AB18D
:1058900029462046FFF79BFF0023059304A92046D5
:1058A000FFF7C3FE0499B14207462AD32268236A50
:1058B00013F8221021F0030103F8221003EB8209F0
:1058C000216832462046FFF7D4FEE3682060984204
:1058D00012D0002788F31188BFF36F8F039929B185
:1058E000A2690AB12046904700230393002FC5D137
:1058F000484607B0BDE8F08F236943F008032361F1
:10590000E7E718B12046FFF7CEFEE3E7009B5AEA2F
:10591000030319D0019100F078FE0199A0B98BF32F
:105920001188BFF36F8F009B524604F12C00FEF7E5
:10593000BFFFEFF31188102383F31288BFF36F8F3B
:10594000B0FA80F77F09C5E705AB03AA20462568B2
:10595000FFF7C6FE0746BDE770B50446C3690846B3
:105960000D4698470246EFF31186102383F3128801
:10597000BFF36F8F2B7843F001032B7061682046D3
:10598000FFF777FE60602046FFF73CFF86F3118843
:10599000BFF36F8F70BD2DE9F04104461027EFF380
:1059A000118687F31288BFF36F8F236913F0080FF6
:1059B000A36802D16268934200D9626A216AD21A4E
:1059C00032B986F31188BFF36F8F4FF0000833E0D0
:1059D00011F8232012F0030001EB8308F1D0022814
:1059E00003D151F82350AD0805D1D00712D4E36993
:1059F000404698470546A1682A462046FFF739FEEB
:105A00002946A0602046FFF742FE86F31188BFF3C7
:105A10006F8FC4E742F0020201F823204046E36999
:105A2000A5689847294602462046FFF722FEA06057
:105A300086F31188BFF36F8F4046BDE8F081F8B55B
:105A40000446C36908460D4698470646EFF311879A
:105A5000102383F31288BFF36F8F2B786FF300034B
:105A60002B7023699B0705D5E268236A03EB820349
:105A70009D421AD12B786FF341032B70D4E9023188
:105A8000994204D132462046FFF7F3FDA06031462B
:105A90002046FFF7FCFD87F31188BFF36F8F04F1F9
:105AA0002C00BDE8F840FEF7DFBE2B6860F39F03D3
:105AB0002B60F0E702698368120702D442689A42B9
:105AC00000D2426AD31A181E18BF012070477047CF
